{
  "_format": "hh-sol-artifact-1",
  "contractName": "ShadowOTC",
  "sourceName": "contracts/src/ShadowOTC.sol",
  "abi": [
    {
      "anonymous": false,
      "inputs": [
        {
          "indexed": true,
          "internalType": "uint256",
          "name": "dealId",
          "type": "uint256"
        },
        {
          "indexed": false,
          "internalType": "address",
          "name": "seller",
          "type": "address"
        }
      ],
      "name": "DealAccepted",
      "type": "event"
    },
    {
      "anonymous": false,
      "inputs": [
        {
          "indexed": true,
          "internalType": "uint256",
          "name": "dealId",
          "type": "uint256"
        },
        {
          "indexed": false,
          "internalType": "address",
          "name": "buyer",
          "type": "address"
        },
        {
          "indexed": false,
          "internalType": "string",
          "name": "intent",
          "type": "string"
        },
        {
          "indexed": false,
          "internalType": "uint256",
          "name": "amount",
          "type": "uint256"
        }
      ],
      "name": "DealCreated",
      "type": "event"
    },
    {
      "anonymous": false,
      "inputs": [
        {
          "indexed": true,
          "internalType": "uint256",
          "name": "dealId",
          "type": "uint256"
        },
        {
          "indexed": false,
          "internalType": "bool",
          "name": "success",
          "type": "bool"
        }
      ],
      "name": "DealExecuted",
      "type": "event"
    },
    {
      "inputs": [
        {
          "internalType": "uint256",
          "name": "dealId",
          "type": "uint256"
        }
      ],
      "name": "acceptDeal",
      "outputs": [],
      "stateMutability": "nonpayable",
      "type": "function"
    },
    {
      "inputs": [
        {
          "internalType": "string",
          "name": "intent",
          "type": "string"
        }
      ],
      "name": "createDeal",
      "outputs": [
        {
          "internalType": "uint256",
          "name": "",
          "type": "uint256"
        }
      ],
      "stateMutability": "payable",
      "type": "function"
    },
    {
      "inputs": [],
      "name": "dealCounter",
      "outputs": [
        {
          "internalType": "uint256",
          "name": "",
          "type": "uint256"
        }
      ],
      "stateMutability": "view",
      "type": "function"
    },
    {
      "inputs": [
        {
          "internalType": "uint256",
          "name": "",
          "type": "uint256"
        }
      ],
      "name": "deals",
      "outputs": [
        {
          "internalType": "address",
          "name": "buyer",
          "type": "address"
        },
        {
          "internalType": "address",
          "name": "seller",
          "type": "address"
        },
        {
          "internalType": "uint256",
          "name": "amount",
          "type": "uint256"
        },
        {
          "internalType": "string",
          "name": "intent",
          "type": "string"
        },
        {
          "internalType": "enum ShadowOTC.DealStatus",
          "name": "status",
          "type": "uint8"
        }
      ],
      "stateMutability": "view",
      "type": "function"
    },
    {
      "inputs": [
        {
          "internalType": "uint256",
          "name": "dealId",
          "type": "uint256"
        },
        {
          "internalType": "bool",
          "name": "success",
          "type": "bool"
        }
      ],
      "name": "executeDeal",
      "outputs": [],
      "stateMutability": "nonpayable",
      "type": "function"
    },
    {
      "inputs": [
        {
          "internalType": "uint256",
          "name": "dealId",
          "type": "uint256"
        }
      ],
      "name": "getDeal",
      "outputs": [
        {
          "components": [
            {
              "internalType": "address",
              "name": "buyer",
              "type": "address"
            },
            {
              "internalType": "address",
              "name": "seller",
              "type": "address"
            },
            {
              "internalType": "uint256",
              "name": "amount",
              "type": "uint256"
            },
            {
              "internalType": "string",
              "name": "intent",
              "type": "string"
            },
            {
              "internalType": "enum ShadowOTC.DealStatus",
              "name": "status",
              "type": "uint8"
            }
          ],
          "internalType": "struct ShadowOTC.Deal",
          "name": "",
          "type": "tuple"
        }
      ],
      "stateMutability": "view",
      "type": "function"
    }
  ],
  "bytecode": "0x608060405234801561001057600080fd5b50611572806100206000396000f3fe6080604052600436106100555760003560e01c806303988f841461005a578063217328b61461009b5780637d41702e146100c657806382fd5bac146100ef578063c65d792d1461012c578063e87f0b071461015c575b600080fd5b34801561006657600080fd5b50610081600480360381019061007c9190610b15565b610185565b604051610092959493929190610c99565b60405180910390f35b3480156100a757600080fd5b506100b0610290565b6040516100bd9190610cf3565b60405180910390f35b3480156100d257600080fd5b506100ed60048036038101906100e89190610b15565b610296565b005b3480156100fb57600080fd5b5061011660048036038101906101119190610b15565b610463565b6040516101239190610dfb565b60405180910390f35b61014660048036038101906101419190610e82565b610613565b6040516101539190610cf3565b60405180910390f35b34801561016857600080fd5b50610183600480360381019061017e9190610f07565b610858565b005b60016020528060005260406000206000915090508060000160009054906101000a900473ffffffffffffffffffffffffffffffffffffffff16908060010160009054906101000a900473ffffffffffffffffffffffffffffffffffffffff16908060020154908060030180546101fa90610f76565b80601f016020809104026020016040519081016040528092919081815260200182805461022690610f76565b80156102735780601f1061024857610100808354040283529160200191610273565b820191906000526020600020905b81548152906001019060200180831161025657829003601f168201915b5050505050908060040160009054906101000a900460ff16905085565b60005481565b6000600160008381526020019081526020016000209050600060038111156102c1576102c0610c22565b5b8160040160009054906101000a900460ff1660038111156102e5576102e4610c22565b5b14610325576040517f08c379a000000000000000000000000000000000000000000000000000000000815260040161031c90610ff3565b60405180910390fd5b3373ffffffffffffffffffffffffffffffffffffffff168160000160009054906101000a900473ffffffffffffffffffffffffffffffffffffffff1673ffffffffffffffffffffffffffffffffffffffff16036103b7576040517f08c379a00000000000000000000000000000000000000000000000000000000081526004016103ae9061105f565b60405180910390fd5b338160010160006101000a81548173ffffffffffffffffffffffffffffffffffffffff021916908373ffffffffffffffffffffffffffffffffffffffff16021790555060018160040160006101000a81548160ff0219169083600381111561042257610421610c22565b5b0217905550817fcaa178930b9239bceff806edeee7eed46981c68c9d2711a0ee1a39cd02daf27d33604051610457919061107f565b60405180910390a25050565b61046b610a68565b600160008381526020019081526020016000206040518060a00160405290816000820160009054906101000a900473ffffffffffffffffffffffffffffffffffffffff1673ffffffffffffffffffffffffffffffffffffffff1673ffffffffffffffffffffffffffffffffffffffff1681526020016001820160009054906101000a900473ffffffffffffffffffffffffffffffffffffffff1673ffffffffffffffffffffffffffffffffffffffff1673ffffffffffffffffffffffffffffffffffffffff1681526020016002820154815260200160038201805461054f90610f76565b80601f016020809104026020016040519081016040528092919081815260200182805461057b90610f76565b80156105c85780601f1061059d576101008083540402835291602001916105c8565b820191906000526020600020905b8154815290600101906020018083116105ab57829003601f168201915b505050505081526020016004820160009054906101000a900460ff1660038111156105f6576105f5610c22565b5b600381111561060857610607610c22565b5b815250509050919050565b6000803411610657576040517f08c379a000000000000000000000000000000000000000000000000000000000815260040161064e906110e6565b60405180910390fd5b600080600081548092919061066b90611135565b9190505590506040518060a001604052803373ffffffffffffffffffffffffffffffffffffffff168152602001600073ffffffffffffffffffffffffffffffffffffffff16815260200134815260200185858080601f016020809104026020016040519081016040528093929190818152602001838380828437600081840152601f19601f8201169050808301925050505050505081526020016000600381111561071957610718610c22565b5b8152506001600083815260200190815260200160002060008201518160000160006101000a81548173ffffffffffffffffffffffffffffffffffffffff021916908373ffffffffffffffffffffffffffffffffffffffff16021790555060208201518160010160006101000a81548173ffffffffffffffffffffffffffffffffffffffff021916908373ffffffffffffffffffffffffffffffffffffffff1602179055506040820151816002015560608201518160030190816107dc9190611358565b5060808201518160040160006101000a81548160ff0219169083600381111561080857610807610c22565b5b0217905550905050807fd0e21158193ddc90e4f5d210beb62bb703f736c67266dc736a257dc30b9f0601338686346040516108469493929190611466565b60405180910390a28091505092915050565b60006001600084815260200190815260200160002090506001600381111561088357610882610c22565b5b8160040160009054906101000a900460ff1660038111156108a7576108a6610c22565b5b146108e7576040517f08c379a00000000000000000000000000000000000000000000000000000000081526004016108de906114f2565b60405180910390fd5b811561098e5760028160040160006101000a81548160ff0219169083600381111561091557610914610c22565b5b02179055508060010160009054906101000a900473ffffffffffffffffffffffffffffffffffffffff1673ffffffffffffffffffffffffffffffffffffffff166108fc82600201549081150290604051600060405180830381858888f19350505050158015610988573d6000803e3d6000fd5b50610a2b565b60038160040160006101000a81548160ff021916908360038111156109b6576109b5610c22565b5b02179055508060000160009054906101000a900473ffffffffffffffffffffffffffffffffffffffff1673ffffffffffffffffffffffffffffffffffffffff166108fc82600201549081150290604051600060405180830381858888f19350505050158015610a29573d6000803e3d6000fd5b505b827f28de9c2b09dd20fbbc169895a9937c78a59bbdb5558601145d15ad89331b4d5683604051610a5b9190611521565b60405180910390a2505050565b6040518060a00160405280600073ffffffffffffffffffffffffffffffffffffffff168152602001600073ffffffffffffffffffffffffffffffffffffffff168152602001600081526020016060815260200160006003811115610acf57610ace610c22565b5b81525090565b600080fd5b600080fd5b6000819050919050565b610af281610adf565b8114610afd57600080fd5b50565b600081359050610b0f81610ae9565b92915050565b600060208284031215610b2b57610b2a610ad5565b5b6000610b3984828501610b00565b91505092915050565b600073ffffffffffffffffffffffffffffffffffffffff82169050919050565b6000610b6d82610b42565b9050919050565b610b7d81610b62565b82525050565b610b8c81610adf565b82525050565b600081519050919050565b600082825260208201905092915050565b60005b83811015610bcc578082015181840152602081019050610bb1565b60008484015250505050565b6000601f19601f8301169050919050565b6000610bf482610b92565b610bfe8185610b9d565b9350610c0e818560208601610bae565b610c1781610bd8565b840191505092915050565b7f4e487b7100000000000000000000000000000000000000000000000000000000600052602160045260246000fd5b60048110610c6257610c61610c22565b5b50565b6000819050610c7382610c51565b919050565b6000610c8382610c65565b9050919050565b610c9381610c78565b82525050565b600060a082019050610cae6000830188610b74565b610cbb6020830187610b74565b610cc86040830186610b83565b8181036060830152610cda8185610be9565b9050610ce96080830184610c8a565b9695505050505050565b6000602082019050610d086000830184610b83565b92915050565b610d1781610b62565b82525050565b610d2681610adf565b82525050565b600082825260208201905092915050565b6000610d4882610b92565b610d528185610d2c565b9350610d62818560208601610bae565b610d6b81610bd8565b840191505092915050565b610d7f81610c78565b82525050565b600060a083016000830151610d9d6000860182610d0e565b506020830151610db06020860182610d0e565b506040830151610dc36040860182610d1d565b5060608301518482036060860152610ddb8282610d3d565b9150506080830151610df06080860182610d76565b508091505092915050565b60006020820190508181036000830152610e158184610d85565b905092915050565b600080fd5b600080fd5b600080fd5b60008083601f840112610e4257610e41610e1d565b5b8235905067ffffffffffffffff811115610e5f57610e5e610e22565b5b602083019150836001820283011115610e7b57610e7a610e27565b5b9250929050565b60008060208385031215610e9957610e98610ad5565b5b600083013567ffffffffffffffff811115610eb757610eb6610ada565b5b610ec385828601610e2c565b92509250509250929050565b60008115159050919050565b610ee481610ecf565b8114610eef57600080fd5b50565b600081359050610f0181610edb565b92915050565b60008060408385031215610f1e57610f1d610ad5565b5b6000610f2c85828601610b00565b9250506020610f3d85828601610ef2565b9150509250929050565b7f4e487b7100000000000000000000000000000000000000000000000000000000600052602260045260246000fd5b60006002820490506001821680610f8e57607f821691505b602082108103610fa157610fa0610f47565b5b50919050565b7f4465616c206e6f74206f70656e00000000000000000000000000000000000000600082015250565b6000610fdd600d83610b9d565b9150610fe882610fa7565b602082019050919050565b6000602082019050818103600083015261100c81610fd0565b9050919050565b7f42757965722063616e6e6f742062652073656c6c657200000000000000000000600082015250565b6000611049601683610b9d565b915061105482611013565b602082019050919050565b600060208201905081810360008301526110788161103c565b9050919050565b60006020820190506110946000830184610b74565b92915050565b7f4d757374206c6f636b2066756e64730000000000000000000000000000000000600082015250565b60006110d0600f83610b9d565b91506110db8261109a565b602082019050919050565b600060208201905081810360008301526110ff816110c3565b9050919050565b7f4e487b7100000000000000000000000000000000000000000000000000000000600052601160045260246000fd5b600061114082610adf565b91507fffffffffffffffffffffffffffffffffffffffffffffffffffffffffffffffff820361117257611171611106565b5b600182019050919050565b7f4e487b7100000000000000000000000000000000000000000000000000000000600052604160045260246000fd5b60008190508160005260206000209050919050565b60006020601f8301049050919050565b600082821b905092915050565b60006008830261120e7fffffffffffffffffffffffffffffffffffffffffffffffffffffffffffffffff826111d1565b61121886836111d1565b95508019841693508086168417925050509392505050565b6000819050919050565b600061125561125061124b84610adf565b611230565b610adf565b9050919050565b6000819050919050565b61126f8361123a565b61128361127b8261125c565b8484546111de565b825550505050565b600090565b61129861128b565b6112a3818484611266565b505050565b5b818110156112c7576112bc600082611290565b6001810190506112a9565b5050565b601f82111561130c576112dd816111ac565b6112e6846111c1565b810160208510156112f5578190505b611309611301856111c1565b8301826112a8565b50505b505050565b600082821c905092915050565b600061132f60001984600802611311565b1980831691505092915050565b6000611348838361131e565b9150826002028217905092915050565b61136182610b92565b67ffffffffffffffff81111561137a5761137961117d565b5b6113848254610f76565b61138f8282856112cb565b600060209050601f8311600181146113c257600084156113b0578287015190505b6113ba858261133c565b865550611422565b601f1984166113d0866111ac565b60005b828110156113f8578489015182556001820191506020850194506020810190506113d3565b868310156114155784890151611411601f89168261131e565b8355505b6001600288020188555050505b505050505050565b82818337600083830152505050565b60006114458385610b9d565b935061145283858461142a565b61145b83610bd8565b840190509392505050565b600060608201905061147b6000830187610b74565b818103602083015261148e818587611439565b905061149d6040830184610b83565b95945050505050565b7f4465616c206e6f74206163636570746564000000000000000000000000000000600082015250565b60006114dc601183610b9d565b91506114e7826114a6565b602082019050919050565b6000602082019050818103600083015261150b816114cf565b9050919050565b61151b81610ecf565b82525050565b60006020820190506115366000830184611512565b9291505056fea264697066735822122072f57a0113050bd4a47af3721a486a4534e30b8c9dfa384819d7484fb70bad0364736f6c63430008140033",
  "linkReferences": {},
  "deployedLinkReferences": {}
}