{"contracts/src/ShadowOTC.sol":{"ShadowOTCV2":{"abi":[{"inputs":[{"internalType":"address","name":"_platformWallet","type":"address"},{"internalType":"uint256","name":"_feePercent","type":"uint256"}],"stateMutability":"nonpayable","type":"constructor"},{"anonymous":false,"inputs":[{"indexed":true,"internalType":"uint256","name":"dealId","type":"uint256"},{"indexed":true,"internalType":"address","name":"seller","type":"address"},{"indexed":false,"internalType":"uint256","name":"amount","type":"uint256"}],"name":"CollateralDeposited","type":"event"},{"anonymous":false,"inputs":[{"indexed":true,"internalType":"uint256","name":"dealId","type":"uint256"},{"indexed":true,"internalType":"address","name":"seller","type":"address"},{"indexed":false,"internalType":"uint256","name":"amount","type":"uint256"}],"name":"CommitFeeReleased","type":"event"},{"anonymous":false,"inputs":[{"indexed":true,"internalType":"uint256","name":"dealId","type":"uint256"},{"indexed":true,"internalType":"address","name":"seller","type":"address"},{"indexed":false,"internalType":"uint256","name":"collateral","type":"uint256"}],"name":"DealAccepted","type":"event"},{"anonymous":false,"inputs":[{"indexed":true,"internalType":"uint256","name":"dealId","type":"uint256"}],"name":"DealCancelled","type":"event"},{"anonymous":false,"inputs":[{"indexed":true,"internalType":"uint256","name":"dealId","type":"uint256"},{"indexed":false,"internalType":"uint256","name":"sellerPayout","type":"uint256"},{"indexed":false,"internalType":"uint256","name":"platformFee","type":"uint256"}],"name":"DealCompleted","type":"event"},{"anonymous":false,"inputs":[{"indexed":true,"internalType":"uint256","name":"dealId","type":"uint256"},{"indexed":true,"internalType":"address","name":"buyer","type":"address"},{"indexed":false,"internalType":"enum ShadowOTCV2.DealCategory","name":"category","type":"uint8"},{"indexed":false,"internalType":"uint256","name":"amount","type":"uint256"},{"indexed":false,"internalType":"uint256","name":"deadline","type":"uint256"}],"name":"DealCreated","type":"event"},{"anonymous":false,"inputs":[{"indexed":true,"internalType":"uint256","name":"dealId","type":"uint256"}],"name":"DealExpired","type":"event"},{"anonymous":false,"inputs":[{"indexed":true,"internalType":"uint256","name":"dealId","type":"uint256"},{"indexed":false,"internalType":"string","name":"reason","type":"string"}],"name":"DealFailed","type":"event"},{"anonymous":false,"inputs":[{"indexed":true,"internalType":"uint256","name":"dealId","type":"uint256"},{"indexed":true,"internalType":"address","name":"seller","type":"address"},{"indexed":false,"internalType":"string","name":"proofUrl","type":"string"}],"name":"DeliverySubmitted","type":"event"},{"anonymous":false,"inputs":[{"indexed":true,"internalType":"uint256","name":"dealId","type":"uint256"},{"indexed":true,"internalType":"address","name":"by","type":"address"},{"indexed":false,"internalType":"string","name":"reason","type":"string"}],"name":"DisputeRaised","type":"event"},{"anonymous":false,"inputs":[{"indexed":true,"internalType":"uint256","name":"dealId","type":"uint256"},{"indexed":false,"internalType":"bool","name":"buyerWon","type":"bool"}],"name":"DisputeResolved","type":"event"},{"anonymous":false,"inputs":[{"indexed":true,"internalType":"uint256","name":"templateId","type":"uint256"},{"indexed":false,"internalType":"string","name":"name","type":"string"},{"indexed":false,"internalType":"enum ShadowOTCV2.DealCategory","name":"category","type":"uint8"}],"name":"TemplateAdded","type":"event"},{"anonymous":false,"inputs":[{"indexed":true,"internalType":"uint256","name":"dealId","type":"uint256"},{"indexed":true,"internalType":"address","name":"verifier","type":"address"}],"name":"VerifierAssigned","type":"event"},{"inputs":[],"name":"MAX_COMMIT_FEE_PERCENT","outputs":[{"internalType":"uint256","name":"","type":"uint256"}],"stateMutability":"view","type":"function"},{"inputs":[],"name":"MAX_DEADLINE_DAYS","outputs":[{"internalType":"uint256","name":"","type":"uint256"}],"stateMutability":"view","type":"function"},{"inputs":[],"name":"MIN_COMMIT_FEE_PERCENT","outputs":[{"internalType":"uint256","name":"","type":"uint256"}],"stateMutability":"view","type":"function"},{"inputs":[{"internalType":"uint256","name":"dealId","type":"uint256"}],"name":"acceptDeal","outputs":[],"stateMutability":"payable","type":"function"},{"inputs":[{"internalType":"address","name":"verifier","type":"address"}],"name":"addAuthorizedVerifier","outputs":[],"stateMutability":"nonpayable","type":"function"},{"inputs":[{"internalType":"enum ShadowOTCV2.DealCategory","name":"category","type":"uint8"},{"internalType":"string","name":"name","type":"string"},{"internalType":"string","name":"description","type":"string"},{"internalType":"uint256","name":"minBudget","type":"uint256"},{"internalType":"uint256","name":"defaultDeadlineHours","type":"uint256"},{"internalType":"enum ShadowOTCV2.CollateralRequirement","name":"defaultCollateral","type":"uint8"},{"internalType":"enum ShadowOTCV2.VerificationMethod","name":"verificationMethod","type":"uint8"}],"name":"addTemplate","outputs":[],"stateMutability":"nonpayable","type":"function"},{"inputs":[{"internalType":"uint256","name":"dealId","type":"uint256"},{"internalType":"address","name":"verifier","type":"address"}],"name":"assignVerifier","outputs":[],"stateMutability":"nonpayable","type":"function"},{"inputs":[{"internalType":"address","name":"","type":"address"}],"name":"authorizedVerifiers","outputs":[{"internalType":"bool","name":"","type":"bool"}],"stateMutability":"view","type":"function"},{"inputs":[{"internalType":"address","name":"","type":"address"},{"internalType":"uint256","name":"","type":"uint256"}],"name":"buyerDeals","outputs":[{"internalType":"uint256","name":"","type":"uint256"}],"stateMutability":"view","type":"function"},{"inputs":[{"internalType":"uint256","name":"dealId","type":"uint256"}],"name":"cancelDeal","outputs":[],"stateMutability":"nonpayable","type":"function"},{"inputs":[{"internalType":"uint256","name":"dealId","type":"uint256"}],"name":"checkExpiry","outputs":[],"stateMutability":"nonpayable","type":"function"},{"inputs":[{"internalType":"enum ShadowOTCV2.DealCategory","name":"category","type":"uint8"},{"internalType":"string","name":"intent","type":"string"},{"internalType":"string","name":"conditionUrl","type":"string"},{"internalType":"string","name":"conditionParams","type":"string"},{"internalType":"uint256","name":"deadlineHours","type":"uint256"},{"internalType":"uint256","name":"commitFeePercent","type":"uint256"},{"internalType":"enum ShadowOTCV2.CollateralRequirement","name":"collateral","type":"uint8"},{"internalType":"enum ShadowOTCV2.VerificationMethod","name":"verificationMethod","type":"uint8"}],"name":"createDeal","outputs":[{"internalType":"uint256","name":"","type":"uint256"}],"stateMutability":"payable","type":"function"},{"inputs":[],"name":"dealCounter","outputs":[{"internalType":"uint256","name":"","type":"uint256"}],"stateMutability":"view","type":"function"},{"inputs":[{"internalType":"uint256","name":"","type":"uint256"}],"name":"deals","outputs":[{"internalType":"address","name":"buyer","type":"address"},{"internalType":"address","name":"seller","type":"address"},{"internalType":"address","name":"verifier","type":"address"},{"internalType":"enum ShadowOTCV2.DealCategory","name":"category","type":"uint8"},{"internalType":"enum ShadowOTCV2.DealStatus","name":"status","type":"uint8"},{"internalType":"enum ShadowOTCV2.VerificationMethod","name":"verificationMethod","type":"uint8"},{"internalType":"enum ShadowOTCV2.CollateralRequirement","name":"collateralRequirement","type":"uint8"},{"internalType":"uint256","name":"paymentAmount","type":"uint256"},{"internalType":"uint256","name":"collateralAmount","type":"uint256"},{"internalType":"uint256","name":"commitmentFee","type":"uint256"},{"internalType":"uint256","name":"remainingPayment","type":"uint256"},{"internalType":"uint256","name":"createdAt","type":"uint256"},{"internalType":"uint256","name":"acceptedAt","type":"uint256"},{"internalType":"uint256","name":"deadline","type":"uint256"},{"internalType":"uint256","name":"deliveryClaimedAt","type":"uint256"},{"internalType":"string","name":"intent","type":"string"},{"internalType":"string","name":"conditionUrl","type":"string"},{"internalType":"string","name":"conditionParams","type":"string"},{"internalType":"string","name":"deliveryProof","type":"string"},{"internalType":"bool","name":"requiresCollateral","type":"bool"},{"internalType":"bool","name":"partialPaymentEnabled","type":"bool"},{"internalType":"bool","name":"autoRefundOnExpiry","type":"bool"},{"internalType":"bool","name":"disputed","type":"bool"}],"stateMutability":"view","type":"function"},{"inputs":[{"internalType":"uint256","name":"","type":"uint256"}],"name":"disputes","outputs":[{"internalType":"uint256","name":"dealId","type":"uint256"},{"internalType":"address","name":"raisedBy","type":"address"},{"internalType":"string","name":"reason","type":"string"},{"internalType":"uint256","name":"raisedAt","type":"uint256"},{"internalType":"bool","name":"resolved","type":"bool"},{"internalType":"bool","name":"buyerWon","type":"bool"}],"stateMutability":"view","type":"function"},{"inputs":[{"internalType":"uint256","name":"dealId","type":"uint256"},{"internalType":"bool","name":"success","type":"bool"},{"internalType":"string","name":"reason","type":"string"}],"name":"executeDeal","outputs":[],"stateMutability":"nonpayable","type":"function"},{"inputs":[],"name":"getAllTemplates","outputs":[{"components":[{"internalType":"enum ShadowOTCV2.DealCategory","name":"category","type":"uint8"},{"internalType":"string","name":"name","type":"string"},{"internalType":"string","name":"description","type":"string"},{"internalType":"uint256","name":"minBudget","type":"uint256"},{"internalType":"uint256","name":"defaultDeadlineHours","type":"uint256"},{"internalType":"enum ShadowOTCV2.CollateralRequirement","name":"defaultCollateral","type":"uint8"},{"internalType":"enum ShadowOTCV2.VerificationMethod","name":"verificationMethod","type":"uint8"},{"internalType":"bool","name":"active","type":"bool"}],"internalType":"struct ShadowOTCV2.DealTemplate[]","name":"","type":"tuple[]"}],"stateMutability":"view","type":"function"},{"inputs":[{"internalType":"address","name":"buyer","type":"address"}],"name":"getBuyerDeals","outputs":[{"internalType":"uint256[]","name":"","type":"uint256[]"}],"stateMutability":"view","type":"function"},{"inputs":[{"internalType":"uint256","name":"dealId","type":"uint256"}],"name":"getDeal","outputs":[{"components":[{"internalType":"address","name":"buyer","type":"address"},{"internalType":"address","name":"seller","type":"address"},{"internalType":"address","name":"verifier","type":"address"},{"internalType":"enum ShadowOTCV2.DealCategory","name":"category","type":"uint8"},{"internalType":"enum ShadowOTCV2.DealStatus","name":"status","type":"uint8"},{"internalType":"enum ShadowOTCV2.VerificationMethod","name":"verificationMethod","type":"uint8"},{"internalType":"enum ShadowOTCV2.CollateralRequirement","name":"collateralRequirement","type":"uint8"},{"internalType":"uint256","name":"paymentAmount","type":"uint256"},{"internalType":"uint256","name":"collateralAmount","type":"uint256"},{"internalType":"uint256","name":"commitmentFee","type":"uint256"},{"internalType":"uint256","name":"remainingPayment","type":"uint256"},{"internalType":"uint256","name":"createdAt","type":"uint256"},{"internalType":"uint256","name":"acceptedAt","type":"uint256"},{"internalType":"uint256","name":"deadline","type":"uint256"},{"internalType":"uint256","name":"deliveryClaimedAt","type":"uint256"},{"internalType":"string","name":"intent","type":"string"},{"internalType":"string","name":"conditionUrl","type":"string"},{"internalType":"string","name":"conditionParams","type":"string"},{"internalType":"string","name":"deliveryProof","type":"string"},{"internalType":"bool","name":"requiresCollateral","type":"bool"},{"internalType":"bool","name":"partialPaymentEnabled","type":"bool"},{"internalType":"bool","name":"autoRefundOnExpiry","type":"bool"},{"internalType":"bool","name":"disputed","type":"bool"}],"internalType":"struct ShadowOTCV2.Deal","name":"","type":"tuple"}],"stateMutability":"view","type":"function"},{"inputs":[{"internalType":"uint256","name":"dealId","type":"uint256"}],"name":"getDispute","outputs":[{"components":[{"internalType":"uint256","name":"dealId","type":"uint256"},{"internalType":"address","name":"raisedBy","type":"address"},{"internalType":"string","name":"reason","type":"string"},{"internalType":"uint256","name":"raisedAt","type":"uint256"},{"internalType":"bool","name":"resolved","type":"bool"},{"internalType":"bool","name":"buyerWon","type":"bool"}],"internalType":"struct ShadowOTCV2.DisputeRecord","name":"","type":"tuple"}],"stateMutability":"view","type":"function"},{"inputs":[{"internalType":"uint256","name":"dealId","type":"uint256"}],"name":"getRequiredCollateral","outputs":[{"internalType":"uint256","name":"","type":"uint256"}],"stateMutability":"view","type":"function"},{"inputs":[{"internalType":"address","name":"seller","type":"address"}],"name":"getSellerDeals","outputs":[{"internalType":"uint256[]","name":"","type":"uint256[]"}],"stateMutability":"view","type":"function"},{"inputs":[{"internalType":"uint256","name":"templateId","type":"uint256"}],"name":"getTemplate","outputs":[{"components":[{"internalType":"enum ShadowOTCV2.DealCategory","name":"category","type":"uint8"},{"internalType":"string","name":"name","type":"string"},{"internalType":"string","name":"description","type":"string"},{"internalType":"uint256","name":"minBudget","type":"uint256"},{"internalType":"uint256","name":"defaultDeadlineHours","type":"uint256"},{"internalType":"enum ShadowOTCV2.CollateralRequirement","name":"defaultCollateral","type":"uint8"},{"internalType":"enum ShadowOTCV2.VerificationMethod","name":"verificationMethod","type":"uint8"},{"internalType":"bool","name":"active","type":"bool"}],"internalType":"struct ShadowOTCV2.DealTemplate","name":"","type":"tuple"}],"stateMutability":"view","type":"function"},{"inputs":[{"internalType":"uint256","name":"dealId","type":"uint256"}],"name":"isExpired","outputs":[{"internalType":"bool","name":"","type":"bool"}],"stateMutability":"view","type":"function"},{"inputs":[],"name":"owner","outputs":[{"internalType":"address","name":"","type":"address"}],"stateMutability":"view","type":"function"},{"inputs":[],"name":"platformFeePercent","outputs":[{"internalType":"uint256","name":"","type":"uint256"}],"stateMutability":"view","type":"function"},{"inputs":[],"name":"platformWallet","outputs":[{"internalType":"address","name":"","type":"address"}],"stateMutability":"view","type":"function"},{"inputs":[{"internalType":"uint256","name":"dealId","type":"uint256"},{"internalType":"string","name":"reason","type":"string"}],"name":"raiseDispute","outputs":[],"stateMutability":"nonpayable","type":"function"},{"inputs":[{"internalType":"address","name":"verifier","type":"address"}],"name":"removeVerifier","outputs":[],"stateMutability":"nonpayable","type":"function"},{"inputs":[{"internalType":"uint256","name":"dealId","type":"uint256"},{"internalType":"bool","name":"buyerWins","type":"bool"}],"name":"resolveDispute","outputs":[],"stateMutability":"nonpayable","type":"function"},{"inputs":[{"internalType":"address","name":"","type":"address"},{"internalType":"uint256","name":"","type":"uint256"}],"name":"sellerDeals","outputs":[{"internalType":"uint256","name":"","type":"uint256"}],"stateMutability":"view","type":"function"},{"inputs":[{"internalType":"uint256","name":"dealId","type":"uint256"},{"internalType":"string","name":"proofUrl","type":"string"}],"name":"submitDelivery","outputs":[],"stateMutability":"nonpayable","type":"function"},{"inputs":[],"name":"templateCounter","outputs":[{"internalType":"uint256","name":"","type":"uint256"}],"stateMutability":"view","type":"function"},{"inputs":[{"internalType":"uint256","name":"","type":"uint256"}],"name":"templates","outputs":[{"internalType":"enum ShadowOTCV2.DealCategory","name":"category","type":"uint8"},{"internalType":"string","name":"name","type":"string"},{"internalType":"string","name":"description","type":"string"},{"internalType":"uint256","name":"minBudget","type":"uint256"},{"internalType":"uint256","name":"defaultDeadlineHours","type":"uint256"},{"internalType":"enum ShadowOTCV2.CollateralRequirement","name":"defaultCollateral","type":"uint8"},{"internalType":"enum ShadowOTCV2.VerificationMethod","name":"verificationMethod","type":"uint8"},{"internalType":"bool","name":"active","type":"bool"}],"stateMutability":"view","type":"function"},{"inputs":[{"internalType":"uint256","name":"newFee","type":"uint256"}],"name":"updatePlatformFee","outputs":[],"stateMutability":"nonpayable","type":"function"},{"inputs":[{"internalType":"address","name":"newWallet","type":"address"}],"name":"updatePlatformWallet","outputs":[],"stateMutability":"nonpayable","type":"function"},{"stateMutability":"payable","type":"receive"}],"evm":{"bytecode":{"linkReferences":{},"object":"6080346200314e57601f6200671f38819003918201601f19168301916001600160401b0383118484101762001dad5780849260409485528339810103126200314e5780516001600160a01b03811691908290036200314e57602001519060018060a01b03193381600254161760025560035416176003556004556200008362003153565b600081526200009162003174565b601781527f536f6369616c204d6564696120456e676167656d656e7400000000000000000060208201526020820152620000ca62003194565b603f81527f476574206c696b65732c20666f6c6c6f776572732c2076696577732c206f722060208201527f636f6d6d656e7473206f6e206120736f6369616c206d6564696120706f737400604082015260408201526611c37937e08000606082015260486080820152600160a0820152600060c0820152600160e08201526001546200015681620031bf565b600155600052600660205260406000208151600c81101562001e9d5760ff80198354169116178155602082015191825160018060401b03811162001dad576001830154600181811c9116801562003143575b602082101462001d8c57601f8111620030f7575b506020601f821160011462003084578192939460009262003078575b50508160011b916000199060031b1c19161760018301555b60408101518051906001600160401b03821162001dad576002840154600181811c911680156200306d575b602082101462001d8c57601f811162003021575b50602090601f831160011462002fa95760059392916000918362002f9d575b50508160011b916000199060031b1c19161760028401555b606081015160038401556080810151600484015560a0810151906200028b82620031b4565b6200029682620031b4565b61ff008385015460ff62ff000060e060c086015195620002b687620031b4565b620002c187620031b4565b0151151560101b1694169062ffffff1916179160081b161717910155620002e762003153565b60018152620002f562003174565b601081526f21b7b73a32b73a1021b932b0ba34b7b760811b602082015260208201526200032162003194565b603f81527f43726561746520616e64207075626c69736820636f6e74656e7420737563682060208201527f61732061727469636c65732c20766964656f732c206f7220746872656164730060408201526040820152662386f26fc10000606082015260a86080820152600160a0820152600060c0820152600160e0820152600154620003ad81620031bf565b60015560005260066020526040600020908051600c81101562001e9d5760ff80198454169116178255602081015191825160018060401b03811162001dad576001820154600181811c9116801562002f92575b602082101462001d8c57601f811162002f46575b506020601f821160011462002ed3578192939460009262002ec7575b50508160011b916000199060031b1c19161760018201555b60408201518051906001600160401b03821162001dad576002830154600181811c9116801562002ebc575b602082101462001d8c57601f811162002e70575b50602090601f831160011462002df85760059392916000918362002dec575b50508160011b916000199060031b1c19161760028201555b6060830151600382015560808301516004820155019060a081015190620004e582620031b4565b620004f082620031b4565b61ff00835460ff62ff000060e060c0860151956200050e87620031b4565b6200051987620031b4565b0151151560101b1694169062ffffff1916179160081b16171790556200053e62003153565b600281526200054c62003174565b6011815270467265656c616e6365205365727669636560781b602082015260208201526200057962003194565b603881527f446576656c6f706d656e742c2064657369676e2c2077726974696e672c206f7260208201527f20616e79206469676974616c2064656c6976657261626c65000000000000000060408201526040820152662386f26fc1000060608201526101506080820152600260a0820152600060c0820152600160e08201526001546200060681620031bf565b60015560005260066020526040600020908051600c81101562001e9d5760ff80198454169116178255602081015191825160018060401b03811162001dad576001820154600181811c9116801562002de1575b602082101462001d8c57601f811162002d95575b506020601f821160011462002d22578192939460009262002d16575b50508160011b916000199060031b1c19161760018201555b60408201518051906001600160401b03821162001dad576002830154600181811c9116801562002d0b575b602082101462001d8c57601f811162002cbf575b50602090601f831160011462002c475760059392916000918362002c3b575b50508160011b916000199060031b1c19161760028201555b6060830151600382015560808301516004820155019060a0810151906200073e82620031b4565b6200074982620031b4565b61ff00835460ff62ff000060e060c0860151956200076787620031b4565b6200077287620031b4565b0151151560101b1694169062ffffff1916179160081b16171790556200079762003153565b60038152620007a562003174565b600c81526b4e4654204f54432053616c6560a01b60208201526020820152620007cd62003194565b603981527f50726976617465204f54432073616c65206f6620616e204e4654206f7574736960208201527f6465206f66207075626c6963206d61726b6574706c61636573000000000000006040820152604082015266b1a2bc2ec50000606082015260306080820152600260a0820152600160c0820152600160e08201526001546200085981620031bf565b60015560005260066020526040600020908051600c81101562001e9d5760ff80198454169116178255602081015191825160018060401b03811162001dad576001820154600181811c9116801562002c30575b602082101462001d8c57601f811162002be4575b506020601f821160011462002b71578192939460009262002b65575b50508160011b916000199060031b1c19161760018201555b60408201518051906001600160401b03821162001dad576002830154600181811c9116801562002b5a575b602082101462001d8c57601f811162002b0e575b50602090601f831160011462002a965760059392916000918362002a8a575b50508160011b916000199060031b1c19161760028201555b6060830151600382015560808301516004820155019060a0810151906200099182620031b4565b6200099c82620031b4565b61ff00835460ff62ff000060e060c086015195620009ba87620031b4565b620009c587620031b4565b0151151560101b1694169062ffffff1916179160081b1617179055620009ea62003153565b60048152620009f862003174565b60128152711391950815da1a5d195b1a5cdd0814dc1bdd60721b6020820152602082015262000a2662003194565b603981527f5472616e73666572206f66204e4654206d696e742077686974656c697374206f60208201527f7220616c6c6f776c6973742073706f7420746f206275796572000000000000006040820152604082015266470de4df82000060608201526102d06080820152600260a0820152600360c0820152600160e082015260015462000ab381620031bf565b60015560005260066020526040600020908051600c81101562001e9d5760ff80198454169116178255602081015191825160018060401b03811162001dad576001820154600181811c9116801562002a7f575b602082101462001d8c57601f811162002a33575b506020601f8211600114620029c05781929394600092620029b4575b50508160011b916000199060031b1c19161760018201555b60408201518051906001600160401b03821162001dad576002830154600181811c91168015620029a9575b602082101462001d8c57601f81116200295d575b50602090601f8311600114620028e557600593929160009183620028d9575b50508160011b916000199060031b1c19161760028201555b6060830151600382015560808301516004820155019060a08101519062000beb82620031b4565b62000bf682620031b4565b61ff00835460ff62ff000060e060c08601519562000c1487620031b4565b62000c1f87620031b4565b0151151560101b1694169062ffffff1916179160081b161717905562000c4462003153565b6005815262000c5262003174565b601281527120b4b9323937b81020b63637b1b0ba34b7b760711b6020820152602082015262000c8062003194565b603881527f5472616e73666572206f6620636f6e6669726d65642061697264726f7020616c60208201527f6c6f636174696f6e20746f2062757965722077616c6c6574000000000000000060408201526040820152662386f26fc10000606082015260a86080820152600260a0820152600360c0820152600160e082015260015462000d0c81620031bf565b60015560005260066020526040600020908051600c81101562001e9d5760ff80198454169116178255602081015191825160018060401b03811162001dad576001820154600181811c91168015620028ce575b602082101462001d8c57601f811162002882575b506020601f82116001146200280f578192939460009262002803575b50508160011b916000199060031b1c19161760018201555b60408201518051906001600160401b03821162001dad576002830154600181811c91168015620027f8575b602082101462001d8c57601f8111620027ac575b50602090601f8311600114620027345760059392916000918362002728575b50508160011b916000199060031b1c19161760028201555b6060830151600382015560808301516004820155019060a08101519062000e4482620031b4565b62000e4f82620031b4565b61ff00835460ff62ff000060e060c08601519562000e6d87620031b4565b62000e7887620031b4565b0151151560101b1694169062ffffff1916179160081b161717905562000e9d62003153565b6006815262000eab62003174565b601481527f546f6b656e20416c6c6f636174696f6e204f54430000000000000000000000006020820152602082015262000ee462003194565b603881527f5072697661746520726f756e64206f72204b4f4c20616c6c6f636174696f6e2060208201527f736f6c64206174206e65676f74696174656420707269636500000000000000006040820152604082015267016345785d8a000060608201526102d06080820152600360a0820152600160c0820152600160e082015260015462000f7281620031bf565b60015560005260066020526040600020908051600c81101562001e9d5760ff80198454169116178255602081015191825160018060401b03811162001dad576001820154600181811c911680156200271d575b602082101462001d8c57601f8111620026d1575b506020601f82116001146200265e578192939460009262002652575b50508160011b916000199060031b1c19161760018201555b60408201518051906001600160401b03821162001dad576002830154600181811c9116801562002647575b602082101462001d8c57601f8111620025fb575b50602090601f8311600114620025835760059392916000918362002577575b50508160011b916000199060031b1c19161760028201555b6060830151600382015560808301516004820155019060a081015190620010aa82620031b4565b620010b582620031b4565b61ff00835460ff62ff000060e060c086015195620010d387620031b4565b620010de87620031b4565b0151151560101b1694169062ffffff1916179160081b16171790556200110362003153565b600781526200111162003174565b601581527f5072652d4d61726b657420546f6b656e204465616c0000000000000000000000602082015260208201526200114a62003194565b603881527f42757920746f6b656e73206174207072652d544745207072696365207769746860208201527f2064656c6976657279206f6e206c61756e6368206461746500000000000000006040820152604082015266b1a2bc2ec5000060608201526108706080820152600360a0820152600160c0820152600160e0820152600154620011d781620031bf565b60015560005260066020526040600020908051600c81101562001e9d5760ff80198454169116178255602081015191825160018060401b03811162001dad576001820154600181811c911680156200256c575b602082101462001d8c57601f811162002520575b506020601f8211600114620024ad5781929394600092620024a1575b50508160011b916000199060031b1c19161760018201555b60408201518051906001600160401b03821162001dad576002830154600181811c9116801562002496575b602082101462001d8c57601f81116200244a575b50602090601f8311600114620023d257600593929160009183620023c6575b50508160011b916000199060031b1c19161760028201555b6060830151600382015560808301516004820155019060a0810151906200130f82620031b4565b6200131a82620031b4565b61ff00835460ff62ff000060e060c0860151956200133887620031b4565b6200134387620031b4565b0151151560101b1694169062ffffff1916179160081b16171790556200136862003153565b600881526200137662003174565b601781527f4d61726b6574696e6720616e642050726f6d6f74696f6e00000000000000000060208201526020820152620013af62003194565b603a81527f4261636b6c696e6b732c206e6577736c65747465722066656174757265732c2060208201527f706f6463617374206d656e74696f6e732c206c697374696e677300000000000060408201526040820152662386f26fc10000606082015260a86080820152600160a0820152600060c0820152600160e08201526001546200143b81620031bf565b60015560005260066020526040600020908051600c81101562001e9d5760ff80198454169116178255602081015191825160018060401b03811162001dad576001820154600181811c91168015620023bb575b602082101462001d8c57601f81116200236f575b506020601f8211600114620022fc5781929394600092620022f0575b50508160011b916000199060031b1c19161760018201555b60408201518051906001600160401b03821162001dad576002830154600181811c91168015620022e5575b602082101462001d8c57601f811162002299575b50602090601f8311600114620022215760059392916000918362002215575b50508160011b916000199060031b1c19161760028201555b6060830151600382015560808301516004820155019060a0810151906200157382620031b4565b6200157e82620031b4565b61ff00835460ff62ff000060e060c0860151956200159c87620031b4565b620015a787620031b4565b0151151560101b1694169062ffffff1916179160081b1617179055620015cc62003153565b60098152620015da62003174565b600a81526942756720426f756e747960b01b602082015260208201526200160062003194565b603281527f5265706f727420616e64207665726966792062756773206f722073656375726960208201527174792076756c6e65726162696c697469657360701b6040820152604082015266470de4df820000606082015260486080820152600060a0820152600060c0820152600160e08201526001546200168181620031bf565b60015560005260066020526040600020908051600c81101562001e9d5760ff80198454169116178255602081015191825160018060401b03811162001dad576001820154600181811c911680156200220a575b602082101462001d8c57601f8111620021be575b506020601f82116001146200214b57819293946000926200213f575b50508160011b916000199060031b1c19161760018201555b60408201518051906001600160401b03821162001dad576002830154600181811c9116801562002134575b602082101462001d8c57601f8111620020e8575b50602090601f8311600114620020705760059392916000918362002064575b50508160011b916000199060031b1c19161760028201555b6060830151600382015560808301516004820155019060a081015190620017b982620031b4565b620017c482620031b4565b61ff00835460ff62ff000060e060c086015195620017e287620031b4565b620017ed87620031b4565b0151151560101b1694169062ffffff1916179160081b16171790556200181262003153565b600a81526200182062003174565b600e81526d47656e6572696320457363726f7760901b602082015260208201526200184a62003194565b603181527f54776f2d706172747920657363726f7720666f7220616e79206167726565642060208201527065786368616e6765206f662076616c756560781b60408201526040820152662386f26fc10000606082015260a86080820152600060a0820152600260c0820152600160e0820152600154620018ca81620031bf565b60015560005260066020526040600020908051600c81101562001e9d5760ff80198454169116178255602081015191825160018060401b03811162001dad576001820154600181811c9116801562002059575b602082101462001d8c57601f81116200200d575b506020601f821160011462001f9a578192939460009262001f8e575b50508160011b916000199060031b1c19161760018201555b60408201518051906001600160401b03821162001dad576002830154600181811c9116801562001f83575b602082101462001d8c57601f811162001f37575b50602090601f831160011462001ebf5760059392916000918362001eb3575b50508160011b916000199060031b1c19161760028201555b6060830151600382015560808301516004820155019060a08101519062001a0282620031b4565b62001a0d82620031b4565b61ff00835460ff62ff000060e060c08601519562001a2b87620031b4565b62001a3687620031b4565b0151151560101b1694169062ffffff1916179160081b161717905562001a5b62003153565b600b815262001a6962003174565b601381527f436f6e646974696f6e616c205061796d656e74000000000000000000000000006020820152602082015262001aa262003194565b603881527f506179206f6e6c79206966206120737065636966696320636f6e646974696f6e60208201527f206f6e2074686520696e7465726e657420697320747275650000000000000000604082015260408201526611c37937e08000606082015260a86080820152600060a0820152600060c0820152600160e082015260015462001b2e81620031bf565b600155600052600660205260406000208151600c81101562001e9d5760ff80198354169116178155602082015191825160018060401b03811162001dad576001830154600181811c9116801562001e92575b602082101462001d8c57601f811162001e42575b506020601f821160011462001dcf578192939460009262001dc3575b50508160011b916000199060031b1c19161760018301555b6040810151805190929060028201906001600160401b03811162001dad578154600181811c9116801562001da2575b602082101462001d8c57601f811162001d3f575b506020601f821160011462001cd05781906005959660009262001cc4575b50508160011b916000199060031b1c19161790555b6060830151600382015560808301516004820155019060a08101519062001c6582620031b4565b62001c7082620031b4565b61ff00835460ff62ff000060e060c08601519562001c8e87620031b4565b62001c9987620031b4565b0151151560101b1694169062ffffff1916179160081b16171790556040516135399081620031e68239f35b01519050388062001c29565b601f198216958360005260206000209660005b81811062001d26575091600596979184600195941062001d0c575b505050811b01905562001c3e565b015160001960f88460031b161c1916905538808062001cfe565b8383015189556001909801976020938401930162001ce3565b826000526020600020601f830160051c8101916020841062001d81575b601f0160051c01905b81811062001d74575062001c0b565b6000815560010162001d65565b909150819062001d5c565b634e487b7160e01b600052602260045260246000fd5b90607f169062001bf7565b634e487b7160e01b600052604160045260246000fd5b01519050388062001bb0565b6001840160005260206000209060005b601f198416811062001e295750600193949583601f1981161062001e0f575b505050811b01600183015562001bc8565b015160001960f88460031b161c1916905538808062001dfe565b9091602060018192858a01518155019301910162001ddf565b600184016000526020600020601f830160051c8101916020841062001e87575b601f0160051c01905b81811062001e7a575062001b94565b6000815560010162001e6b565b909150819062001e62565b90607f169062001b80565b634e487b7160e01b600052602160045260246000fd5b015190503880620019c3565b906002840160005260206000209160005b601f198516811062001f1e575091839160019360059695601f1981161062001f04575b505050811b016002820155620019db565b015160001960f88460031b161c1916905538808062001ef3565b9192602060018192868501518155019401920162001ed0565b600284016000526020600020601f840160051c81016020851062001f7b575b601f830160051c8201811062001f6e575050620019a4565b6000815560010162001f56565b508062001f56565b90607f169062001990565b0151905038806200194d565b6001830160005260206000209060005b601f198416811062001ff45750600193949583601f1981161062001fda575b505050811b01600182015562001965565b015160001960f88460031b161c1916905538808062001fc9565b9091602060018192858a01518155019301910162001faa565b600183016000526020600020601f830160051c81016020841062002051575b601f830160051c820181106200204457505062001931565b600081556001016200202c565b50806200202c565b90607f16906200191d565b0151905038806200177a565b906002840160005260206000209160005b601f1985168110620020cf575091839160019360059695601f19811610620020b5575b505050811b01600282015562001792565b015160001960f88460031b161c19169055388080620020a4565b9192602060018192868501518155019401920162002081565b600284016000526020600020601f840160051c8101602085106200212c575b601f830160051c820181106200211f5750506200175b565b6000815560010162002107565b508062002107565b90607f169062001747565b01519050388062001704565b6001830160005260206000209060005b601f1984168110620021a55750600193949583601f198116106200218b575b505050811b0160018201556200171c565b015160001960f88460031b161c191690553880806200217a565b9091602060018192858a0151815501930191016200215b565b600183016000526020600020601f830160051c81016020841062002202575b601f830160051c82018110620021f5575050620016e8565b60008155600101620021dd565b5080620021dd565b90607f1690620016d4565b01519050388062001534565b906002840160005260206000209160005b601f198516811062002280575091839160019360059695601f1981161062002266575b505050811b0160028201556200154c565b015160001960f88460031b161c1916905538808062002255565b9192602060018192868501518155019401920162002232565b600284016000526020600020601f840160051c810160208510620022dd575b601f830160051c82018110620022d057505062001515565b60008155600101620022b8565b5080620022b8565b90607f169062001501565b015190503880620014be565b6001830160005260206000209060005b601f1984168110620023565750600193949583601f198116106200233c575b505050811b016001820155620014d6565b015160001960f88460031b161c191690553880806200232b565b9091602060018192858a0151815501930191016200230c565b600183016000526020600020601f830160051c810160208410620023b3575b601f830160051c82018110620023a6575050620014a2565b600081556001016200238e565b50806200238e565b90607f16906200148e565b015190503880620012d0565b906002840160005260206000209160005b601f198516811062002431575091839160019360059695601f1981161062002417575b505050811b016002820155620012e8565b015160001960f88460031b161c1916905538808062002406565b91926020600181928685015181550194019201620023e3565b600284016000526020600020601f840160051c8101602085106200248e575b601f830160051c8201811062002481575050620012b1565b6000815560010162002469565b508062002469565b90607f16906200129d565b0151905038806200125a565b6001830160005260206000209060005b601f1984168110620025075750600193949583601f19811610620024ed575b505050811b01600182015562001272565b015160001960f88460031b161c19169055388080620024dc565b9091602060018192858a015181550193019101620024bd565b600183016000526020600020601f830160051c81016020841062002564575b601f830160051c82018110620025575750506200123e565b600081556001016200253f565b50806200253f565b90607f16906200122a565b0151905038806200106b565b906002840160005260206000209160005b601f1985168110620025e2575091839160019360059695601f19811610620025c8575b505050811b01600282015562001083565b015160001960f88460031b161c19169055388080620025b7565b9192602060018192868501518155019401920162002594565b600284016000526020600020601f840160051c8101602085106200263f575b601f830160051c82018110620026325750506200104c565b600081556001016200261a565b50806200261a565b90607f169062001038565b01519050388062000ff5565b6001830160005260206000209060005b601f1984168110620026b85750600193949583601f198116106200269e575b505050811b0160018201556200100d565b015160001960f88460031b161c191690553880806200268d565b9091602060018192858a0151815501930191016200266e565b600183016000526020600020601f830160051c81016020841062002715575b601f830160051c820181106200270857505062000fd9565b60008155600101620026f0565b5080620026f0565b90607f169062000fc5565b01519050388062000e05565b906002840160005260206000209160005b601f198516811062002793575091839160019360059695601f1981161062002779575b505050811b01600282015562000e1d565b015160001960f88460031b161c1916905538808062002768565b9192602060018192868501518155019401920162002745565b600284016000526020600020601f840160051c810160208510620027f0575b601f830160051c82018110620027e357505062000de6565b60008155600101620027cb565b5080620027cb565b90607f169062000dd2565b01519050388062000d8f565b6001830160005260206000209060005b601f1984168110620028695750600193949583601f198116106200284f575b505050811b01600182015562000da7565b015160001960f88460031b161c191690553880806200283e565b9091602060018192858a0151815501930191016200281f565b600183016000526020600020601f830160051c810160208410620028c6575b601f830160051c82018110620028b957505062000d73565b60008155600101620028a1565b5080620028a1565b90607f169062000d5f565b01519050388062000bac565b906002840160005260206000209160005b601f198516811062002944575091839160019360059695601f198116106200292a575b505050811b01600282015562000bc4565b015160001960f88460031b161c1916905538808062002919565b91926020600181928685015181550194019201620028f6565b600284016000526020600020601f840160051c810160208510620029a1575b601f830160051c820181106200299457505062000b8d565b600081556001016200297c565b50806200297c565b90607f169062000b79565b01519050388062000b36565b6001830160005260206000209060005b601f198416811062002a1a5750600193949583601f1981161062002a00575b505050811b01600182015562000b4e565b015160001960f88460031b161c19169055388080620029ef565b9091602060018192858a015181550193019101620029d0565b600183016000526020600020601f830160051c81016020841062002a77575b601f830160051c8201811062002a6a57505062000b1a565b6000815560010162002a52565b508062002a52565b90607f169062000b06565b01519050388062000952565b906002840160005260206000209160005b601f198516811062002af5575091839160019360059695601f1981161062002adb575b505050811b0160028201556200096a565b015160001960f88460031b161c1916905538808062002aca565b9192602060018192868501518155019401920162002aa7565b600284016000526020600020601f840160051c81016020851062002b52575b601f830160051c8201811062002b4557505062000933565b6000815560010162002b2d565b508062002b2d565b90607f16906200091f565b015190503880620008dc565b6001830160005260206000209060005b601f198416811062002bcb5750600193949583601f1981161062002bb1575b505050811b016001820155620008f4565b015160001960f88460031b161c1916905538808062002ba0565b9091602060018192858a01518155019301910162002b81565b600183016000526020600020601f830160051c81016020841062002c28575b601f830160051c8201811062002c1b575050620008c0565b6000815560010162002c03565b508062002c03565b90607f1690620008ac565b015190503880620006ff565b906002840160005260206000209160005b601f198516811062002ca6575091839160019360059695601f1981161062002c8c575b505050811b01600282015562000717565b015160001960f88460031b161c1916905538808062002c7b565b9192602060018192868501518155019401920162002c58565b600284016000526020600020601f840160051c81016020851062002d03575b601f830160051c8201811062002cf6575050620006e0565b6000815560010162002cde565b508062002cde565b90607f1690620006cc565b01519050388062000689565b6001830160005260206000209060005b601f198416811062002d7c5750600193949583601f1981161062002d62575b505050811b016001820155620006a1565b015160001960f88460031b161c1916905538808062002d51565b9091602060018192858a01518155019301910162002d32565b600183016000526020600020601f830160051c81016020841062002dd9575b601f830160051c8201811062002dcc5750506200066d565b6000815560010162002db4565b508062002db4565b90607f169062000659565b015190503880620004a6565b906002840160005260206000209160005b601f198516811062002e57575091839160019360059695601f1981161062002e3d575b505050811b016002820155620004be565b015160001960f88460031b161c1916905538808062002e2c565b9192602060018192868501518155019401920162002e09565b600284016000526020600020601f840160051c81016020851062002eb4575b601f830160051c8201811062002ea757505062000487565b6000815560010162002e8f565b508062002e8f565b90607f169062000473565b01519050388062000430565b6001830160005260206000209060005b601f198416811062002f2d5750600193949583601f1981161062002f13575b505050811b01600182015562000448565b015160001960f88460031b161c1916905538808062002f02565b9091602060018192858a01518155019301910162002ee3565b600183016000526020600020601f830160051c81016020841062002f8a575b601f830160051c8201811062002f7d57505062000414565b6000815560010162002f65565b508062002f65565b90607f169062000400565b0151905038806200024e565b906002850160005260206000209160005b601f198516811062003008575091839160019360059695601f1981161062002fee575b505050811b01600284015562000266565b015160001960f88460031b161c1916905538808062002fdd565b9192602060018192868501518155019401920162002fba565b600285016000526020600020601f840160051c81016020851062003065575b601f830160051c82018110620030585750506200022f565b6000815560010162003040565b508062003040565b90607f16906200021b565b015190503880620001d8565b6001840160005260206000209060005b601f1984168110620030de5750600193949583601f19811610620030c4575b505050811b016001830155620001f0565b015160001960f88460031b161c19169055388080620030b3565b9091602060018192858a01518155019301910162003094565b600184016000526020600020601f830160051c8101602084106200313b575b601f830160051c820181106200312e575050620001bc565b6000815560010162003116565b508062003116565b90607f1690620001a8565b600080fd5b6040519061010082016001600160401b0381118382101762001dad57604052565b60408051919082016001600160401b0381118382101762001dad57604052565b60405190606082016001600160401b0381118382101762001dad57604052565b6004111562001e9d57565b6000198114620031cf5760010190565b634e487b7160e01b600052601160045260246000fdfe60a0604052600436101561001b575b361561001957600080fd5b005b60003560e01c806303988f8414612ae457806309cd4e2614612ab15780630b0f585314612a39578063217328b614612a1b57806331543cf41461295457806331ea1a391461282057806334b25ee2146126a75780633549a1911461268b5780634a5ee49d14612603578063564a565d146125775780635aef573c1461221657806360e9450d14611e33578063618d1d4a14611bdb57806363302e6e14611b915780636e607fa714611b425780637d41702e146118dd57806382fd5bac146115255780638878a83e146113dc5780638c639a85146113be5780638da5cb5b146113955780638e46a300146112105780639a891716146111d1578063a310dffd146111b5578063aa0b59881461114c578063ada4ef3014611100578063bc52565214611037578063bde8d5ad14610e90578063ca2dfd0a14610e44578063d285680d14610e26578063d9548e5314610df5578063dd89378314610dd9578063e3a96cbd14610cde578063e4357cd714610b06578063eaccafde14610aae578063fa2af9da14610a855763fdf71c290361000e57610100366003190112610a8057600c6004351015610a8057602480356001600160401b038111610a80576101e4903690600401612f84565b6044356001600160401b038111610a8057610203903690600401612f84565b6064939193356001600160401b038111610a8057610225903690600401612f84565b9091600460c4351015610a8057600460e4351015610a80573415610a4857608435151580610a3a575b15610a0357603260a435116109c9576000549561026a8761303b565b600055606461027b60a43534613012565b0491610287833461304a565b92610e10968760843502976084358904146084351517156109b45787420142116109b45761010098610374986103679661035a946102c660c435612e58565b60006040519d8e6102d681612d5b565b3381528260208201528260408201526102f460043560608301613057565b82608082015261030560e435612e58565b60e43560a082015261031860c435612e58565b60c43560c08201523460e082015201526101208d01526101408c0152426101608c015260006101808c015242016101a08b015260006101c08b01523691613063565b6101e08801523691613063565b6102008501523691613063565b6102208201526040518060208101106001600160401b0360208301111761099f57602081016040526000815261024082015260c435151561026082015260a435151561028082015260016102a082015260006102c0820152816000526005602052604060002060018060a01b03808351166001600160601b0360a01b90818454161783556001830190826020860151169082541617905560408301511660028201546060840151600c81101561098a5760808501519060098210156109755760a08601519361044285612e58565b61044b85612e58565b60c087015161045981612e58565b61046281612e58565b60ff60b81b9060b81b169460ff60b01b9060b01b16936001600160401b0360c01b16179060ff60a01b9060a01b16179060ff60a81b9060a81b16171717600282015560e08201516003820155610100820151600482015561012082015160058201556101408201516006820155610160820151600782015561018082015160088201556101a082015160098201556101c0820151600a8201556101e08201518051906001600160401b0382116107e957819061052e82610525600b870154612cea565b600b87016130a9565b602090601f8311600114610903576000926108f8575b50508160011b916000199060031b1c191617600b8201555b6102008201518051906001600160401b0382116107e957819061058f82610586600c870154612cea565b600c87016130a9565b602090601f83116001146108865760009261087b575b50508160011b916000199060031b1c191617600c8201555b6102208201518051906001600160401b0382116107e95781906105f0826105e7600d870154612cea565b600d87016130a9565b602090601f8311600114610809576000926107fe575b50508160011b916000199060031b1c191617600d8201555b6102408201518051906001600160401b0382116107e957602095506106538261064a600e860154612cea565b600e86016130a9565b8590601f83116001146107755791806102c09492600f9460009261076a575b50508160011b916000199060031b1c191617600e8201555b01916106a96102608201511515849060ff801983541691151516179055565b610280810151835461ff00191690151560081b61ff00161783556102a0810151835462ff0000191690151560101b62ff0000161783550151151563ff00000082549160181b169063ff000000191617905533600052600982526107108160406000206130fd565b80600052600582526009604060002001546040519061073182600435612e3e565b34848301526040820152817f0841e774526cd6a8c3e75c7b46d25e48a6b593a2f6bcb872de31ac378e855eef60603393a3604051908152f35b015190503880610672565b90600e8401600052866000209160005b601f19851681106107d25750926102c09492600192600f9583601f198116106107b9575b505050811b01600e82015561068a565b015160001960f88460031b161c191690553880806107a9565b919288600181928685015181550194019201610785565b85634e487b7160e01b60005260416004526000fd5b015190503880610606565b9250600d84016000526020600020906000935b601f1984168510610860576001945083601f19811610610847575b505050811b01600d82015561061e565b015160001960f88460031b161c19169055388080610837565b8181015183556020948501946001909301929091019061081c565b0151905038806105a5565b9250600c84016000526020600020906000935b601f19841685106108dd576001945083601f198116106108c4575b505050811b01600c8201556105bd565b015160001960f88460031b161c191690553880806108b4565b81810151835560209485019460019093019290910190610899565b015190503880610544565b9250600b84016000526020600020906000935b601f198416851061095a576001945083601f19811610610941575b505050811b01600b82015561055c565b015160001960f88460031b161c19169055388080610931565b81810151835560209485019460019093019290910190610916565b87634e487b7160e01b60005260216004526000fd5b86634e487b7160e01b60005260216004526000fd5b83634e487b7160e01b60005260416004526000fd5b8a634e487b7160e01b60005260116004526000fd5b60405162461bcd60e51b81526020600482015260138189015272086dedadad2e840cccaca40e8dede40d0d2ced606b1b6044820152606490fd5b60405162461bcd60e51b8152602060048201526010818901526f496e76616c696420646561646c696e6560801b6044820152606490fd5b50610870608435111561024e565b60405162461bcd60e51b81526020600482015260118189015270135d5cdd081b1bd8dac81c185e5b595b9d607a1b6044820152606490fd5b600080fd5b34610a80576000366003190112610a80576003546040516001600160a01b039091168152602090f35b34610a80576040366003190112610a8057610ac7612ea2565b6001600160a01b03166000908152600a6020526040902080546024359190821015610a8057602091610af891612fe4565b90546040519160031b1c8152f35b34610a80576020366003190112610a8057600435610b276000548210613137565b80600052600560205260406000206009810154421115610ca75760028101805460ff8160a81c1660098110159081610c83578015918215610c99575b8215610c72575b505015610c395760ff600f84015460101c16610b8257005b60ff60a81b1916600160ab1b179055805460068201546001600160a01b0392916000918291829182918716828215610c30575bf115610c1b576004810154918215918215610bf6575b505050507f4877925cd1e279c5d3b475b58cf04cbb9e3b70c517a2305ac4933c34d28ca24f600080a2005b6000938493849360018594015416908390610c27575bf115610c1b5781808080610bcb565b6040513d6000823e3d90fd5b506108fc610c0c565b506108fc610bb5565b60405162461bcd60e51b8152602060048201526011602482015270105b1c9958591e48199a5b985b1a5e9959607a1b6044820152606490fd5b909150610c83576002148580610b6a565b634e487b7160e01b600052602160045260246000fd5b506001811491506000610b63565b60405162461bcd60e51b815260206004820152600f60248201526e139bdd08195e1c1a5c9959081e595d608a1b6044820152606490fd5b34610a8057602080600319360112610a8057600060a0604051610d0081612d40565b828152828482015260606040820152826060820152826080820152015260043560005260078152604060002060405190610d3982612d40565b8054825260018101546001600160a01b03908116848401908152610dbe610d6260028501612d98565b60408601908152600460038601549560608801968752015493608087019360ff86161515855260ff60a089019660081c1615158652604051988998818a525190890152511660408701525160c0606087015260e0860190612e62565b9251608085015251151560a084015251151560c08301520390f35b34610a80576000366003190112610a80576020604051605a8152f35b34610a80576020366003190112610a8057600435600052600560205260206009604060002001544211604051908152f35b34610a80576000366003190112610a80576020600154604051908152f35b34610a80576020366003190112610a8057610e5d612ea2565b6002546001600160a01b039190610e77908316331461319a565b166000908152600860205260409020805460ff19169055005b34610a80576060366003190112610a8057600435610eac612f75565b906044356001600160401b038111610a8057610ecc903690600401612f84565b909282600052600560205260018060a01b03600260406000200154163314801561101f575b15610fda57610f036000548410613137565b8260005260056020526002604060002001805460ff8160a81c1660098110159081610c835760028114918215610fcc575b8215610fbb575b505015610f765760ff60a81b1916600360a81b17905515610f615750610019915061323d565b61001992610f70913691613063565b9061337c565b60405162461bcd60e51b815260206004820152601c60248201527f496e76616c69642073746174757320666f7220657865637574696f6e000000006044820152606490fd5b909150610c83576003148780610f3b565b506001811491506000610f34565b60405162461bcd60e51b815260206004820152601760248201527f4e6f7420617574686f72697a65642076657269666965720000000000000000006044820152606490fd5b5033600052600860205260ff60406000205416610ef1565b34610a80576020366003190112610a805760043560005260066020526110ab604060002060ff8154169060ff61106f60018301612d98565b9161107c60028201612d98565b9260038201549360056004840154930154926110ca858516926110bc878760081c16956040519b8c809c612e3e565b6101008060208d01528b0190612e62565b9089820360408b0152612e62565b95606088015260808701526110de81612e58565b60a08601526110ec81612e58565b60c085015260101c16151560e08301520390f35b34610a80576020366003190112610a8057611119612ea2565b6002546001600160a01b039190611133908316331461319a565b166001600160601b0360a01b6003541617600355600080f35b34610a80576020366003190112610a805760043561117560018060a01b0360025416331461319a565b6101f4811161118357600455005b60405162461bcd60e51b815260206004820152600a6024820152694d61782035252066656560b01b6044820152606490fd5b34610a80576000366003190112610a80576020604051600a8152f35b34610a80576020366003190112610a80576001600160a01b036111f2612ea2565b166000526008602052602060ff604060002054166040519015158152f35b34610a80576000366003190112610a80576001805461122e81613212565b9061123c6040519283612d77565b808252601f1961124b82613212565b0160005b81811061137e57505060005b8181106112c5578284604051906020808301818452845180915260408401918060408360051b8701019601926000905b8382106112985786880387f35b909192939483806112b4839a603f198b82030186528951612ef3565b99970195949391909101910161128b565b80611379916000526020600681526040600020906005604051926112e884612d24565b60ff926112f88483541686613057565b6113038a8301612d98565b9085015261131360028201612d98565b60408501526003810154606085015260048101546080850152015481811661133a81612e58565b60a0840152818160081c1661134e81612e58565b60c084015260101c16151560e08201526113688286613229565b526113738185613229565b5061303b565b61125b565b6020906113896131d2565b8282870101520161124f565b34610a80576000366003190112610a80576002546040516001600160a01b039091168152602090f35b34610a80576000366003190112610a80576020600454604051908152f35b34610a80576040366003190112610a80576001600160a01b036024358181169160043591839003610a80576114146000548310613137565b8160005260056020526040600020908082541633148015611518575b156114e25783600052600860205260ff604060002054169081156114d4575b501561148f5760020180546001600160a01b031916831790557fc181aecfff2f240eea8faaf828ea7c55cc1a3b66f0c1d575fb5055d9fe80a41b600080a3005b60405162461bcd60e51b815260206004820152601760248201527f5665726966696572206e6f7420617574686f72697a65640000000000000000006044820152606490fd5b90506002541633148461144f565b60405162461bcd60e51b815260206004820152600e60248201526d139bdd08185d5d1a1bdc9a5e995960921b6044820152606490fd5b5080600254163314611430565b34610a80576020366003190112610a805760006102c060405161154781612d5b565b8281528260208201528260408201528260608201528260808201528260a08201528260c08201528260e08201528261010082015282610120820152826101408201528261016082015282610180820152826101a0820152826101c082015260606101e08201526060610200820152606061022082015260606102408201528261026082015282610280820152826102a0820152015260043560005260056020526040600020604051906115f982612d5b565b80546001600160a01b0390811683526001820154811660208401526002820154908116604084015261163560a082901c60ff1660608501613057565b600960ff8260a81c161015610c835760ff91828281600f9460a81c166080870152818160b01c1661166581612e58565b60a087015260b81c1661167781612e58565b60c0850152600381015460e08501526004810154610100850152600581015461012085015260068101546101408501526007810154610160850152600881015461018085015260098101546101a0850152600a8101546101c08501526116df600b8201612d98565b6101e08501526116f1600c8201612d98565b610200850152611703600d8201612d98565b610220850152611715600e8201612d98565b61024085015201548181161515610260840152818160081c161515610280840152818160101c1615156102a084015260181c1615156102c082015260405180916020825260018060a01b03815116602083015260018060a01b03602082015116604083015260018060a01b03604082015116606083015261179e60608201516080840190612e3e565b6117b0608082015160a0840190612e4b565b60a08101516117be81612e58565b60c083015260c08101516117d181612e58565b60e083015260e08101516101008301526101008101516101208301526101208101516101408301526101408101516101608301526101608101516101808301526101808101516101a08301526101a08101516101c08301526101c08101516101e08301526101e08101516102c06118a861185a6102e09384610200880152610300870190612e62565b61189161187b61020087015192601f1993848a8303016102208b0152612e62565b61022087015183898303016102408a0152612e62565b906102408601519087830301610260880152612e62565b92610260810151151561028086015261028081015115156102a08601526102a081015115158286015201511515908301520390f35b602080600319360112610a80576004356118fa6000548210613137565b8060005260058252604060002060028101805460ff8160a81c166009811015610c8357611b0d5782546001600160a01b03163314611acf576009830154421015611a9b5761194783613468565b3410611a5657908291600160059401336001600160601b0360a01b825416179055346004840155426008840155600160a81b9060ff60a81b191617905533600052600a845261199a8360406000206130fd565b01805480158015611a02575b505050604051348152817f4040b057894dad8489aa292521553397cd14fa0e341f6e6c9b646f78154efd1c843393a37feec2f3feb835e2f2fd44281034b04700a1ddda63dd402949d470a25a7c40b36c604051923484523393a3005b600080809381938290611a4d575b3390f115610c1b5754604051908152817f53c2cacdb39e7fd9ed553a6ee9d1f91bde517d6101e4959f7fd5da292e793280843393a38280806119a6565b506108fc611a10565b60405162461bcd60e51b815260048101869052601760248201527f496e73756666696369656e7420636f6c6c61746572616c0000000000000000006044820152606490fd5b60405162461bcd60e51b815260048101869052600c60248201526b1119585b08195e1c1a5c995960a21b6044820152606490fd5b60405162461bcd60e51b8152600481018690526016602482015275213abcb2b91031b0b73737ba1031329039b2b63632b960511b6044820152606490fd5b60405162461bcd60e51b815260048101869052600d60248201526c2232b0b6103737ba1037b832b760991b6044820152606490fd5b34610a80576020366003190112610a8057611b5b612ea2565b6002546001600160a01b039190611b75908316331461319a565b166000908152600860205260409020805460ff19166001179055005b34610a80576040366003190112610a8057611baa612ea2565b6001600160a01b0316600090815260096020526040902080546024359190821015610a8057602091610af891612fe4565b34610a8057611be936612fb1565b9091611bf86000548210613137565b806000526020926005845260406000209260019360018060a01b0385820154163303611e0157600281019060ff825460a81c166009811015610c83578603611dc8576009810154421015611d9157600e81016001600160401b038411611d7b57611c6c84611c668354612cea565b836130a9565b600096601f8511600114611cfa578480917f06f23e72707418d32b3d524efd61b181a8e279e08acd814af148f428885cb9cd9899600093611cef575b501b906000198660031b1c19161790555b42600a9190910155805460ff60a81b1916600160a91b179055604051858152339590928392611cea92840191613179565b0390a3005b88013592508b611ca8565b601f1985169782600052896000209060005b8b8b8210611d67575050867f06f23e72707418d32b3d524efd61b181a8e279e08acd814af148f428885cb9cd999a10611d4d575b505084811b019055611cb9565b870135600019600388901b60f8161c191690558980611d40565b898301358455928401929182019101611d0c565b634e487b7160e01b600052604160045260246000fd5b60405162461bcd60e51b815260048101889052600f60248201526e111958591b1a5b99481c185cdcd959608a1b6044820152606490fd5b60405162461bcd60e51b81526004810188905260116024820152701119585b081b9bdd081858d8d95c1d1959607a1b6044820152606490fd5b60405162461bcd60e51b815260048101879052600a6024820152692737ba1039b2b63632b960b11b6044820152606490fd5b34610a805760e0366003190112610a8057600c6004351015610a80576024356001600160401b038111610a8057611e6e903690600401612f84565b6044356001600160401b038111610a8057611e8d903690600401612f84565b929091600460a4351015610a8057600460c4351015610a8057611ebb60018060a01b0360025416331461319a565b60015492611ec88461303b565b600155611f0160405191611edb83612d24565b611ee760043584613057565b611ef2368587613063565b96602084019788523691613063565b604082015260643560608201526084356080820152611f2160a435612e58565b60a43560a0820152611f3460c435612e58565b60c43560c0820152600160e08201528360005260066020526040600020948151600c811015610c835760ff80198854169116178655518051906001600160401b038211611d7b578190611f9782611f8e60018b0154612cea565b60018b016130a9565b602090601f83116001146121a457600092612199575b50508160011b916000199060031b1c19161760018601555b60408101519485516001600160401b038111611d7b57611ff581611fec6002850154612cea565b600285016130a9565b6020601f82116001146120ff576120c993928260e0936005937fa77d98bfb261ea73a3a92dfc83d0028afc567cddcd5ae94626986121a1000dc59a9b6000926120f4575b50508160011b916000199060031b1c19161760028201555b6060840151600382015560808401516004820155019160a081015161207581612e58565b61207e81612e58565b835460ff61ff0060c085015161209381612e58565b61209c81612e58565b60081b1692169061ffff1916171783550151151562ff0000825491151560101b169062ff00001916179055565b6120e0604051928392604084526040840191613179565b6120ef60208301600435612e3e565b0390a2005b015190508b80612039565b6002830160005260206000209760005b601f19841681106121815750926001837fa77d98bfb261ea73a3a92dfc83d0028afc567cddcd5ae94626986121a1000dc5999a6005946120c9989760e097601f19811610612168575b505050811b016002820155612051565b015160001960f88460031b161c191690558b8080612158565b828201518a556001909901986020928301920161210f565b015190508780611fad565b9250600188016000526020600020906000935b601f19841685106121fb576001945083601f198116106121e2575b505050811b016001860155611fc5565b015160001960f88460031b161c191690558780806121d2565b818101518355602094850194600190930192909101906121b7565b34610a805761222436612fb1565b91906122336000548310613137565b600082815260056020526040902080546001600160a01b0390811633148015612568575b156125305760028201805460ff8160a81c16936009851015610c8357600194858114908115612525575b50156124e057600f01805460ff8160181c166124a85763ff0000001916630100000017905560ff60a81b1916600360a91b179055604051916122c283612d40565b848352602083013381526122d7368887613063565b906040850191825242606086015260006080860152600060a0860152866000526007602052604060002093855185558385019151166001600160601b0360a01b82541617905551908151916001600160401b038311611d7b5761234a836123416002870154612cea565b600287016130a9565b602090601f841160011461240a577f1b84372106d77c6daea0dda35bbc0229d10a83f58ec899092884925193682341969484806123e996611cea999660a0966004966000946123ff575b50501b916000199060031b1c19161760028201555b6060840151600382015501916123d160808201511515849060ff801983541691151516179055565b0151815461ff00191690151560081b61ff0016179055565b6040519182916020835233966020840191613179565b015192508e80612394565b906002859493940160005260206000209160005b601f19851681106124925750946123e9948460a0946004947f1b84372106d77c6daea0dda35bbc0229d10a83f58ec8990928849251936823419b99611cea9b98601f19811610612479575b505050811b0160028201556123a9565b015160001960f88460031b161c191690558c8080612469565b818301518455928501926020928301920161241e565b60405162461bcd60e51b815260206004820152601060248201526f105b1c9958591e48191a5cdc1d5d195960821b6044820152606490fd5b60405162461bcd60e51b815260206004820152601c60248201527f43616e6e6f7420646973707574652061742074686973207374616765000000006044820152606490fd5b600291501489612281565b60405162461bcd60e51b815260206004820152601060248201526f4e6f742061206465616c20706172747960801b6044820152606490fd5b50806001830154163314612257565b34610a80576020366003190112610a80576004356000908152600760205260409020805460018201546001600160a01b03169160ff6125b860028301612d98565b6125e460046003850154940154916040519687968752602087015260c0604087015260c0860190612e62565b9260608501528181161515608085015260081c16151560a08301520390f35b34610a8057602080600319360112610a80576001600160a01b03612625612ea2565b16600052600a8152604060002090604051908181845491828152019360005281600020916000905b828210612674576126708561266481890382612d77565b60405191829182612eb8565b0390f35b83548652948501946001938401939091019061264d565b34610a80576000366003190112610a8057602060405160328152f35b34610a80576040366003190112610a80576004356126c3612f75565b6126d860018060a01b0360025416331461319a565b6126e56000548310613137565b81600052600560205260ff60026040600020015460a81c166009811015610c83576006036127ec576000828152600760205260409020600401805461ffff191682151560081b61ff001617600117905580156127ba5760405160408101918183106001600160401b03841117611d7b576127af6020927f5a87909bff68caaaaf0b3fd9c74eeccc928832f879315e5c6fb7a73612f26c0c94604052601b81527f44697370757465207265736f6c7665643a20627579657220776f6e0000000000848201528561337c565b6040519015158152a2005b60207f5a87909bff68caaaaf0b3fd9c74eeccc928832f879315e5c6fb7a73612f26c0c916127e78461323d565b6127af565b60405162461bcd60e51b815260206004820152600c60248201526b139bdd08191a5cdc1d5d195960a21b6044820152606490fd5b34610a80576020366003190112610a80576004356128416000548210613137565b600081815260056020526040902080546001600160a01b03169033820361292357600281019081549160ff8360a81c166009811015610c83576128de5760ff60a81b19909216600760a81b17909155600301548290600090819081908190868282156128d5575bf115610c1b577f31b0c01e8429f81903c3f8adc204767b8efa7cfca91a00f3b4bb40ce63c8a206600080a2005b506108fc6128a8565b60405162461bcd60e51b815260206004820152601a60248201527f43616e206f6e6c792063616e63656c206f70656e206465616c730000000000006044820152606490fd5b60405162461bcd60e51b81526020600482015260096024820152682737ba10313abcb2b960b91b6044820152606490fd5b34610a80576020366003190112610a805761296d6131d2565b506004356000526006602052612670604060002060ff60056040519261299284612d24565b61299f8382541685613057565b6129ab60018201612d98565b60208501526129bc60028201612d98565b6040850152600381015460608501526004810154608085015201548181166129e381612e58565b60a0840152818160081c166129f781612e58565b60c084015260101c16151560e0820152604051918291602083526020830190612ef3565b34610a80576000366003190112610a80576020600054604051908152f35b34610a8057602080600319360112610a80576001600160a01b03612a5b612ea2565b1660005260098152604060002090604051908181845491828152019360005281600020916000905b828210612a9a576126708561266481890382612d77565b835486529485019460019384019390910190612a83565b34610a80576020366003190112610a805760043560005260056020526020612adc6040600020613468565b604051908152f35b34610a80576020366003190112610a805760043560005260056020526040600020600160a01b600190038154169080600160a01b6001900360018201541660028201546003830154600484015460058501546006860154600787015490600888015492600989015494600a8a015496600b8b01612b6090612d98565b98612b6d600c8d01612d98565b9a612b7a600d8e01612d98565b9c600e01612b8790612d98565b9d600f01549e604051806080525260805160200152600160a01b600190038116608051604001526080516060018160a01c60ff1690612bc591612e3e565b6080516080018160a81c60ff1690612bdc91612e4b565b8060b01c60ff16612bec81612e58565b60805160a0015260b81c60ff16612c0281612e58565b60805160c0015260805160e00152608051610100015260805161012001526080516101400152608051610160015260805161018001526080516101a001526080516101c001526102e0806080516101e0015260805101612c6191612e62565b608051808203906102000152612c7691612e62565b608051808203906102200152612c8b91612e62565b608051808203906102400152612ca091612e62565b9060ff8116151560805161026001528060081c60ff16151560805161028001528060101c60ff1615156080516102a0015260181c60ff1615156080516102c0015260805180910390f35b90600182811c92168015612d1a575b6020831014612d0457565b634e487b7160e01b600052602260045260246000fd5b91607f1691612cf9565b61010081019081106001600160401b03821117611d7b57604052565b60c081019081106001600160401b03821117611d7b57604052565b6102e081019081106001600160401b03821117611d7b57604052565b90601f801991011681019081106001600160401b03821117611d7b57604052565b9060405191826000825492612dac84612cea565b908184526001948581169081600014612e1b5750600114612dd8575b5050612dd692500383612d77565b565b9093915060005260209081600020936000915b818310612e03575050612dd693508201013880612dc8565b85548884018501529485019487945091830191612deb565b915050612dd694506020925060ff191682840152151560051b8201013880612dc8565b90600c821015610c835752565b906009821015610c835752565b60041115610c8357565b919082519283825260005b848110612e8e575050826000602080949584010152601f8019910116010190565b602081830181015184830182015201612e6d565b600435906001600160a01b0382168203610a8057565b6020908160408183019282815285518094520193019160005b828110612edf575050505090565b835185529381019392810192600101612ed1565b90612eff818351612e3e565b60e080612f30612f1e6020860151610100806020880152860190612e62565b60408601518582036040870152612e62565b93606081015160608501526080810151608085015260a0810151612f5381612e58565b60a085015260c0810151612f6681612e58565b60c08501520151151591015290565b602435908115158203610a8057565b9181601f84011215610a80578235916001600160401b038311610a805760208381860195010111610a8057565b906040600319830112610a805760043591602435906001600160401b038211610a8057612fe091600401612f84565b9091565b8054821015612ffc5760005260206000200190600090565b634e487b7160e01b600052603260045260246000fd5b8181029291811591840414171561302557565b634e487b7160e01b600052601160045260246000fd5b60001981146130255760010190565b9190820391821161302557565b600c821015610c835752565b9291926001600160401b038211611d7b576040519161308c601f8201601f191660200184612d77565b829481845281830111610a80578281602093846000960137010152565b90601f81116130b757505050565b600091825260208220906020601f850160051c830194106130f3575b601f0160051c01915b8281106130e857505050565b8181556001016130dc565b90925082906130d3565b805468010000000000000000811015611d7b5761311f91600182018155612fe4565b819291549060031b91821b91600019901b1916179055565b1561313e57565b60405162461bcd60e51b81526020600482015260136024820152721119585b08191bd95cc81b9bdd08195e1a5cdd606a1b6044820152606490fd5b908060209392818452848401376000828201840152601f01601f1916010190565b156131a157565b60405162461bcd60e51b81526020600482015260096024820152682737ba1037bbb732b960b91b6044820152606490fd5b604051906131df82612d24565b8160e060009182815260606020820152606060408201528260608201528260808201528260a08201528260c08201520152565b6001600160401b038111611d7b5760051b60200190565b8051821015612ffc5760209160051b010190565b906000918083526005602052604080842060028101600160aa1b60ff60a81b19825416179055600681015461328261271061327a60045484613012565b04809261304a565b916001810160018060a01b0391888080808887875416828215613373575bf1156133535788848015801580613366575b613333575b505050600401549182159182156132ff575b505050507f288c4f69e41b68e52705717bf70617f3c77f4a2de96489356afc0591a80644859394955082519182526020820152a2565b8993849384938493541690839061332a575bf11561332057858080806132c9565b82513d87823e3d90fd5b506108fc613311565b8280928192886003541690839061335d575bf115613353578884386132b7565b85513d8a823e3d90fd5b506108fc613345565b50856003541615156132b2565b506108fc6132a0565b600081815260056020526040812060028101805460ff60a81b1916600560a81b179055805460068201549394936001600160a01b0392918491829182918291871682821561345f575bf11561345457600481015491821591821561341e575b50505050506134197f41b4f147e2c6d9e9a29860e9e78ad942f22dafec94b22a64ba3b24173593ffe491604051918291602083526020830190612e62565b0390a2565b8493849384938493541690839061344b575bf11561343f57808080806133db565b604051903d90823e3d90fd5b506108fc613430565b6040513d84823e3d90fd5b506108fc6133c5565b60ff600282015460b81c1661347c81612e58565b80156134fc5761348b81612e58565b600181146134dd5761349c81612e58565b600281146134d557806134b0600392612e58565b146134bb5750600090565b600301548060011b90808204600214901517156130255790565b506003015490565b5060030154601e810290808204601e1490151715613025576064900490565b505060009056fea26469706673582212209616d9fd49dd7397f60d7017864aac10aa02cbd16243a8c65bf8bac5b138b32d64736f6c63430008140033","opcodes":"PUSH1 0x80 CALLVALUE PUSH3 0x314E JUMPI PUSH1 0x1F PUSH3 0x671F CODESIZE DUP2 SWAP1 SUB SWAP2 DUP3 ADD PUSH1 0x1F NOT AND DUP4 ADD SWAP2 PUSH1 0x1 PUSH1 0x1 PUSH1 0x40 SHL SUB DUP4 GT DUP5 DUP5 LT OR PUSH3 0x1DAD JUMPI DUP1 DUP5 SWAP3 PUSH1 0x40 SWAP5 DUP6 MSTORE DUP4 CODECOPY DUP2 ADD SUB SLT PUSH3 0x314E JUMPI DUP1 MLOAD PUSH1 0x1 PUSH1 0x1 PUSH1 0xA0 SHL SUB DUP2 AND SWAP2 SWAP1 DUP3 SWAP1 SUB PUSH3 0x314E JUMPI PUSH1 0x20 ADD MLOAD SWAP1 PUSH1 0x1 DUP1 PUSH1 0xA0 SHL SUB NOT CALLER DUP2 PUSH1 0x2 SLOAD AND OR PUSH1 0x2 SSTORE PUSH1 0x3 SLOAD AND OR PUSH1 0x3 SSTORE PUSH1 0x4 SSTORE PUSH3 0x83 PUSH3 0x3153 JUMP JUMPDEST PUSH1 0x0 DUP2 MSTORE PUSH3 0x91 PUSH3 0x3174 JUMP JUMPDEST PUSH1 0x17 DUP2 MSTORE PUSH32 0x536F6369616C204D6564696120456E676167656D656E74000000000000000000 PUSH1 0x20 DUP3 ADD MSTORE PUSH1 0x20 DUP3 ADD MSTORE PUSH3 0xCA PUSH3 0x3194 JUMP JUMPDEST PUSH1 0x3F DUP2 MSTORE PUSH32 0x476574206C696B65732C20666F6C6C6F776572732C2076696577732C206F7220 PUSH1 0x20 DUP3 ADD MSTORE PUSH32 0x636F6D6D656E7473206F6E206120736F6369616C206D6564696120706F737400 PUSH1 0x40 DUP3 ADD MSTORE PUSH1 0x40 DUP3 ADD MSTORE PUSH7 0x11C37937E08000 PUSH1 0x60 DUP3 ADD MSTORE PUSH1 0x48 PUSH1 0x80 DUP3 ADD MSTORE PUSH1 0x1 PUSH1 0xA0 DUP3 ADD MSTORE PUSH1 0x0 PUSH1 0xC0 DUP3 ADD MSTORE PUSH1 0x1 PUSH1 0xE0 DUP3 ADD MSTORE PUSH1 0x1 SLOAD PUSH3 0x156 DUP2 PUSH3 0x31BF JUMP JUMPDEST PUSH1 0x1 SSTORE PUSH1 0x0 MSTORE PUSH1 0x6 PUSH1 0x20 MSTORE PUSH1 0x40 PUSH1 0x0 KECCAK256 DUP2 MLOAD PUSH1 0xC DUP2 LT ISZERO PUSH3 0x1E9D JUMPI PUSH1 0xFF DUP1 NOT DUP4 SLOAD AND SWAP2 AND OR DUP2 SSTORE PUSH1 0x20 DUP3 ADD MLOAD SWAP2 DUP3 MLOAD PUSH1 0x1 DUP1 PUSH1 0x40 SHL SUB DUP2 GT PUSH3 0x1DAD JUMPI PUSH1 0x1 DUP4 ADD SLOAD PUSH1 0x1 DUP2 DUP2 SHR SWAP2 AND DUP1 ISZERO PUSH3 0x3143 JUMPI JUMPDEST PUSH1 0x20 DUP3 LT EQ PUSH3 0x1D8C JUMPI PUSH1 0x1F DUP2 GT PUSH3 0x30F7 JUMPI JUMPDEST POP PUSH1 0x20 PUSH1 0x1F DUP3 GT PUSH1 0x1 EQ PUSH3 0x3084 JUMPI DUP2 SWAP3 SWAP4 SWAP5 PUSH1 0x0 SWAP3 PUSH3 0x3078 JUMPI JUMPDEST POP POP DUP2 PUSH1 0x1 SHL SWAP2 PUSH1 0x0 NOT SWAP1 PUSH1 0x3 SHL SHR NOT AND OR PUSH1 0x1 DUP4 ADD SSTORE JUMPDEST PUSH1 0x40 DUP2 ADD MLOAD DUP1 MLOAD SWAP1 PUSH1 0x1 PUSH1 0x1 PUSH1 0x40 SHL SUB DUP3 GT PUSH3 0x1DAD JUMPI PUSH1 0x2 DUP5 ADD SLOAD PUSH1 0x1 DUP2 DUP2 SHR SWAP2 AND DUP1 ISZERO PUSH3 0x306D JUMPI JUMPDEST PUSH1 0x20 DUP3 LT EQ PUSH3 0x1D8C JUMPI PUSH1 0x1F DUP2 GT PUSH3 0x3021 JUMPI JUMPDEST POP PUSH1 0x20 SWAP1 PUSH1 0x1F DUP4 GT PUSH1 0x1 EQ PUSH3 0x2FA9 JUMPI PUSH1 0x5 SWAP4 SWAP3 SWAP2 PUSH1 0x0 SWAP2 DUP4 PUSH3 0x2F9D JUMPI JUMPDEST POP POP DUP2 PUSH1 0x1 SHL SWAP2 PUSH1 0x0 NOT SWAP1 PUSH1 0x3 SHL SHR NOT AND OR PUSH1 0x2 DUP5 ADD SSTORE JUMPDEST PUSH1 0x60 DUP2 ADD MLOAD PUSH1 0x3 DUP5 ADD SSTORE PUSH1 0x80 DUP2 ADD MLOAD PUSH1 0x4 DUP5 ADD SSTORE PUSH1 0xA0 DUP2 ADD MLOAD SWAP1 PUSH3 0x28B DUP3 PUSH3 0x31B4 JUMP JUMPDEST PUSH3 0x296 DUP3 PUSH3 0x31B4 JUMP JUMPDEST PUSH2 0xFF00 DUP4 DUP6 ADD SLOAD PUSH1 0xFF PUSH3 0xFF0000 PUSH1 0xE0 PUSH1 0xC0 DUP7 ADD MLOAD SWAP6 PUSH3 0x2B6 DUP8 PUSH3 0x31B4 JUMP JUMPDEST PUSH3 0x2C1 DUP8 PUSH3 0x31B4 JUMP JUMPDEST ADD MLOAD ISZERO ISZERO PUSH1 0x10 SHL AND SWAP5 AND SWAP1 PUSH3 0xFFFFFF NOT AND OR SWAP2 PUSH1 0x8 SHL AND OR OR SWAP2 ADD SSTORE PUSH3 0x2E7 PUSH3 0x3153 JUMP JUMPDEST PUSH1 0x1 DUP2 MSTORE PUSH3 0x2F5 PUSH3 0x3174 JUMP JUMPDEST PUSH1 0x10 DUP2 MSTORE PUSH16 0x21B7B73A32B73A1021B932B0BA34B7B7 PUSH1 0x81 SHL PUSH1 0x20 DUP3 ADD MSTORE PUSH1 0x20 DUP3 ADD MSTORE PUSH3 0x321 PUSH3 0x3194 JUMP JUMPDEST PUSH1 0x3F DUP2 MSTORE PUSH32 0x43726561746520616E64207075626C69736820636F6E74656E74207375636820 PUSH1 0x20 DUP3 ADD MSTORE PUSH32 0x61732061727469636C65732C20766964656F732C206F72207468726561647300 PUSH1 0x40 DUP3 ADD MSTORE PUSH1 0x40 DUP3 ADD MSTORE PUSH7 0x2386F26FC10000 PUSH1 0x60 DUP3 ADD MSTORE PUSH1 0xA8 PUSH1 0x80 DUP3 ADD MSTORE PUSH1 0x1 PUSH1 0xA0 DUP3 ADD MSTORE PUSH1 0x0 PUSH1 0xC0 DUP3 ADD MSTORE PUSH1 0x1 PUSH1 0xE0 DUP3 ADD MSTORE PUSH1 0x1 SLOAD PUSH3 0x3AD DUP2 PUSH3 0x31BF JUMP JUMPDEST PUSH1 0x1 SSTORE PUSH1 0x0 MSTORE PUSH1 0x6 PUSH1 0x20 MSTORE PUSH1 0x40 PUSH1 0x0 KECCAK256 SWAP1 DUP1 MLOAD PUSH1 0xC DUP2 LT ISZERO PUSH3 0x1E9D JUMPI PUSH1 0xFF DUP1 NOT DUP5 SLOAD AND SWAP2 AND OR DUP3 SSTORE PUSH1 0x20 DUP2 ADD MLOAD SWAP2 DUP3 MLOAD PUSH1 0x1 DUP1 PUSH1 0x40 SHL SUB DUP2 GT PUSH3 0x1DAD JUMPI PUSH1 0x1 DUP3 ADD SLOAD PUSH1 0x1 DUP2 DUP2 SHR SWAP2 AND DUP1 ISZERO PUSH3 0x2F92 JUMPI JUMPDEST PUSH1 0x20 DUP3 LT EQ PUSH3 0x1D8C JUMPI PUSH1 0x1F DUP2 GT PUSH3 0x2F46 JUMPI JUMPDEST POP PUSH1 0x20 PUSH1 0x1F DUP3 GT PUSH1 0x1 EQ PUSH3 0x2ED3 JUMPI DUP2 SWAP3 SWAP4 SWAP5 PUSH1 0x0 SWAP3 PUSH3 0x2EC7 JUMPI JUMPDEST POP POP DUP2 PUSH1 0x1 SHL SWAP2 PUSH1 0x0 NOT SWAP1 PUSH1 0x3 SHL SHR NOT AND OR PUSH1 0x1 DUP3 ADD SSTORE JUMPDEST PUSH1 0x40 DUP3 ADD MLOAD DUP1 MLOAD SWAP1 PUSH1 0x1 PUSH1 0x1 PUSH1 0x40 SHL SUB DUP3 GT PUSH3 0x1DAD JUMPI PUSH1 0x2 DUP4 ADD SLOAD PUSH1 0x1 DUP2 DUP2 SHR SWAP2 AND DUP1 ISZERO PUSH3 0x2EBC JUMPI JUMPDEST PUSH1 0x20 DUP3 LT EQ PUSH3 0x1D8C JUMPI PUSH1 0x1F DUP2 GT PUSH3 0x2E70 JUMPI JUMPDEST POP PUSH1 0x20 SWAP1 PUSH1 0x1F DUP4 GT PUSH1 0x1 EQ PUSH3 0x2DF8 JUMPI PUSH1 0x5 SWAP4 SWAP3 SWAP2 PUSH1 0x0 SWAP2 DUP4 PUSH3 0x2DEC JUMPI JUMPDEST POP POP DUP2 PUSH1 0x1 SHL SWAP2 PUSH1 0x0 NOT SWAP1 PUSH1 0x3 SHL SHR NOT AND OR PUSH1 0x2 DUP3 ADD SSTORE JUMPDEST PUSH1 0x60 DUP4 ADD MLOAD PUSH1 0x3 DUP3 ADD SSTORE PUSH1 0x80 DUP4 ADD MLOAD PUSH1 0x4 DUP3 ADD SSTORE ADD SWAP1 PUSH1 0xA0 DUP2 ADD MLOAD SWAP1 PUSH3 0x4E5 DUP3 PUSH3 0x31B4 JUMP JUMPDEST PUSH3 0x4F0 DUP3 PUSH3 0x31B4 JUMP JUMPDEST PUSH2 0xFF00 DUP4 SLOAD PUSH1 0xFF PUSH3 0xFF0000 PUSH1 0xE0 PUSH1 0xC0 DUP7 ADD MLOAD SWAP6 PUSH3 0x50E DUP8 PUSH3 0x31B4 JUMP JUMPDEST PUSH3 0x519 DUP8 PUSH3 0x31B4 JUMP JUMPDEST ADD MLOAD ISZERO ISZERO PUSH1 0x10 SHL AND SWAP5 AND SWAP1 PUSH3 0xFFFFFF NOT AND OR SWAP2 PUSH1 0x8 SHL AND OR OR SWAP1 SSTORE PUSH3 0x53E PUSH3 0x3153 JUMP JUMPDEST PUSH1 0x2 DUP2 MSTORE PUSH3 0x54C PUSH3 0x3174 JUMP JUMPDEST PUSH1 0x11 DUP2 MSTORE PUSH17 0x467265656C616E63652053657276696365 PUSH1 0x78 SHL PUSH1 0x20 DUP3 ADD MSTORE PUSH1 0x20 DUP3 ADD MSTORE PUSH3 0x579 PUSH3 0x3194 JUMP JUMPDEST PUSH1 0x38 DUP2 MSTORE PUSH32 0x446576656C6F706D656E742C2064657369676E2C2077726974696E672C206F72 PUSH1 0x20 DUP3 ADD MSTORE PUSH32 0x20616E79206469676974616C2064656C6976657261626C650000000000000000 PUSH1 0x40 DUP3 ADD MSTORE PUSH1 0x40 DUP3 ADD MSTORE PUSH7 0x2386F26FC10000 PUSH1 0x60 DUP3 ADD MSTORE PUSH2 0x150 PUSH1 0x80 DUP3 ADD MSTORE PUSH1 0x2 PUSH1 0xA0 DUP3 ADD MSTORE PUSH1 0x0 PUSH1 0xC0 DUP3 ADD MSTORE PUSH1 0x1 PUSH1 0xE0 DUP3 ADD MSTORE PUSH1 0x1 SLOAD PUSH3 0x606 DUP2 PUSH3 0x31BF JUMP JUMPDEST PUSH1 0x1 SSTORE PUSH1 0x0 MSTORE PUSH1 0x6 PUSH1 0x20 MSTORE PUSH1 0x40 PUSH1 0x0 KECCAK256 SWAP1 DUP1 MLOAD PUSH1 0xC DUP2 LT ISZERO PUSH3 0x1E9D JUMPI PUSH1 0xFF DUP1 NOT DUP5 SLOAD AND SWAP2 AND OR DUP3 SSTORE PUSH1 0x20 DUP2 ADD MLOAD SWAP2 DUP3 MLOAD PUSH1 0x1 DUP1 PUSH1 0x40 SHL SUB DUP2 GT PUSH3 0x1DAD JUMPI PUSH1 0x1 DUP3 ADD SLOAD PUSH1 0x1 DUP2 DUP2 SHR SWAP2 AND DUP1 ISZERO PUSH3 0x2DE1 JUMPI JUMPDEST PUSH1 0x20 DUP3 LT EQ PUSH3 0x1D8C JUMPI PUSH1 0x1F DUP2 GT PUSH3 0x2D95 JUMPI JUMPDEST POP PUSH1 0x20 PUSH1 0x1F DUP3 GT PUSH1 0x1 EQ PUSH3 0x2D22 JUMPI DUP2 SWAP3 SWAP4 SWAP5 PUSH1 0x0 SWAP3 PUSH3 0x2D16 JUMPI JUMPDEST POP POP DUP2 PUSH1 0x1 SHL SWAP2 PUSH1 0x0 NOT SWAP1 PUSH1 0x3 SHL SHR NOT AND OR PUSH1 0x1 DUP3 ADD SSTORE JUMPDEST PUSH1 0x40 DUP3 ADD MLOAD DUP1 MLOAD SWAP1 PUSH1 0x1 PUSH1 0x1 PUSH1 0x40 SHL SUB DUP3 GT PUSH3 0x1DAD JUMPI PUSH1 0x2 DUP4 ADD SLOAD PUSH1 0x1 DUP2 DUP2 SHR SWAP2 AND DUP1 ISZERO PUSH3 0x2D0B JUMPI JUMPDEST PUSH1 0x20 DUP3 LT EQ PUSH3 0x1D8C JUMPI PUSH1 0x1F DUP2 GT PUSH3 0x2CBF JUMPI JUMPDEST POP PUSH1 0x20 SWAP1 PUSH1 0x1F DUP4 GT PUSH1 0x1 EQ PUSH3 0x2C47 JUMPI PUSH1 0x5 SWAP4 SWAP3 SWAP2 PUSH1 0x0 SWAP2 DUP4 PUSH3 0x2C3B JUMPI JUMPDEST POP POP DUP2 PUSH1 0x1 SHL SWAP2 PUSH1 0x0 NOT SWAP1 PUSH1 0x3 SHL SHR NOT AND OR PUSH1 0x2 DUP3 ADD SSTORE JUMPDEST PUSH1 0x60 DUP4 ADD MLOAD PUSH1 0x3 DUP3 ADD SSTORE PUSH1 0x80 DUP4 ADD MLOAD PUSH1 0x4 DUP3 ADD SSTORE ADD SWAP1 PUSH1 0xA0 DUP2 ADD MLOAD SWAP1 PUSH3 0x73E DUP3 PUSH3 0x31B4 JUMP JUMPDEST PUSH3 0x749 DUP3 PUSH3 0x31B4 JUMP JUMPDEST PUSH2 0xFF00 DUP4 SLOAD PUSH1 0xFF PUSH3 0xFF0000 PUSH1 0xE0 PUSH1 0xC0 DUP7 ADD MLOAD SWAP6 PUSH3 0x767 DUP8 PUSH3 0x31B4 JUMP JUMPDEST PUSH3 0x772 DUP8 PUSH3 0x31B4 JUMP JUMPDEST ADD MLOAD ISZERO ISZERO PUSH1 0x10 SHL AND SWAP5 AND SWAP1 PUSH3 0xFFFFFF NOT AND OR SWAP2 PUSH1 0x8 SHL AND OR OR SWAP1 SSTORE PUSH3 0x797 PUSH3 0x3153 JUMP JUMPDEST PUSH1 0x3 DUP2 MSTORE PUSH3 0x7A5 PUSH3 0x3174 JUMP JUMPDEST PUSH1 0xC DUP2 MSTORE PUSH12 0x4E4654204F54432053616C65 PUSH1 0xA0 SHL PUSH1 0x20 DUP3 ADD MSTORE PUSH1 0x20 DUP3 ADD MSTORE PUSH3 0x7CD PUSH3 0x3194 JUMP JUMPDEST PUSH1 0x39 DUP2 MSTORE PUSH32 0x50726976617465204F54432073616C65206F6620616E204E4654206F75747369 PUSH1 0x20 DUP3 ADD MSTORE PUSH32 0x6465206F66207075626C6963206D61726B6574706C6163657300000000000000 PUSH1 0x40 DUP3 ADD MSTORE PUSH1 0x40 DUP3 ADD MSTORE PUSH7 0xB1A2BC2EC50000 PUSH1 0x60 DUP3 ADD MSTORE PUSH1 0x30 PUSH1 0x80 DUP3 ADD MSTORE PUSH1 0x2 PUSH1 0xA0 DUP3 ADD MSTORE PUSH1 0x1 PUSH1 0xC0 DUP3 ADD MSTORE PUSH1 0x1 PUSH1 0xE0 DUP3 ADD MSTORE PUSH1 0x1 SLOAD PUSH3 0x859 DUP2 PUSH3 0x31BF JUMP JUMPDEST PUSH1 0x1 SSTORE PUSH1 0x0 MSTORE PUSH1 0x6 PUSH1 0x20 MSTORE PUSH1 0x40 PUSH1 0x0 KECCAK256 SWAP1 DUP1 MLOAD PUSH1 0xC DUP2 LT ISZERO PUSH3 0x1E9D JUMPI PUSH1 0xFF DUP1 NOT DUP5 SLOAD AND SWAP2 AND OR DUP3 SSTORE PUSH1 0x20 DUP2 ADD MLOAD SWAP2 DUP3 MLOAD PUSH1 0x1 DUP1 PUSH1 0x40 SHL SUB DUP2 GT PUSH3 0x1DAD JUMPI PUSH1 0x1 DUP3 ADD SLOAD PUSH1 0x1 DUP2 DUP2 SHR SWAP2 AND DUP1 ISZERO PUSH3 0x2C30 JUMPI JUMPDEST PUSH1 0x20 DUP3 LT EQ PUSH3 0x1D8C JUMPI PUSH1 0x1F DUP2 GT PUSH3 0x2BE4 JUMPI JUMPDEST POP PUSH1 0x20 PUSH1 0x1F DUP3 GT PUSH1 0x1 EQ PUSH3 0x2B71 JUMPI DUP2 SWAP3 SWAP4 SWAP5 PUSH1 0x0 SWAP3 PUSH3 0x2B65 JUMPI JUMPDEST POP POP DUP2 PUSH1 0x1 SHL SWAP2 PUSH1 0x0 NOT SWAP1 PUSH1 0x3 SHL SHR NOT AND OR PUSH1 0x1 DUP3 ADD SSTORE JUMPDEST PUSH1 0x40 DUP3 ADD MLOAD DUP1 MLOAD SWAP1 PUSH1 0x1 PUSH1 0x1 PUSH1 0x40 SHL SUB DUP3 GT PUSH3 0x1DAD JUMPI PUSH1 0x2 DUP4 ADD SLOAD PUSH1 0x1 DUP2 DUP2 SHR SWAP2 AND DUP1 ISZERO PUSH3 0x2B5A JUMPI JUMPDEST PUSH1 0x20 DUP3 LT EQ PUSH3 0x1D8C JUMPI PUSH1 0x1F DUP2 GT PUSH3 0x2B0E JUMPI JUMPDEST POP PUSH1 0x20 SWAP1 PUSH1 0x1F DUP4 GT PUSH1 0x1 EQ PUSH3 0x2A96 JUMPI PUSH1 0x5 SWAP4 SWAP3 SWAP2 PUSH1 0x0 SWAP2 DUP4 PUSH3 0x2A8A JUMPI JUMPDEST POP POP DUP2 PUSH1 0x1 SHL SWAP2 PUSH1 0x0 NOT SWAP1 PUSH1 0x3 SHL SHR NOT AND OR PUSH1 0x2 DUP3 ADD SSTORE JUMPDEST PUSH1 0x60 DUP4 ADD MLOAD PUSH1 0x3 DUP3 ADD SSTORE PUSH1 0x80 DUP4 ADD MLOAD PUSH1 0x4 DUP3 ADD SSTORE ADD SWAP1 PUSH1 0xA0 DUP2 ADD MLOAD SWAP1 PUSH3 0x991 DUP3 PUSH3 0x31B4 JUMP JUMPDEST PUSH3 0x99C DUP3 PUSH3 0x31B4 JUMP JUMPDEST PUSH2 0xFF00 DUP4 SLOAD PUSH1 0xFF PUSH3 0xFF0000 PUSH1 0xE0 PUSH1 0xC0 DUP7 ADD MLOAD SWAP6 PUSH3 0x9BA DUP8 PUSH3 0x31B4 JUMP JUMPDEST PUSH3 0x9C5 DUP8 PUSH3 0x31B4 JUMP JUMPDEST ADD MLOAD ISZERO ISZERO PUSH1 0x10 SHL AND SWAP5 AND SWAP1 PUSH3 0xFFFFFF NOT AND OR SWAP2 PUSH1 0x8 SHL AND OR OR SWAP1 SSTORE PUSH3 0x9EA PUSH3 0x3153 JUMP JUMPDEST PUSH1 0x4 DUP2 MSTORE PUSH3 0x9F8 PUSH3 0x3174 JUMP JUMPDEST PUSH1 0x12 DUP2 MSTORE PUSH18 0x1391950815DA1A5D195B1A5CDD0814DC1BDD PUSH1 0x72 SHL PUSH1 0x20 DUP3 ADD MSTORE PUSH1 0x20 DUP3 ADD MSTORE PUSH3 0xA26 PUSH3 0x3194 JUMP JUMPDEST PUSH1 0x39 DUP2 MSTORE PUSH32 0x5472616E73666572206F66204E4654206D696E742077686974656C697374206F PUSH1 0x20 DUP3 ADD MSTORE PUSH32 0x7220616C6C6F776C6973742073706F7420746F20627579657200000000000000 PUSH1 0x40 DUP3 ADD MSTORE PUSH1 0x40 DUP3 ADD MSTORE PUSH7 0x470DE4DF820000 PUSH1 0x60 DUP3 ADD MSTORE PUSH2 0x2D0 PUSH1 0x80 DUP3 ADD MSTORE PUSH1 0x2 PUSH1 0xA0 DUP3 ADD MSTORE PUSH1 0x3 PUSH1 0xC0 DUP3 ADD MSTORE PUSH1 0x1 PUSH1 0xE0 DUP3 ADD MSTORE PUSH1 0x1 SLOAD PUSH3 0xAB3 DUP2 PUSH3 0x31BF JUMP JUMPDEST PUSH1 0x1 SSTORE PUSH1 0x0 MSTORE PUSH1 0x6 PUSH1 0x20 MSTORE PUSH1 0x40 PUSH1 0x0 KECCAK256 SWAP1 DUP1 MLOAD PUSH1 0xC DUP2 LT ISZERO PUSH3 0x1E9D JUMPI PUSH1 0xFF DUP1 NOT DUP5 SLOAD AND SWAP2 AND OR DUP3 SSTORE PUSH1 0x20 DUP2 ADD MLOAD SWAP2 DUP3 MLOAD PUSH1 0x1 DUP1 PUSH1 0x40 SHL SUB DUP2 GT PUSH3 0x1DAD JUMPI PUSH1 0x1 DUP3 ADD SLOAD PUSH1 0x1 DUP2 DUP2 SHR SWAP2 AND DUP1 ISZERO PUSH3 0x2A7F JUMPI JUMPDEST PUSH1 0x20 DUP3 LT EQ PUSH3 0x1D8C JUMPI PUSH1 0x1F DUP2 GT PUSH3 0x2A33 JUMPI JUMPDEST POP PUSH1 0x20 PUSH1 0x1F DUP3 GT PUSH1 0x1 EQ PUSH3 0x29C0 JUMPI DUP2 SWAP3 SWAP4 SWAP5 PUSH1 0x0 SWAP3 PUSH3 0x29B4 JUMPI JUMPDEST POP POP DUP2 PUSH1 0x1 SHL SWAP2 PUSH1 0x0 NOT SWAP1 PUSH1 0x3 SHL SHR NOT AND OR PUSH1 0x1 DUP3 ADD SSTORE JUMPDEST PUSH1 0x40 DUP3 ADD MLOAD DUP1 MLOAD SWAP1 PUSH1 0x1 PUSH1 0x1 PUSH1 0x40 SHL SUB DUP3 GT PUSH3 0x1DAD JUMPI PUSH1 0x2 DUP4 ADD SLOAD PUSH1 0x1 DUP2 DUP2 SHR SWAP2 AND DUP1 ISZERO PUSH3 0x29A9 JUMPI JUMPDEST PUSH1 0x20 DUP3 LT EQ PUSH3 0x1D8C JUMPI PUSH1 0x1F DUP2 GT PUSH3 0x295D JUMPI JUMPDEST POP PUSH1 0x20 SWAP1 PUSH1 0x1F DUP4 GT PUSH1 0x1 EQ PUSH3 0x28E5 JUMPI PUSH1 0x5 SWAP4 SWAP3 SWAP2 PUSH1 0x0 SWAP2 DUP4 PUSH3 0x28D9 JUMPI JUMPDEST POP POP DUP2 PUSH1 0x1 SHL SWAP2 PUSH1 0x0 NOT SWAP1 PUSH1 0x3 SHL SHR NOT AND OR PUSH1 0x2 DUP3 ADD SSTORE JUMPDEST PUSH1 0x60 DUP4 ADD MLOAD PUSH1 0x3 DUP3 ADD SSTORE PUSH1 0x80 DUP4 ADD MLOAD PUSH1 0x4 DUP3 ADD SSTORE ADD SWAP1 PUSH1 0xA0 DUP2 ADD MLOAD SWAP1 PUSH3 0xBEB DUP3 PUSH3 0x31B4 JUMP JUMPDEST PUSH3 0xBF6 DUP3 PUSH3 0x31B4 JUMP JUMPDEST PUSH2 0xFF00 DUP4 SLOAD PUSH1 0xFF PUSH3 0xFF0000 PUSH1 0xE0 PUSH1 0xC0 DUP7 ADD MLOAD SWAP6 PUSH3 0xC14 DUP8 PUSH3 0x31B4 JUMP JUMPDEST PUSH3 0xC1F DUP8 PUSH3 0x31B4 JUMP JUMPDEST ADD MLOAD ISZERO ISZERO PUSH1 0x10 SHL AND SWAP5 AND SWAP1 PUSH3 0xFFFFFF NOT AND OR SWAP2 PUSH1 0x8 SHL AND OR OR SWAP1 SSTORE PUSH3 0xC44 PUSH3 0x3153 JUMP JUMPDEST PUSH1 0x5 DUP2 MSTORE PUSH3 0xC52 PUSH3 0x3174 JUMP JUMPDEST PUSH1 0x12 DUP2 MSTORE PUSH18 0x20B4B9323937B81020B63637B1B0BA34B7B7 PUSH1 0x71 SHL PUSH1 0x20 DUP3 ADD MSTORE PUSH1 0x20 DUP3 ADD MSTORE PUSH3 0xC80 PUSH3 0x3194 JUMP JUMPDEST PUSH1 0x38 DUP2 MSTORE PUSH32 0x5472616E73666572206F6620636F6E6669726D65642061697264726F7020616C PUSH1 0x20 DUP3 ADD MSTORE PUSH32 0x6C6F636174696F6E20746F2062757965722077616C6C65740000000000000000 PUSH1 0x40 DUP3 ADD MSTORE PUSH1 0x40 DUP3 ADD MSTORE PUSH7 0x2386F26FC10000 PUSH1 0x60 DUP3 ADD MSTORE PUSH1 0xA8 PUSH1 0x80 DUP3 ADD MSTORE PUSH1 0x2 PUSH1 0xA0 DUP3 ADD MSTORE PUSH1 0x3 PUSH1 0xC0 DUP3 ADD MSTORE PUSH1 0x1 PUSH1 0xE0 DUP3 ADD MSTORE PUSH1 0x1 SLOAD PUSH3 0xD0C DUP2 PUSH3 0x31BF JUMP JUMPDEST PUSH1 0x1 SSTORE PUSH1 0x0 MSTORE PUSH1 0x6 PUSH1 0x20 MSTORE PUSH1 0x40 PUSH1 0x0 KECCAK256 SWAP1 DUP1 MLOAD PUSH1 0xC DUP2 LT ISZERO PUSH3 0x1E9D JUMPI PUSH1 0xFF DUP1 NOT DUP5 SLOAD AND SWAP2 AND OR DUP3 SSTORE PUSH1 0x20 DUP2 ADD MLOAD SWAP2 DUP3 MLOAD PUSH1 0x1 DUP1 PUSH1 0x40 SHL SUB DUP2 GT PUSH3 0x1DAD JUMPI PUSH1 0x1 DUP3 ADD SLOAD PUSH1 0x1 DUP2 DUP2 SHR SWAP2 AND DUP1 ISZERO PUSH3 0x28CE JUMPI JUMPDEST PUSH1 0x20 DUP3 LT EQ PUSH3 0x1D8C JUMPI PUSH1 0x1F DUP2 GT PUSH3 0x2882 JUMPI JUMPDEST POP PUSH1 0x20 PUSH1 0x1F DUP3 GT PUSH1 0x1 EQ PUSH3 0x280F JUMPI DUP2 SWAP3 SWAP4 SWAP5 PUSH1 0x0 SWAP3 PUSH3 0x2803 JUMPI JUMPDEST POP POP DUP2 PUSH1 0x1 SHL SWAP2 PUSH1 0x0 NOT SWAP1 PUSH1 0x3 SHL SHR NOT AND OR PUSH1 0x1 DUP3 ADD SSTORE JUMPDEST PUSH1 0x40 DUP3 ADD MLOAD DUP1 MLOAD SWAP1 PUSH1 0x1 PUSH1 0x1 PUSH1 0x40 SHL SUB DUP3 GT PUSH3 0x1DAD JUMPI PUSH1 0x2 DUP4 ADD SLOAD PUSH1 0x1 DUP2 DUP2 SHR SWAP2 AND DUP1 ISZERO PUSH3 0x27F8 JUMPI JUMPDEST PUSH1 0x20 DUP3 LT EQ PUSH3 0x1D8C JUMPI PUSH1 0x1F DUP2 GT PUSH3 0x27AC JUMPI JUMPDEST POP PUSH1 0x20 SWAP1 PUSH1 0x1F DUP4 GT PUSH1 0x1 EQ PUSH3 0x2734 JUMPI PUSH1 0x5 SWAP4 SWAP3 SWAP2 PUSH1 0x0 SWAP2 DUP4 PUSH3 0x2728 JUMPI JUMPDEST POP POP DUP2 PUSH1 0x1 SHL SWAP2 PUSH1 0x0 NOT SWAP1 PUSH1 0x3 SHL SHR NOT AND OR PUSH1 0x2 DUP3 ADD SSTORE JUMPDEST PUSH1 0x60 DUP4 ADD MLOAD PUSH1 0x3 DUP3 ADD SSTORE PUSH1 0x80 DUP4 ADD MLOAD PUSH1 0x4 DUP3 ADD SSTORE ADD SWAP1 PUSH1 0xA0 DUP2 ADD MLOAD SWAP1 PUSH3 0xE44 DUP3 PUSH3 0x31B4 JUMP JUMPDEST PUSH3 0xE4F DUP3 PUSH3 0x31B4 JUMP JUMPDEST PUSH2 0xFF00 DUP4 SLOAD PUSH1 0xFF PUSH3 0xFF0000 PUSH1 0xE0 PUSH1 0xC0 DUP7 ADD MLOAD SWAP6 PUSH3 0xE6D DUP8 PUSH3 0x31B4 JUMP JUMPDEST PUSH3 0xE78 DUP8 PUSH3 0x31B4 JUMP JUMPDEST ADD MLOAD ISZERO ISZERO PUSH1 0x10 SHL AND SWAP5 AND SWAP1 PUSH3 0xFFFFFF NOT AND OR SWAP2 PUSH1 0x8 SHL AND OR OR SWAP1 SSTORE PUSH3 0xE9D PUSH3 0x3153 JUMP JUMPDEST PUSH1 0x6 DUP2 MSTORE PUSH3 0xEAB PUSH3 0x3174 JUMP JUMPDEST PUSH1 0x14 DUP2 MSTORE PUSH32 0x546F6B656E20416C6C6F636174696F6E204F5443000000000000000000000000 PUSH1 0x20 DUP3 ADD MSTORE PUSH1 0x20 DUP3 ADD MSTORE PUSH3 0xEE4 PUSH3 0x3194 JUMP JUMPDEST PUSH1 0x38 DUP2 MSTORE PUSH32 0x5072697661746520726F756E64206F72204B4F4C20616C6C6F636174696F6E20 PUSH1 0x20 DUP3 ADD MSTORE PUSH32 0x736F6C64206174206E65676F7469617465642070726963650000000000000000 PUSH1 0x40 DUP3 ADD MSTORE PUSH1 0x40 DUP3 ADD MSTORE PUSH8 0x16345785D8A0000 PUSH1 0x60 DUP3 ADD MSTORE PUSH2 0x2D0 PUSH1 0x80 DUP3 ADD MSTORE PUSH1 0x3 PUSH1 0xA0 DUP3 ADD MSTORE PUSH1 0x1 PUSH1 0xC0 DUP3 ADD MSTORE PUSH1 0x1 PUSH1 0xE0 DUP3 ADD MSTORE PUSH1 0x1 SLOAD PUSH3 0xF72 DUP2 PUSH3 0x31BF JUMP JUMPDEST PUSH1 0x1 SSTORE PUSH1 0x0 MSTORE PUSH1 0x6 PUSH1 0x20 MSTORE PUSH1 0x40 PUSH1 0x0 KECCAK256 SWAP1 DUP1 MLOAD PUSH1 0xC DUP2 LT ISZERO PUSH3 0x1E9D JUMPI PUSH1 0xFF DUP1 NOT DUP5 SLOAD AND SWAP2 AND OR DUP3 SSTORE PUSH1 0x20 DUP2 ADD MLOAD SWAP2 DUP3 MLOAD PUSH1 0x1 DUP1 PUSH1 0x40 SHL SUB DUP2 GT PUSH3 0x1DAD JUMPI PUSH1 0x1 DUP3 ADD SLOAD PUSH1 0x1 DUP2 DUP2 SHR SWAP2 AND DUP1 ISZERO PUSH3 0x271D JUMPI JUMPDEST PUSH1 0x20 DUP3 LT EQ PUSH3 0x1D8C JUMPI PUSH1 0x1F DUP2 GT PUSH3 0x26D1 JUMPI JUMPDEST POP PUSH1 0x20 PUSH1 0x1F DUP3 GT PUSH1 0x1 EQ PUSH3 0x265E JUMPI DUP2 SWAP3 SWAP4 SWAP5 PUSH1 0x0 SWAP3 PUSH3 0x2652 JUMPI JUMPDEST POP POP DUP2 PUSH1 0x1 SHL SWAP2 PUSH1 0x0 NOT SWAP1 PUSH1 0x3 SHL SHR NOT AND OR PUSH1 0x1 DUP3 ADD SSTORE JUMPDEST PUSH1 0x40 DUP3 ADD MLOAD DUP1 MLOAD SWAP1 PUSH1 0x1 PUSH1 0x1 PUSH1 0x40 SHL SUB DUP3 GT PUSH3 0x1DAD JUMPI PUSH1 0x2 DUP4 ADD SLOAD PUSH1 0x1 DUP2 DUP2 SHR SWAP2 AND DUP1 ISZERO PUSH3 0x2647 JUMPI JUMPDEST PUSH1 0x20 DUP3 LT EQ PUSH3 0x1D8C JUMPI PUSH1 0x1F DUP2 GT PUSH3 0x25FB JUMPI JUMPDEST POP PUSH1 0x20 SWAP1 PUSH1 0x1F DUP4 GT PUSH1 0x1 EQ PUSH3 0x2583 JUMPI PUSH1 0x5 SWAP4 SWAP3 SWAP2 PUSH1 0x0 SWAP2 DUP4 PUSH3 0x2577 JUMPI JUMPDEST POP POP DUP2 PUSH1 0x1 SHL SWAP2 PUSH1 0x0 NOT SWAP1 PUSH1 0x3 SHL SHR NOT AND OR PUSH1 0x2 DUP3 ADD SSTORE JUMPDEST PUSH1 0x60 DUP4 ADD MLOAD PUSH1 0x3 DUP3 ADD SSTORE PUSH1 0x80 DUP4 ADD MLOAD PUSH1 0x4 DUP3 ADD SSTORE ADD SWAP1 PUSH1 0xA0 DUP2 ADD MLOAD SWAP1 PUSH3 0x10AA DUP3 PUSH3 0x31B4 JUMP JUMPDEST PUSH3 0x10B5 DUP3 PUSH3 0x31B4 JUMP JUMPDEST PUSH2 0xFF00 DUP4 SLOAD PUSH1 0xFF PUSH3 0xFF0000 PUSH1 0xE0 PUSH1 0xC0 DUP7 ADD MLOAD SWAP6 PUSH3 0x10D3 DUP8 PUSH3 0x31B4 JUMP JUMPDEST PUSH3 0x10DE DUP8 PUSH3 0x31B4 JUMP JUMPDEST ADD MLOAD ISZERO ISZERO PUSH1 0x10 SHL AND SWAP5 AND SWAP1 PUSH3 0xFFFFFF NOT AND OR SWAP2 PUSH1 0x8 SHL AND OR OR SWAP1 SSTORE PUSH3 0x1103 PUSH3 0x3153 JUMP JUMPDEST PUSH1 0x7 DUP2 MSTORE PUSH3 0x1111 PUSH3 0x3174 JUMP JUMPDEST PUSH1 0x15 DUP2 MSTORE PUSH32 0x5072652D4D61726B657420546F6B656E204465616C0000000000000000000000 PUSH1 0x20 DUP3 ADD MSTORE PUSH1 0x20 DUP3 ADD MSTORE PUSH3 0x114A PUSH3 0x3194 JUMP JUMPDEST PUSH1 0x38 DUP2 MSTORE PUSH32 0x42757920746F6B656E73206174207072652D5447452070726963652077697468 PUSH1 0x20 DUP3 ADD MSTORE PUSH32 0x2064656C6976657279206F6E206C61756E636820646174650000000000000000 PUSH1 0x40 DUP3 ADD MSTORE PUSH1 0x40 DUP3 ADD MSTORE PUSH7 0xB1A2BC2EC50000 PUSH1 0x60 DUP3 ADD MSTORE PUSH2 0x870 PUSH1 0x80 DUP3 ADD MSTORE PUSH1 0x3 PUSH1 0xA0 DUP3 ADD MSTORE PUSH1 0x1 PUSH1 0xC0 DUP3 ADD MSTORE PUSH1 0x1 PUSH1 0xE0 DUP3 ADD MSTORE PUSH1 0x1 SLOAD PUSH3 0x11D7 DUP2 PUSH3 0x31BF JUMP JUMPDEST PUSH1 0x1 SSTORE PUSH1 0x0 MSTORE PUSH1 0x6 PUSH1 0x20 MSTORE PUSH1 0x40 PUSH1 0x0 KECCAK256 SWAP1 DUP1 MLOAD PUSH1 0xC DUP2 LT ISZERO PUSH3 0x1E9D JUMPI PUSH1 0xFF DUP1 NOT DUP5 SLOAD AND SWAP2 AND OR DUP3 SSTORE PUSH1 0x20 DUP2 ADD MLOAD SWAP2 DUP3 MLOAD PUSH1 0x1 DUP1 PUSH1 0x40 SHL SUB DUP2 GT PUSH3 0x1DAD JUMPI PUSH1 0x1 DUP3 ADD SLOAD PUSH1 0x1 DUP2 DUP2 SHR SWAP2 AND DUP1 ISZERO PUSH3 0x256C JUMPI JUMPDEST PUSH1 0x20 DUP3 LT EQ PUSH3 0x1D8C JUMPI PUSH1 0x1F DUP2 GT PUSH3 0x2520 JUMPI JUMPDEST POP PUSH1 0x20 PUSH1 0x1F DUP3 GT PUSH1 0x1 EQ PUSH3 0x24AD JUMPI DUP2 SWAP3 SWAP4 SWAP5 PUSH1 0x0 SWAP3 PUSH3 0x24A1 JUMPI JUMPDEST POP POP DUP2 PUSH1 0x1 SHL SWAP2 PUSH1 0x0 NOT SWAP1 PUSH1 0x3 SHL SHR NOT AND OR PUSH1 0x1 DUP3 ADD SSTORE JUMPDEST PUSH1 0x40 DUP3 ADD MLOAD DUP1 MLOAD SWAP1 PUSH1 0x1 PUSH1 0x1 PUSH1 0x40 SHL SUB DUP3 GT PUSH3 0x1DAD JUMPI PUSH1 0x2 DUP4 ADD SLOAD PUSH1 0x1 DUP2 DUP2 SHR SWAP2 AND DUP1 ISZERO PUSH3 0x2496 JUMPI JUMPDEST PUSH1 0x20 DUP3 LT EQ PUSH3 0x1D8C JUMPI PUSH1 0x1F DUP2 GT PUSH3 0x244A JUMPI JUMPDEST POP PUSH1 0x20 SWAP1 PUSH1 0x1F DUP4 GT PUSH1 0x1 EQ PUSH3 0x23D2 JUMPI PUSH1 0x5 SWAP4 SWAP3 SWAP2 PUSH1 0x0 SWAP2 DUP4 PUSH3 0x23C6 JUMPI JUMPDEST POP POP DUP2 PUSH1 0x1 SHL SWAP2 PUSH1 0x0 NOT SWAP1 PUSH1 0x3 SHL SHR NOT AND OR PUSH1 0x2 DUP3 ADD SSTORE JUMPDEST PUSH1 0x60 DUP4 ADD MLOAD PUSH1 0x3 DUP3 ADD SSTORE PUSH1 0x80 DUP4 ADD MLOAD PUSH1 0x4 DUP3 ADD SSTORE ADD SWAP1 PUSH1 0xA0 DUP2 ADD MLOAD SWAP1 PUSH3 0x130F DUP3 PUSH3 0x31B4 JUMP JUMPDEST PUSH3 0x131A DUP3 PUSH3 0x31B4 JUMP JUMPDEST PUSH2 0xFF00 DUP4 SLOAD PUSH1 0xFF PUSH3 0xFF0000 PUSH1 0xE0 PUSH1 0xC0 DUP7 ADD MLOAD SWAP6 PUSH3 0x1338 DUP8 PUSH3 0x31B4 JUMP JUMPDEST PUSH3 0x1343 DUP8 PUSH3 0x31B4 JUMP JUMPDEST ADD MLOAD ISZERO ISZERO PUSH1 0x10 SHL AND SWAP5 AND SWAP1 PUSH3 0xFFFFFF NOT AND OR SWAP2 PUSH1 0x8 SHL AND OR OR SWAP1 SSTORE PUSH3 0x1368 PUSH3 0x3153 JUMP JUMPDEST PUSH1 0x8 DUP2 MSTORE PUSH3 0x1376 PUSH3 0x3174 JUMP JUMPDEST PUSH1 0x17 DUP2 MSTORE PUSH32 0x4D61726B6574696E6720616E642050726F6D6F74696F6E000000000000000000 PUSH1 0x20 DUP3 ADD MSTORE PUSH1 0x20 DUP3 ADD MSTORE PUSH3 0x13AF PUSH3 0x3194 JUMP JUMPDEST PUSH1 0x3A DUP2 MSTORE PUSH32 0x4261636B6C696E6B732C206E6577736C65747465722066656174757265732C20 PUSH1 0x20 DUP3 ADD MSTORE PUSH32 0x706F6463617374206D656E74696F6E732C206C697374696E6773000000000000 PUSH1 0x40 DUP3 ADD MSTORE PUSH1 0x40 DUP3 ADD MSTORE PUSH7 0x2386F26FC10000 PUSH1 0x60 DUP3 ADD MSTORE PUSH1 0xA8 PUSH1 0x80 DUP3 ADD MSTORE PUSH1 0x1 PUSH1 0xA0 DUP3 ADD MSTORE PUSH1 0x0 PUSH1 0xC0 DUP3 ADD MSTORE PUSH1 0x1 PUSH1 0xE0 DUP3 ADD MSTORE PUSH1 0x1 SLOAD PUSH3 0x143B DUP2 PUSH3 0x31BF JUMP JUMPDEST PUSH1 0x1 SSTORE PUSH1 0x0 MSTORE PUSH1 0x6 PUSH1 0x20 MSTORE PUSH1 0x40 PUSH1 0x0 KECCAK256 SWAP1 DUP1 MLOAD PUSH1 0xC DUP2 LT ISZERO PUSH3 0x1E9D JUMPI PUSH1 0xFF DUP1 NOT DUP5 SLOAD AND SWAP2 AND OR DUP3 SSTORE PUSH1 0x20 DUP2 ADD MLOAD SWAP2 DUP3 MLOAD PUSH1 0x1 DUP1 PUSH1 0x40 SHL SUB DUP2 GT PUSH3 0x1DAD JUMPI PUSH1 0x1 DUP3 ADD SLOAD PUSH1 0x1 DUP2 DUP2 SHR SWAP2 AND DUP1 ISZERO PUSH3 0x23BB JUMPI JUMPDEST PUSH1 0x20 DUP3 LT EQ PUSH3 0x1D8C JUMPI PUSH1 0x1F DUP2 GT PUSH3 0x236F JUMPI JUMPDEST POP PUSH1 0x20 PUSH1 0x1F DUP3 GT PUSH1 0x1 EQ PUSH3 0x22FC JUMPI DUP2 SWAP3 SWAP4 SWAP5 PUSH1 0x0 SWAP3 PUSH3 0x22F0 JUMPI JUMPDEST POP POP DUP2 PUSH1 0x1 SHL SWAP2 PUSH1 0x0 NOT SWAP1 PUSH1 0x3 SHL SHR NOT AND OR PUSH1 0x1 DUP3 ADD SSTORE JUMPDEST PUSH1 0x40 DUP3 ADD MLOAD DUP1 MLOAD SWAP1 PUSH1 0x1 PUSH1 0x1 PUSH1 0x40 SHL SUB DUP3 GT PUSH3 0x1DAD JUMPI PUSH1 0x2 DUP4 ADD SLOAD PUSH1 0x1 DUP2 DUP2 SHR SWAP2 AND DUP1 ISZERO PUSH3 0x22E5 JUMPI JUMPDEST PUSH1 0x20 DUP3 LT EQ PUSH3 0x1D8C JUMPI PUSH1 0x1F DUP2 GT PUSH3 0x2299 JUMPI JUMPDEST POP PUSH1 0x20 SWAP1 PUSH1 0x1F DUP4 GT PUSH1 0x1 EQ PUSH3 0x2221 JUMPI PUSH1 0x5 SWAP4 SWAP3 SWAP2 PUSH1 0x0 SWAP2 DUP4 PUSH3 0x2215 JUMPI JUMPDEST POP POP DUP2 PUSH1 0x1 SHL SWAP2 PUSH1 0x0 NOT SWAP1 PUSH1 0x3 SHL SHR NOT AND OR PUSH1 0x2 DUP3 ADD SSTORE JUMPDEST PUSH1 0x60 DUP4 ADD MLOAD PUSH1 0x3 DUP3 ADD SSTORE PUSH1 0x80 DUP4 ADD MLOAD PUSH1 0x4 DUP3 ADD SSTORE ADD SWAP1 PUSH1 0xA0 DUP2 ADD MLOAD SWAP1 PUSH3 0x1573 DUP3 PUSH3 0x31B4 JUMP JUMPDEST PUSH3 0x157E DUP3 PUSH3 0x31B4 JUMP JUMPDEST PUSH2 0xFF00 DUP4 SLOAD PUSH1 0xFF PUSH3 0xFF0000 PUSH1 0xE0 PUSH1 0xC0 DUP7 ADD MLOAD SWAP6 PUSH3 0x159C DUP8 PUSH3 0x31B4 JUMP JUMPDEST PUSH3 0x15A7 DUP8 PUSH3 0x31B4 JUMP JUMPDEST ADD MLOAD ISZERO ISZERO PUSH1 0x10 SHL AND SWAP5 AND SWAP1 PUSH3 0xFFFFFF NOT AND OR SWAP2 PUSH1 0x8 SHL AND OR OR SWAP1 SSTORE PUSH3 0x15CC PUSH3 0x3153 JUMP JUMPDEST PUSH1 0x9 DUP2 MSTORE PUSH3 0x15DA PUSH3 0x3174 JUMP JUMPDEST PUSH1 0xA DUP2 MSTORE PUSH10 0x42756720426F756E7479 PUSH1 0xB0 SHL PUSH1 0x20 DUP3 ADD MSTORE PUSH1 0x20 DUP3 ADD MSTORE PUSH3 0x1600 PUSH3 0x3194 JUMP JUMPDEST PUSH1 0x32 DUP2 MSTORE PUSH32 0x5265706F727420616E64207665726966792062756773206F7220736563757269 PUSH1 0x20 DUP3 ADD MSTORE PUSH18 0x74792076756C6E65726162696C6974696573 PUSH1 0x70 SHL PUSH1 0x40 DUP3 ADD MSTORE PUSH1 0x40 DUP3 ADD MSTORE PUSH7 0x470DE4DF820000 PUSH1 0x60 DUP3 ADD MSTORE PUSH1 0x48 PUSH1 0x80 DUP3 ADD MSTORE PUSH1 0x0 PUSH1 0xA0 DUP3 ADD MSTORE PUSH1 0x0 PUSH1 0xC0 DUP3 ADD MSTORE PUSH1 0x1 PUSH1 0xE0 DUP3 ADD MSTORE PUSH1 0x1 SLOAD PUSH3 0x1681 DUP2 PUSH3 0x31BF JUMP JUMPDEST PUSH1 0x1 SSTORE PUSH1 0x0 MSTORE PUSH1 0x6 PUSH1 0x20 MSTORE PUSH1 0x40 PUSH1 0x0 KECCAK256 SWAP1 DUP1 MLOAD PUSH1 0xC DUP2 LT ISZERO PUSH3 0x1E9D JUMPI PUSH1 0xFF DUP1 NOT DUP5 SLOAD AND SWAP2 AND OR DUP3 SSTORE PUSH1 0x20 DUP2 ADD MLOAD SWAP2 DUP3 MLOAD PUSH1 0x1 DUP1 PUSH1 0x40 SHL SUB DUP2 GT PUSH3 0x1DAD JUMPI PUSH1 0x1 DUP3 ADD SLOAD PUSH1 0x1 DUP2 DUP2 SHR SWAP2 AND DUP1 ISZERO PUSH3 0x220A JUMPI JUMPDEST PUSH1 0x20 DUP3 LT EQ PUSH3 0x1D8C JUMPI PUSH1 0x1F DUP2 GT PUSH3 0x21BE JUMPI JUMPDEST POP PUSH1 0x20 PUSH1 0x1F DUP3 GT PUSH1 0x1 EQ PUSH3 0x214B JUMPI DUP2 SWAP3 SWAP4 SWAP5 PUSH1 0x0 SWAP3 PUSH3 0x213F JUMPI JUMPDEST POP POP DUP2 PUSH1 0x1 SHL SWAP2 PUSH1 0x0 NOT SWAP1 PUSH1 0x3 SHL SHR NOT AND OR PUSH1 0x1 DUP3 ADD SSTORE JUMPDEST PUSH1 0x40 DUP3 ADD MLOAD DUP1 MLOAD SWAP1 PUSH1 0x1 PUSH1 0x1 PUSH1 0x40 SHL SUB DUP3 GT PUSH3 0x1DAD JUMPI PUSH1 0x2 DUP4 ADD SLOAD PUSH1 0x1 DUP2 DUP2 SHR SWAP2 AND DUP1 ISZERO PUSH3 0x2134 JUMPI JUMPDEST PUSH1 0x20 DUP3 LT EQ PUSH3 0x1D8C JUMPI PUSH1 0x1F DUP2 GT PUSH3 0x20E8 JUMPI JUMPDEST POP PUSH1 0x20 SWAP1 PUSH1 0x1F DUP4 GT PUSH1 0x1 EQ PUSH3 0x2070 JUMPI PUSH1 0x5 SWAP4 SWAP3 SWAP2 PUSH1 0x0 SWAP2 DUP4 PUSH3 0x2064 JUMPI JUMPDEST POP POP DUP2 PUSH1 0x1 SHL SWAP2 PUSH1 0x0 NOT SWAP1 PUSH1 0x3 SHL SHR NOT AND OR PUSH1 0x2 DUP3 ADD SSTORE JUMPDEST PUSH1 0x60 DUP4 ADD MLOAD PUSH1 0x3 DUP3 ADD SSTORE PUSH1 0x80 DUP4 ADD MLOAD PUSH1 0x4 DUP3 ADD SSTORE ADD SWAP1 PUSH1 0xA0 DUP2 ADD MLOAD SWAP1 PUSH3 0x17B9 DUP3 PUSH3 0x31B4 JUMP JUMPDEST PUSH3 0x17C4 DUP3 PUSH3 0x31B4 JUMP JUMPDEST PUSH2 0xFF00 DUP4 SLOAD PUSH1 0xFF PUSH3 0xFF0000 PUSH1 0xE0 PUSH1 0xC0 DUP7 ADD MLOAD SWAP6 PUSH3 0x17E2 DUP8 PUSH3 0x31B4 JUMP JUMPDEST PUSH3 0x17ED DUP8 PUSH3 0x31B4 JUMP JUMPDEST ADD MLOAD ISZERO ISZERO PUSH1 0x10 SHL AND SWAP5 AND SWAP1 PUSH3 0xFFFFFF NOT AND OR SWAP2 PUSH1 0x8 SHL AND OR OR SWAP1 SSTORE PUSH3 0x1812 PUSH3 0x3153 JUMP JUMPDEST PUSH1 0xA DUP2 MSTORE PUSH3 0x1820 PUSH3 0x3174 JUMP JUMPDEST PUSH1 0xE DUP2 MSTORE PUSH14 0x47656E6572696320457363726F77 PUSH1 0x90 SHL PUSH1 0x20 DUP3 ADD MSTORE PUSH1 0x20 DUP3 ADD MSTORE PUSH3 0x184A PUSH3 0x3194 JUMP JUMPDEST PUSH1 0x31 DUP2 MSTORE PUSH32 0x54776F2D706172747920657363726F7720666F7220616E792061677265656420 PUSH1 0x20 DUP3 ADD MSTORE PUSH17 0x65786368616E6765206F662076616C7565 PUSH1 0x78 SHL PUSH1 0x40 DUP3 ADD MSTORE PUSH1 0x40 DUP3 ADD MSTORE PUSH7 0x2386F26FC10000 PUSH1 0x60 DUP3 ADD MSTORE PUSH1 0xA8 PUSH1 0x80 DUP3 ADD MSTORE PUSH1 0x0 PUSH1 0xA0 DUP3 ADD MSTORE PUSH1 0x2 PUSH1 0xC0 DUP3 ADD MSTORE PUSH1 0x1 PUSH1 0xE0 DUP3 ADD MSTORE PUSH1 0x1 SLOAD PUSH3 0x18CA DUP2 PUSH3 0x31BF JUMP JUMPDEST PUSH1 0x1 SSTORE PUSH1 0x0 MSTORE PUSH1 0x6 PUSH1 0x20 MSTORE PUSH1 0x40 PUSH1 0x0 KECCAK256 SWAP1 DUP1 MLOAD PUSH1 0xC DUP2 LT ISZERO PUSH3 0x1E9D JUMPI PUSH1 0xFF DUP1 NOT DUP5 SLOAD AND SWAP2 AND OR DUP3 SSTORE PUSH1 0x20 DUP2 ADD MLOAD SWAP2 DUP3 MLOAD PUSH1 0x1 DUP1 PUSH1 0x40 SHL SUB DUP2 GT PUSH3 0x1DAD JUMPI PUSH1 0x1 DUP3 ADD SLOAD PUSH1 0x1 DUP2 DUP2 SHR SWAP2 AND DUP1 ISZERO PUSH3 0x2059 JUMPI JUMPDEST PUSH1 0x20 DUP3 LT EQ PUSH3 0x1D8C JUMPI PUSH1 0x1F DUP2 GT PUSH3 0x200D JUMPI JUMPDEST POP PUSH1 0x20 PUSH1 0x1F DUP3 GT PUSH1 0x1 EQ PUSH3 0x1F9A JUMPI DUP2 SWAP3 SWAP4 SWAP5 PUSH1 0x0 SWAP3 PUSH3 0x1F8E JUMPI JUMPDEST POP POP DUP2 PUSH1 0x1 SHL SWAP2 PUSH1 0x0 NOT SWAP1 PUSH1 0x3 SHL SHR NOT AND OR PUSH1 0x1 DUP3 ADD SSTORE JUMPDEST PUSH1 0x40 DUP3 ADD MLOAD DUP1 MLOAD SWAP1 PUSH1 0x1 PUSH1 0x1 PUSH1 0x40 SHL SUB DUP3 GT PUSH3 0x1DAD JUMPI PUSH1 0x2 DUP4 ADD SLOAD PUSH1 0x1 DUP2 DUP2 SHR SWAP2 AND DUP1 ISZERO PUSH3 0x1F83 JUMPI JUMPDEST PUSH1 0x20 DUP3 LT EQ PUSH3 0x1D8C JUMPI PUSH1 0x1F DUP2 GT PUSH3 0x1F37 JUMPI JUMPDEST POP PUSH1 0x20 SWAP1 PUSH1 0x1F DUP4 GT PUSH1 0x1 EQ PUSH3 0x1EBF JUMPI PUSH1 0x5 SWAP4 SWAP3 SWAP2 PUSH1 0x0 SWAP2 DUP4 PUSH3 0x1EB3 JUMPI JUMPDEST POP POP DUP2 PUSH1 0x1 SHL SWAP2 PUSH1 0x0 NOT SWAP1 PUSH1 0x3 SHL SHR NOT AND OR PUSH1 0x2 DUP3 ADD SSTORE JUMPDEST PUSH1 0x60 DUP4 ADD MLOAD PUSH1 0x3 DUP3 ADD SSTORE PUSH1 0x80 DUP4 ADD MLOAD PUSH1 0x4 DUP3 ADD SSTORE ADD SWAP1 PUSH1 0xA0 DUP2 ADD MLOAD SWAP1 PUSH3 0x1A02 DUP3 PUSH3 0x31B4 JUMP JUMPDEST PUSH3 0x1A0D DUP3 PUSH3 0x31B4 JUMP JUMPDEST PUSH2 0xFF00 DUP4 SLOAD PUSH1 0xFF PUSH3 0xFF0000 PUSH1 0xE0 PUSH1 0xC0 DUP7 ADD MLOAD SWAP6 PUSH3 0x1A2B DUP8 PUSH3 0x31B4 JUMP JUMPDEST PUSH3 0x1A36 DUP8 PUSH3 0x31B4 JUMP JUMPDEST ADD MLOAD ISZERO ISZERO PUSH1 0x10 SHL AND SWAP5 AND SWAP1 PUSH3 0xFFFFFF NOT AND OR SWAP2 PUSH1 0x8 SHL AND OR OR SWAP1 SSTORE PUSH3 0x1A5B PUSH3 0x3153 JUMP JUMPDEST PUSH1 0xB DUP2 MSTORE PUSH3 0x1A69 PUSH3 0x3174 JUMP JUMPDEST PUSH1 0x13 DUP2 MSTORE PUSH32 0x436F6E646974696F6E616C205061796D656E7400000000000000000000000000 PUSH1 0x20 DUP3 ADD MSTORE PUSH1 0x20 DUP3 ADD MSTORE PUSH3 0x1AA2 PUSH3 0x3194 JUMP JUMPDEST PUSH1 0x38 DUP2 MSTORE PUSH32 0x506179206F6E6C79206966206120737065636966696320636F6E646974696F6E PUSH1 0x20 DUP3 ADD MSTORE PUSH32 0x206F6E2074686520696E7465726E657420697320747275650000000000000000 PUSH1 0x40 DUP3 ADD MSTORE PUSH1 0x40 DUP3 ADD MSTORE PUSH7 0x11C37937E08000 PUSH1 0x60 DUP3 ADD MSTORE PUSH1 0xA8 PUSH1 0x80 DUP3 ADD MSTORE PUSH1 0x0 PUSH1 0xA0 DUP3 ADD MSTORE PUSH1 0x0 PUSH1 0xC0 DUP3 ADD MSTORE PUSH1 0x1 PUSH1 0xE0 DUP3 ADD MSTORE PUSH1 0x1 SLOAD PUSH3 0x1B2E DUP2 PUSH3 0x31BF JUMP JUMPDEST PUSH1 0x1 SSTORE PUSH1 0x0 MSTORE PUSH1 0x6 PUSH1 0x20 MSTORE PUSH1 0x40 PUSH1 0x0 KECCAK256 DUP2 MLOAD PUSH1 0xC DUP2 LT ISZERO PUSH3 0x1E9D JUMPI PUSH1 0xFF DUP1 NOT DUP4 SLOAD AND SWAP2 AND OR DUP2 SSTORE PUSH1 0x20 DUP3 ADD MLOAD SWAP2 DUP3 MLOAD PUSH1 0x1 DUP1 PUSH1 0x40 SHL SUB DUP2 GT PUSH3 0x1DAD JUMPI PUSH1 0x1 DUP4 ADD SLOAD PUSH1 0x1 DUP2 DUP2 SHR SWAP2 AND DUP1 ISZERO PUSH3 0x1E92 JUMPI JUMPDEST PUSH1 0x20 DUP3 LT EQ PUSH3 0x1D8C JUMPI PUSH1 0x1F DUP2 GT PUSH3 0x1E42 JUMPI JUMPDEST POP PUSH1 0x20 PUSH1 0x1F DUP3 GT PUSH1 0x1 EQ PUSH3 0x1DCF JUMPI DUP2 SWAP3 SWAP4 SWAP5 PUSH1 0x0 SWAP3 PUSH3 0x1DC3 JUMPI JUMPDEST POP POP DUP2 PUSH1 0x1 SHL SWAP2 PUSH1 0x0 NOT SWAP1 PUSH1 0x3 SHL SHR NOT AND OR PUSH1 0x1 DUP4 ADD SSTORE JUMPDEST PUSH1 0x40 DUP2 ADD MLOAD DUP1 MLOAD SWAP1 SWAP3 SWAP1 PUSH1 0x2 DUP3 ADD SWAP1 PUSH1 0x1 PUSH1 0x1 PUSH1 0x40 SHL SUB DUP2 GT PUSH3 0x1DAD JUMPI DUP2 SLOAD PUSH1 0x1 DUP2 DUP2 SHR SWAP2 AND DUP1 ISZERO PUSH3 0x1DA2 JUMPI JUMPDEST PUSH1 0x20 DUP3 LT EQ PUSH3 0x1D8C JUMPI PUSH1 0x1F DUP2 GT PUSH3 0x1D3F JUMPI JUMPDEST POP PUSH1 0x20 PUSH1 0x1F DUP3 GT PUSH1 0x1 EQ PUSH3 0x1CD0 JUMPI DUP2 SWAP1 PUSH1 0x5 SWAP6 SWAP7 PUSH1 0x0 SWAP3 PUSH3 0x1CC4 JUMPI JUMPDEST POP POP DUP2 PUSH1 0x1 SHL SWAP2 PUSH1 0x0 NOT SWAP1 PUSH1 0x3 SHL SHR NOT AND OR SWAP1 SSTORE JUMPDEST PUSH1 0x60 DUP4 ADD MLOAD PUSH1 0x3 DUP3 ADD SSTORE PUSH1 0x80 DUP4 ADD MLOAD PUSH1 0x4 DUP3 ADD SSTORE ADD SWAP1 PUSH1 0xA0 DUP2 ADD MLOAD SWAP1 PUSH3 0x1C65 DUP3 PUSH3 0x31B4 JUMP JUMPDEST PUSH3 0x1C70 DUP3 PUSH3 0x31B4 JUMP JUMPDEST PUSH2 0xFF00 DUP4 SLOAD PUSH1 0xFF PUSH3 0xFF0000 PUSH1 0xE0 PUSH1 0xC0 DUP7 ADD MLOAD SWAP6 PUSH3 0x1C8E DUP8 PUSH3 0x31B4 JUMP JUMPDEST PUSH3 0x1C99 DUP8 PUSH3 0x31B4 JUMP JUMPDEST ADD MLOAD ISZERO ISZERO PUSH1 0x10 SHL AND SWAP5 AND SWAP1 PUSH3 0xFFFFFF NOT AND OR SWAP2 PUSH1 0x8 SHL AND OR OR SWAP1 SSTORE PUSH1 0x40 MLOAD PUSH2 0x3539 SWAP1 DUP2 PUSH3 0x31E6 DUP3 CODECOPY RETURN JUMPDEST ADD MLOAD SWAP1 POP CODESIZE DUP1 PUSH3 0x1C29 JUMP JUMPDEST PUSH1 0x1F NOT DUP3 AND SWAP6 DUP4 PUSH1 0x0 MSTORE PUSH1 0x20 PUSH1 0x0 KECCAK256 SWAP7 PUSH1 0x0 JUMPDEST DUP2 DUP2 LT PUSH3 0x1D26 JUMPI POP SWAP2 PUSH1 0x5 SWAP7 SWAP8 SWAP2 DUP5 PUSH1 0x1 SWAP6 SWAP5 LT PUSH3 0x1D0C JUMPI JUMPDEST POP POP POP DUP2 SHL ADD SWAP1 SSTORE PUSH3 0x1C3E JUMP JUMPDEST ADD MLOAD PUSH1 0x0 NOT PUSH1 0xF8 DUP5 PUSH1 0x3 SHL AND SHR NOT AND SWAP1 SSTORE CODESIZE DUP1 DUP1 PUSH3 0x1CFE JUMP JUMPDEST DUP4 DUP4 ADD MLOAD DUP10 SSTORE PUSH1 0x1 SWAP1 SWAP9 ADD SWAP8 PUSH1 0x20 SWAP4 DUP5 ADD SWAP4 ADD PUSH3 0x1CE3 JUMP JUMPDEST DUP3 PUSH1 0x0 MSTORE PUSH1 0x20 PUSH1 0x0 KECCAK256 PUSH1 0x1F DUP4 ADD PUSH1 0x5 SHR DUP2 ADD SWAP2 PUSH1 0x20 DUP5 LT PUSH3 0x1D81 JUMPI JUMPDEST PUSH1 0x1F ADD PUSH1 0x5 SHR ADD SWAP1 JUMPDEST DUP2 DUP2 LT PUSH3 0x1D74 JUMPI POP PUSH3 0x1C0B JUMP JUMPDEST PUSH1 0x0 DUP2 SSTORE PUSH1 0x1 ADD PUSH3 0x1D65 JUMP JUMPDEST SWAP1 SWAP2 POP DUP2 SWAP1 PUSH3 0x1D5C JUMP JUMPDEST PUSH4 0x4E487B71 PUSH1 0xE0 SHL PUSH1 0x0 MSTORE PUSH1 0x22 PUSH1 0x4 MSTORE PUSH1 0x24 PUSH1 0x0 REVERT JUMPDEST SWAP1 PUSH1 0x7F AND SWAP1 PUSH3 0x1BF7 JUMP JUMPDEST PUSH4 0x4E487B71 PUSH1 0xE0 SHL PUSH1 0x0 MSTORE PUSH1 0x41 PUSH1 0x4 MSTORE PUSH1 0x24 PUSH1 0x0 REVERT JUMPDEST ADD MLOAD SWAP1 POP CODESIZE DUP1 PUSH3 0x1BB0 JUMP JUMPDEST PUSH1 0x1 DUP5 ADD PUSH1 0x0 MSTORE PUSH1 0x20 PUSH1 0x0 KECCAK256 SWAP1 PUSH1 0x0 JUMPDEST PUSH1 0x1F NOT DUP5 AND DUP2 LT PUSH3 0x1E29 JUMPI POP PUSH1 0x1 SWAP4 SWAP5 SWAP6 DUP4 PUSH1 0x1F NOT DUP2 AND LT PUSH3 0x1E0F JUMPI JUMPDEST POP POP POP DUP2 SHL ADD PUSH1 0x1 DUP4 ADD SSTORE PUSH3 0x1BC8 JUMP JUMPDEST ADD MLOAD PUSH1 0x0 NOT PUSH1 0xF8 DUP5 PUSH1 0x3 SHL AND SHR NOT AND SWAP1 SSTORE CODESIZE DUP1 DUP1 PUSH3 0x1DFE JUMP JUMPDEST SWAP1 SWAP2 PUSH1 0x20 PUSH1 0x1 DUP2 SWAP3 DUP6 DUP11 ADD MLOAD DUP2 SSTORE ADD SWAP4 ADD SWAP2 ADD PUSH3 0x1DDF JUMP JUMPDEST PUSH1 0x1 DUP5 ADD PUSH1 0x0 MSTORE PUSH1 0x20 PUSH1 0x0 KECCAK256 PUSH1 0x1F DUP4 ADD PUSH1 0x5 SHR DUP2 ADD SWAP2 PUSH1 0x20 DUP5 LT PUSH3 0x1E87 JUMPI JUMPDEST PUSH1 0x1F ADD PUSH1 0x5 SHR ADD SWAP1 JUMPDEST DUP2 DUP2 LT PUSH3 0x1E7A JUMPI POP PUSH3 0x1B94 JUMP JUMPDEST PUSH1 0x0 DUP2 SSTORE PUSH1 0x1 ADD PUSH3 0x1E6B JUMP JUMPDEST SWAP1 SWAP2 POP DUP2 SWAP1 PUSH3 0x1E62 JUMP JUMPDEST SWAP1 PUSH1 0x7F AND SWAP1 PUSH3 0x1B80 JUMP JUMPDEST PUSH4 0x4E487B71 PUSH1 0xE0 SHL PUSH1 0x0 MSTORE PUSH1 0x21 PUSH1 0x4 MSTORE PUSH1 0x24 PUSH1 0x0 REVERT JUMPDEST ADD MLOAD SWAP1 POP CODESIZE DUP1 PUSH3 0x19C3 JUMP JUMPDEST SWAP1 PUSH1 0x2 DUP5 ADD PUSH1 0x0 MSTORE PUSH1 0x20 PUSH1 0x0 KECCAK256 SWAP2 PUSH1 0x0 JUMPDEST PUSH1 0x1F NOT DUP6 AND DUP2 LT PUSH3 0x1F1E JUMPI POP SWAP2 DUP4 SWAP2 PUSH1 0x1 SWAP4 PUSH1 0x5 SWAP7 SWAP6 PUSH1 0x1F NOT DUP2 AND LT PUSH3 0x1F04 JUMPI JUMPDEST POP POP POP DUP2 SHL ADD PUSH1 0x2 DUP3 ADD SSTORE PUSH3 0x19DB JUMP JUMPDEST ADD MLOAD PUSH1 0x0 NOT PUSH1 0xF8 DUP5 PUSH1 0x3 SHL AND SHR NOT AND SWAP1 SSTORE CODESIZE DUP1 DUP1 PUSH3 0x1EF3 JUMP JUMPDEST SWAP2 SWAP3 PUSH1 0x20 PUSH1 0x1 DUP2 SWAP3 DUP7 DUP6 ADD MLOAD DUP2 SSTORE ADD SWAP5 ADD SWAP3 ADD PUSH3 0x1ED0 JUMP JUMPDEST PUSH1 0x2 DUP5 ADD PUSH1 0x0 MSTORE PUSH1 0x20 PUSH1 0x0 KECCAK256 PUSH1 0x1F DUP5 ADD PUSH1 0x5 SHR DUP2 ADD PUSH1 0x20 DUP6 LT PUSH3 0x1F7B JUMPI JUMPDEST PUSH1 0x1F DUP4 ADD PUSH1 0x5 SHR DUP3 ADD DUP2 LT PUSH3 0x1F6E JUMPI POP POP PUSH3 0x19A4 JUMP JUMPDEST PUSH1 0x0 DUP2 SSTORE PUSH1 0x1 ADD PUSH3 0x1F56 JUMP JUMPDEST POP DUP1 PUSH3 0x1F56 JUMP JUMPDEST SWAP1 PUSH1 0x7F AND SWAP1 PUSH3 0x1990 JUMP JUMPDEST ADD MLOAD SWAP1 POP CODESIZE DUP1 PUSH3 0x194D JUMP JUMPDEST PUSH1 0x1 DUP4 ADD PUSH1 0x0 MSTORE PUSH1 0x20 PUSH1 0x0 KECCAK256 SWAP1 PUSH1 0x0 JUMPDEST PUSH1 0x1F NOT DUP5 AND DUP2 LT PUSH3 0x1FF4 JUMPI POP PUSH1 0x1 SWAP4 SWAP5 SWAP6 DUP4 PUSH1 0x1F NOT DUP2 AND LT PUSH3 0x1FDA JUMPI JUMPDEST POP POP POP DUP2 SHL ADD PUSH1 0x1 DUP3 ADD SSTORE PUSH3 0x1965 JUMP JUMPDEST ADD MLOAD PUSH1 0x0 NOT PUSH1 0xF8 DUP5 PUSH1 0x3 SHL AND SHR NOT AND SWAP1 SSTORE CODESIZE DUP1 DUP1 PUSH3 0x1FC9 JUMP JUMPDEST SWAP1 SWAP2 PUSH1 0x20 PUSH1 0x1 DUP2 SWAP3 DUP6 DUP11 ADD MLOAD DUP2 SSTORE ADD SWAP4 ADD SWAP2 ADD PUSH3 0x1FAA JUMP JUMPDEST PUSH1 0x1 DUP4 ADD PUSH1 0x0 MSTORE PUSH1 0x20 PUSH1 0x0 KECCAK256 PUSH1 0x1F DUP4 ADD PUSH1 0x5 SHR DUP2 ADD PUSH1 0x20 DUP5 LT PUSH3 0x2051 JUMPI JUMPDEST PUSH1 0x1F DUP4 ADD PUSH1 0x5 SHR DUP3 ADD DUP2 LT PUSH3 0x2044 JUMPI POP POP PUSH3 0x1931 JUMP JUMPDEST PUSH1 0x0 DUP2 SSTORE PUSH1 0x1 ADD PUSH3 0x202C JUMP JUMPDEST POP DUP1 PUSH3 0x202C JUMP JUMPDEST SWAP1 PUSH1 0x7F AND SWAP1 PUSH3 0x191D JUMP JUMPDEST ADD MLOAD SWAP1 POP CODESIZE DUP1 PUSH3 0x177A JUMP JUMPDEST SWAP1 PUSH1 0x2 DUP5 ADD PUSH1 0x0 MSTORE PUSH1 0x20 PUSH1 0x0 KECCAK256 SWAP2 PUSH1 0x0 JUMPDEST PUSH1 0x1F NOT DUP6 AND DUP2 LT PUSH3 0x20CF JUMPI POP SWAP2 DUP4 SWAP2 PUSH1 0x1 SWAP4 PUSH1 0x5 SWAP7 SWAP6 PUSH1 0x1F NOT DUP2 AND LT PUSH3 0x20B5 JUMPI JUMPDEST POP POP POP DUP2 SHL ADD PUSH1 0x2 DUP3 ADD SSTORE PUSH3 0x1792 JUMP JUMPDEST ADD MLOAD PUSH1 0x0 NOT PUSH1 0xF8 DUP5 PUSH1 0x3 SHL AND SHR NOT AND SWAP1 SSTORE CODESIZE DUP1 DUP1 PUSH3 0x20A4 JUMP JUMPDEST SWAP2 SWAP3 PUSH1 0x20 PUSH1 0x1 DUP2 SWAP3 DUP7 DUP6 ADD MLOAD DUP2 SSTORE ADD SWAP5 ADD SWAP3 ADD PUSH3 0x2081 JUMP JUMPDEST PUSH1 0x2 DUP5 ADD PUSH1 0x0 MSTORE PUSH1 0x20 PUSH1 0x0 KECCAK256 PUSH1 0x1F DUP5 ADD PUSH1 0x5 SHR DUP2 ADD PUSH1 0x20 DUP6 LT PUSH3 0x212C JUMPI JUMPDEST PUSH1 0x1F DUP4 ADD PUSH1 0x5 SHR DUP3 ADD DUP2 LT PUSH3 0x211F JUMPI POP POP PUSH3 0x175B JUMP JUMPDEST PUSH1 0x0 DUP2 SSTORE PUSH1 0x1 ADD PUSH3 0x2107 JUMP JUMPDEST POP DUP1 PUSH3 0x2107 JUMP JUMPDEST SWAP1 PUSH1 0x7F AND SWAP1 PUSH3 0x1747 JUMP JUMPDEST ADD MLOAD SWAP1 POP CODESIZE DUP1 PUSH3 0x1704 JUMP JUMPDEST PUSH1 0x1 DUP4 ADD PUSH1 0x0 MSTORE PUSH1 0x20 PUSH1 0x0 KECCAK256 SWAP1 PUSH1 0x0 JUMPDEST PUSH1 0x1F NOT DUP5 AND DUP2 LT PUSH3 0x21A5 JUMPI POP PUSH1 0x1 SWAP4 SWAP5 SWAP6 DUP4 PUSH1 0x1F NOT DUP2 AND LT PUSH3 0x218B JUMPI JUMPDEST POP POP POP DUP2 SHL ADD PUSH1 0x1 DUP3 ADD SSTORE PUSH3 0x171C JUMP JUMPDEST ADD MLOAD PUSH1 0x0 NOT PUSH1 0xF8 DUP5 PUSH1 0x3 SHL AND SHR NOT AND SWAP1 SSTORE CODESIZE DUP1 DUP1 PUSH3 0x217A JUMP JUMPDEST SWAP1 SWAP2 PUSH1 0x20 PUSH1 0x1 DUP2 SWAP3 DUP6 DUP11 ADD MLOAD DUP2 SSTORE ADD SWAP4 ADD SWAP2 ADD PUSH3 0x215B JUMP JUMPDEST PUSH1 0x1 DUP4 ADD PUSH1 0x0 MSTORE PUSH1 0x20 PUSH1 0x0 KECCAK256 PUSH1 0x1F DUP4 ADD PUSH1 0x5 SHR DUP2 ADD PUSH1 0x20 DUP5 LT PUSH3 0x2202 JUMPI JUMPDEST PUSH1 0x1F DUP4 ADD PUSH1 0x5 SHR DUP3 ADD DUP2 LT PUSH3 0x21F5 JUMPI POP POP PUSH3 0x16E8 JUMP JUMPDEST PUSH1 0x0 DUP2 SSTORE PUSH1 0x1 ADD PUSH3 0x21DD JUMP JUMPDEST POP DUP1 PUSH3 0x21DD JUMP JUMPDEST SWAP1 PUSH1 0x7F AND SWAP1 PUSH3 0x16D4 JUMP JUMPDEST ADD MLOAD SWAP1 POP CODESIZE DUP1 PUSH3 0x1534 JUMP JUMPDEST SWAP1 PUSH1 0x2 DUP5 ADD PUSH1 0x0 MSTORE PUSH1 0x20 PUSH1 0x0 KECCAK256 SWAP2 PUSH1 0x0 JUMPDEST PUSH1 0x1F NOT DUP6 AND DUP2 LT PUSH3 0x2280 JUMPI POP SWAP2 DUP4 SWAP2 PUSH1 0x1 SWAP4 PUSH1 0x5 SWAP7 SWAP6 PUSH1 0x1F NOT DUP2 AND LT PUSH3 0x2266 JUMPI JUMPDEST POP POP POP DUP2 SHL ADD PUSH1 0x2 DUP3 ADD SSTORE PUSH3 0x154C JUMP JUMPDEST ADD MLOAD PUSH1 0x0 NOT PUSH1 0xF8 DUP5 PUSH1 0x3 SHL AND SHR NOT AND SWAP1 SSTORE CODESIZE DUP1 DUP1 PUSH3 0x2255 JUMP JUMPDEST SWAP2 SWAP3 PUSH1 0x20 PUSH1 0x1 DUP2 SWAP3 DUP7 DUP6 ADD MLOAD DUP2 SSTORE ADD SWAP5 ADD SWAP3 ADD PUSH3 0x2232 JUMP JUMPDEST PUSH1 0x2 DUP5 ADD PUSH1 0x0 MSTORE PUSH1 0x20 PUSH1 0x0 KECCAK256 PUSH1 0x1F DUP5 ADD PUSH1 0x5 SHR DUP2 ADD PUSH1 0x20 DUP6 LT PUSH3 0x22DD JUMPI JUMPDEST PUSH1 0x1F DUP4 ADD PUSH1 0x5 SHR DUP3 ADD DUP2 LT PUSH3 0x22D0 JUMPI POP POP PUSH3 0x1515 JUMP JUMPDEST PUSH1 0x0 DUP2 SSTORE PUSH1 0x1 ADD PUSH3 0x22B8 JUMP JUMPDEST POP DUP1 PUSH3 0x22B8 JUMP JUMPDEST SWAP1 PUSH1 0x7F AND SWAP1 PUSH3 0x1501 JUMP JUMPDEST ADD MLOAD SWAP1 POP CODESIZE DUP1 PUSH3 0x14BE JUMP JUMPDEST PUSH1 0x1 DUP4 ADD PUSH1 0x0 MSTORE PUSH1 0x20 PUSH1 0x0 KECCAK256 SWAP1 PUSH1 0x0 JUMPDEST PUSH1 0x1F NOT DUP5 AND DUP2 LT PUSH3 0x2356 JUMPI POP PUSH1 0x1 SWAP4 SWAP5 SWAP6 DUP4 PUSH1 0x1F NOT DUP2 AND LT PUSH3 0x233C JUMPI JUMPDEST POP POP POP DUP2 SHL ADD PUSH1 0x1 DUP3 ADD SSTORE PUSH3 0x14D6 JUMP JUMPDEST ADD MLOAD PUSH1 0x0 NOT PUSH1 0xF8 DUP5 PUSH1 0x3 SHL AND SHR NOT AND SWAP1 SSTORE CODESIZE DUP1 DUP1 PUSH3 0x232B JUMP JUMPDEST SWAP1 SWAP2 PUSH1 0x20 PUSH1 0x1 DUP2 SWAP3 DUP6 DUP11 ADD MLOAD DUP2 SSTORE ADD SWAP4 ADD SWAP2 ADD PUSH3 0x230C JUMP JUMPDEST PUSH1 0x1 DUP4 ADD PUSH1 0x0 MSTORE PUSH1 0x20 PUSH1 0x0 KECCAK256 PUSH1 0x1F DUP4 ADD PUSH1 0x5 SHR DUP2 ADD PUSH1 0x20 DUP5 LT PUSH3 0x23B3 JUMPI JUMPDEST PUSH1 0x1F DUP4 ADD PUSH1 0x5 SHR DUP3 ADD DUP2 LT PUSH3 0x23A6 JUMPI POP POP PUSH3 0x14A2 JUMP JUMPDEST PUSH1 0x0 DUP2 SSTORE PUSH1 0x1 ADD PUSH3 0x238E JUMP JUMPDEST POP DUP1 PUSH3 0x238E JUMP JUMPDEST SWAP1 PUSH1 0x7F AND SWAP1 PUSH3 0x148E JUMP JUMPDEST ADD MLOAD SWAP1 POP CODESIZE DUP1 PUSH3 0x12D0 JUMP JUMPDEST SWAP1 PUSH1 0x2 DUP5 ADD PUSH1 0x0 MSTORE PUSH1 0x20 PUSH1 0x0 KECCAK256 SWAP2 PUSH1 0x0 JUMPDEST PUSH1 0x1F NOT DUP6 AND DUP2 LT PUSH3 0x2431 JUMPI POP SWAP2 DUP4 SWAP2 PUSH1 0x1 SWAP4 PUSH1 0x5 SWAP7 SWAP6 PUSH1 0x1F NOT DUP2 AND LT PUSH3 0x2417 JUMPI JUMPDEST POP POP POP DUP2 SHL ADD PUSH1 0x2 DUP3 ADD SSTORE PUSH3 0x12E8 JUMP JUMPDEST ADD MLOAD PUSH1 0x0 NOT PUSH1 0xF8 DUP5 PUSH1 0x3 SHL AND SHR NOT AND SWAP1 SSTORE CODESIZE DUP1 DUP1 PUSH3 0x2406 JUMP JUMPDEST SWAP2 SWAP3 PUSH1 0x20 PUSH1 0x1 DUP2 SWAP3 DUP7 DUP6 ADD MLOAD DUP2 SSTORE ADD SWAP5 ADD SWAP3 ADD PUSH3 0x23E3 JUMP JUMPDEST PUSH1 0x2 DUP5 ADD PUSH1 0x0 MSTORE PUSH1 0x20 PUSH1 0x0 KECCAK256 PUSH1 0x1F DUP5 ADD PUSH1 0x5 SHR DUP2 ADD PUSH1 0x20 DUP6 LT PUSH3 0x248E JUMPI JUMPDEST PUSH1 0x1F DUP4 ADD PUSH1 0x5 SHR DUP3 ADD DUP2 LT PUSH3 0x2481 JUMPI POP POP PUSH3 0x12B1 JUMP JUMPDEST PUSH1 0x0 DUP2 SSTORE PUSH1 0x1 ADD PUSH3 0x2469 JUMP JUMPDEST POP DUP1 PUSH3 0x2469 JUMP JUMPDEST SWAP1 PUSH1 0x7F AND SWAP1 PUSH3 0x129D JUMP JUMPDEST ADD MLOAD SWAP1 POP CODESIZE DUP1 PUSH3 0x125A JUMP JUMPDEST PUSH1 0x1 DUP4 ADD PUSH1 0x0 MSTORE PUSH1 0x20 PUSH1 0x0 KECCAK256 SWAP1 PUSH1 0x0 JUMPDEST PUSH1 0x1F NOT DUP5 AND DUP2 LT PUSH3 0x2507 JUMPI POP PUSH1 0x1 SWAP4 SWAP5 SWAP6 DUP4 PUSH1 0x1F NOT DUP2 AND LT PUSH3 0x24ED JUMPI JUMPDEST POP POP POP DUP2 SHL ADD PUSH1 0x1 DUP3 ADD SSTORE PUSH3 0x1272 JUMP JUMPDEST ADD MLOAD PUSH1 0x0 NOT PUSH1 0xF8 DUP5 PUSH1 0x3 SHL AND SHR NOT AND SWAP1 SSTORE CODESIZE DUP1 DUP1 PUSH3 0x24DC JUMP JUMPDEST SWAP1 SWAP2 PUSH1 0x20 PUSH1 0x1 DUP2 SWAP3 DUP6 DUP11 ADD MLOAD DUP2 SSTORE ADD SWAP4 ADD SWAP2 ADD PUSH3 0x24BD JUMP JUMPDEST PUSH1 0x1 DUP4 ADD PUSH1 0x0 MSTORE PUSH1 0x20 PUSH1 0x0 KECCAK256 PUSH1 0x1F DUP4 ADD PUSH1 0x5 SHR DUP2 ADD PUSH1 0x20 DUP5 LT PUSH3 0x2564 JUMPI JUMPDEST PUSH1 0x1F DUP4 ADD PUSH1 0x5 SHR DUP3 ADD DUP2 LT PUSH3 0x2557 JUMPI POP POP PUSH3 0x123E JUMP JUMPDEST PUSH1 0x0 DUP2 SSTORE PUSH1 0x1 ADD PUSH3 0x253F JUMP JUMPDEST POP DUP1 PUSH3 0x253F JUMP JUMPDEST SWAP1 PUSH1 0x7F AND SWAP1 PUSH3 0x122A JUMP JUMPDEST ADD MLOAD SWAP1 POP CODESIZE DUP1 PUSH3 0x106B JUMP JUMPDEST SWAP1 PUSH1 0x2 DUP5 ADD PUSH1 0x0 MSTORE PUSH1 0x20 PUSH1 0x0 KECCAK256 SWAP2 PUSH1 0x0 JUMPDEST PUSH1 0x1F NOT DUP6 AND DUP2 LT PUSH3 0x25E2 JUMPI POP SWAP2 DUP4 SWAP2 PUSH1 0x1 SWAP4 PUSH1 0x5 SWAP7 SWAP6 PUSH1 0x1F NOT DUP2 AND LT PUSH3 0x25C8 JUMPI JUMPDEST POP POP POP DUP2 SHL ADD PUSH1 0x2 DUP3 ADD SSTORE PUSH3 0x1083 JUMP JUMPDEST ADD MLOAD PUSH1 0x0 NOT PUSH1 0xF8 DUP5 PUSH1 0x3 SHL AND SHR NOT AND SWAP1 SSTORE CODESIZE DUP1 DUP1 PUSH3 0x25B7 JUMP JUMPDEST SWAP2 SWAP3 PUSH1 0x20 PUSH1 0x1 DUP2 SWAP3 DUP7 DUP6 ADD MLOAD DUP2 SSTORE ADD SWAP5 ADD SWAP3 ADD PUSH3 0x2594 JUMP JUMPDEST PUSH1 0x2 DUP5 ADD PUSH1 0x0 MSTORE PUSH1 0x20 PUSH1 0x0 KECCAK256 PUSH1 0x1F DUP5 ADD PUSH1 0x5 SHR DUP2 ADD PUSH1 0x20 DUP6 LT PUSH3 0x263F JUMPI JUMPDEST PUSH1 0x1F DUP4 ADD PUSH1 0x5 SHR DUP3 ADD DUP2 LT PUSH3 0x2632 JUMPI POP POP PUSH3 0x104C JUMP JUMPDEST PUSH1 0x0 DUP2 SSTORE PUSH1 0x1 ADD PUSH3 0x261A JUMP JUMPDEST POP DUP1 PUSH3 0x261A JUMP JUMPDEST SWAP1 PUSH1 0x7F AND SWAP1 PUSH3 0x1038 JUMP JUMPDEST ADD MLOAD SWAP1 POP CODESIZE DUP1 PUSH3 0xFF5 JUMP JUMPDEST PUSH1 0x1 DUP4 ADD PUSH1 0x0 MSTORE PUSH1 0x20 PUSH1 0x0 KECCAK256 SWAP1 PUSH1 0x0 JUMPDEST PUSH1 0x1F NOT DUP5 AND DUP2 LT PUSH3 0x26B8 JUMPI POP PUSH1 0x1 SWAP4 SWAP5 SWAP6 DUP4 PUSH1 0x1F NOT DUP2 AND LT PUSH3 0x269E JUMPI JUMPDEST POP POP POP DUP2 SHL ADD PUSH1 0x1 DUP3 ADD SSTORE PUSH3 0x100D JUMP JUMPDEST ADD MLOAD PUSH1 0x0 NOT PUSH1 0xF8 DUP5 PUSH1 0x3 SHL AND SHR NOT AND SWAP1 SSTORE CODESIZE DUP1 DUP1 PUSH3 0x268D JUMP JUMPDEST SWAP1 SWAP2 PUSH1 0x20 PUSH1 0x1 DUP2 SWAP3 DUP6 DUP11 ADD MLOAD DUP2 SSTORE ADD SWAP4 ADD SWAP2 ADD PUSH3 0x266E JUMP JUMPDEST PUSH1 0x1 DUP4 ADD PUSH1 0x0 MSTORE PUSH1 0x20 PUSH1 0x0 KECCAK256 PUSH1 0x1F DUP4 ADD PUSH1 0x5 SHR DUP2 ADD PUSH1 0x20 DUP5 LT PUSH3 0x2715 JUMPI JUMPDEST PUSH1 0x1F DUP4 ADD PUSH1 0x5 SHR DUP3 ADD DUP2 LT PUSH3 0x2708 JUMPI POP POP PUSH3 0xFD9 JUMP JUMPDEST PUSH1 0x0 DUP2 SSTORE PUSH1 0x1 ADD PUSH3 0x26F0 JUMP JUMPDEST POP DUP1 PUSH3 0x26F0 JUMP JUMPDEST SWAP1 PUSH1 0x7F AND SWAP1 PUSH3 0xFC5 JUMP JUMPDEST ADD MLOAD SWAP1 POP CODESIZE DUP1 PUSH3 0xE05 JUMP JUMPDEST SWAP1 PUSH1 0x2 DUP5 ADD PUSH1 0x0 MSTORE PUSH1 0x20 PUSH1 0x0 KECCAK256 SWAP2 PUSH1 0x0 JUMPDEST PUSH1 0x1F NOT DUP6 AND DUP2 LT PUSH3 0x2793 JUMPI POP SWAP2 DUP4 SWAP2 PUSH1 0x1 SWAP4 PUSH1 0x5 SWAP7 SWAP6 PUSH1 0x1F NOT DUP2 AND LT PUSH3 0x2779 JUMPI JUMPDEST POP POP POP DUP2 SHL ADD PUSH1 0x2 DUP3 ADD SSTORE PUSH3 0xE1D JUMP JUMPDEST ADD MLOAD PUSH1 0x0 NOT PUSH1 0xF8 DUP5 PUSH1 0x3 SHL AND SHR NOT AND SWAP1 SSTORE CODESIZE DUP1 DUP1 PUSH3 0x2768 JUMP JUMPDEST SWAP2 SWAP3 PUSH1 0x20 PUSH1 0x1 DUP2 SWAP3 DUP7 DUP6 ADD MLOAD DUP2 SSTORE ADD SWAP5 ADD SWAP3 ADD PUSH3 0x2745 JUMP JUMPDEST PUSH1 0x2 DUP5 ADD PUSH1 0x0 MSTORE PUSH1 0x20 PUSH1 0x0 KECCAK256 PUSH1 0x1F DUP5 ADD PUSH1 0x5 SHR DUP2 ADD PUSH1 0x20 DUP6 LT PUSH3 0x27F0 JUMPI JUMPDEST PUSH1 0x1F DUP4 ADD PUSH1 0x5 SHR DUP3 ADD DUP2 LT PUSH3 0x27E3 JUMPI POP POP PUSH3 0xDE6 JUMP JUMPDEST PUSH1 0x0 DUP2 SSTORE PUSH1 0x1 ADD PUSH3 0x27CB JUMP JUMPDEST POP DUP1 PUSH3 0x27CB JUMP JUMPDEST SWAP1 PUSH1 0x7F AND SWAP1 PUSH3 0xDD2 JUMP JUMPDEST ADD MLOAD SWAP1 POP CODESIZE DUP1 PUSH3 0xD8F JUMP JUMPDEST PUSH1 0x1 DUP4 ADD PUSH1 0x0 MSTORE PUSH1 0x20 PUSH1 0x0 KECCAK256 SWAP1 PUSH1 0x0 JUMPDEST PUSH1 0x1F NOT DUP5 AND DUP2 LT PUSH3 0x2869 JUMPI POP PUSH1 0x1 SWAP4 SWAP5 SWAP6 DUP4 PUSH1 0x1F NOT DUP2 AND LT PUSH3 0x284F JUMPI JUMPDEST POP POP POP DUP2 SHL ADD PUSH1 0x1 DUP3 ADD SSTORE PUSH3 0xDA7 JUMP JUMPDEST ADD MLOAD PUSH1 0x0 NOT PUSH1 0xF8 DUP5 PUSH1 0x3 SHL AND SHR NOT AND SWAP1 SSTORE CODESIZE DUP1 DUP1 PUSH3 0x283E JUMP JUMPDEST SWAP1 SWAP2 PUSH1 0x20 PUSH1 0x1 DUP2 SWAP3 DUP6 DUP11 ADD MLOAD DUP2 SSTORE ADD SWAP4 ADD SWAP2 ADD PUSH3 0x281F JUMP JUMPDEST PUSH1 0x1 DUP4 ADD PUSH1 0x0 MSTORE PUSH1 0x20 PUSH1 0x0 KECCAK256 PUSH1 0x1F DUP4 ADD PUSH1 0x5 SHR DUP2 ADD PUSH1 0x20 DUP5 LT PUSH3 0x28C6 JUMPI JUMPDEST PUSH1 0x1F DUP4 ADD PUSH1 0x5 SHR DUP3 ADD DUP2 LT PUSH3 0x28B9 JUMPI POP POP PUSH3 0xD73 JUMP JUMPDEST PUSH1 0x0 DUP2 SSTORE PUSH1 0x1 ADD PUSH3 0x28A1 JUMP JUMPDEST POP DUP1 PUSH3 0x28A1 JUMP JUMPDEST SWAP1 PUSH1 0x7F AND SWAP1 PUSH3 0xD5F JUMP JUMPDEST ADD MLOAD SWAP1 POP CODESIZE DUP1 PUSH3 0xBAC JUMP JUMPDEST SWAP1 PUSH1 0x2 DUP5 ADD PUSH1 0x0 MSTORE PUSH1 0x20 PUSH1 0x0 KECCAK256 SWAP2 PUSH1 0x0 JUMPDEST PUSH1 0x1F NOT DUP6 AND DUP2 LT PUSH3 0x2944 JUMPI POP SWAP2 DUP4 SWAP2 PUSH1 0x1 SWAP4 PUSH1 0x5 SWAP7 SWAP6 PUSH1 0x1F NOT DUP2 AND LT PUSH3 0x292A JUMPI JUMPDEST POP POP POP DUP2 SHL ADD PUSH1 0x2 DUP3 ADD SSTORE PUSH3 0xBC4 JUMP JUMPDEST ADD MLOAD PUSH1 0x0 NOT PUSH1 0xF8 DUP5 PUSH1 0x3 SHL AND SHR NOT AND SWAP1 SSTORE CODESIZE DUP1 DUP1 PUSH3 0x2919 JUMP JUMPDEST SWAP2 SWAP3 PUSH1 0x20 PUSH1 0x1 DUP2 SWAP3 DUP7 DUP6 ADD MLOAD DUP2 SSTORE ADD SWAP5 ADD SWAP3 ADD PUSH3 0x28F6 JUMP JUMPDEST PUSH1 0x2 DUP5 ADD PUSH1 0x0 MSTORE PUSH1 0x20 PUSH1 0x0 KECCAK256 PUSH1 0x1F DUP5 ADD PUSH1 0x5 SHR DUP2 ADD PUSH1 0x20 DUP6 LT PUSH3 0x29A1 JUMPI JUMPDEST PUSH1 0x1F DUP4 ADD PUSH1 0x5 SHR DUP3 ADD DUP2 LT PUSH3 0x2994 JUMPI POP POP PUSH3 0xB8D JUMP JUMPDEST PUSH1 0x0 DUP2 SSTORE PUSH1 0x1 ADD PUSH3 0x297C JUMP JUMPDEST POP DUP1 PUSH3 0x297C JUMP JUMPDEST SWAP1 PUSH1 0x7F AND SWAP1 PUSH3 0xB79 JUMP JUMPDEST ADD MLOAD SWAP1 POP CODESIZE DUP1 PUSH3 0xB36 JUMP JUMPDEST PUSH1 0x1 DUP4 ADD PUSH1 0x0 MSTORE PUSH1 0x20 PUSH1 0x0 KECCAK256 SWAP1 PUSH1 0x0 JUMPDEST PUSH1 0x1F NOT DUP5 AND DUP2 LT PUSH3 0x2A1A JUMPI POP PUSH1 0x1 SWAP4 SWAP5 SWAP6 DUP4 PUSH1 0x1F NOT DUP2 AND LT PUSH3 0x2A00 JUMPI JUMPDEST POP POP POP DUP2 SHL ADD PUSH1 0x1 DUP3 ADD SSTORE PUSH3 0xB4E JUMP JUMPDEST ADD MLOAD PUSH1 0x0 NOT PUSH1 0xF8 DUP5 PUSH1 0x3 SHL AND SHR NOT AND SWAP1 SSTORE CODESIZE DUP1 DUP1 PUSH3 0x29EF JUMP JUMPDEST SWAP1 SWAP2 PUSH1 0x20 PUSH1 0x1 DUP2 SWAP3 DUP6 DUP11 ADD MLOAD DUP2 SSTORE ADD SWAP4 ADD SWAP2 ADD PUSH3 0x29D0 JUMP JUMPDEST PUSH1 0x1 DUP4 ADD PUSH1 0x0 MSTORE PUSH1 0x20 PUSH1 0x0 KECCAK256 PUSH1 0x1F DUP4 ADD PUSH1 0x5 SHR DUP2 ADD PUSH1 0x20 DUP5 LT PUSH3 0x2A77 JUMPI JUMPDEST PUSH1 0x1F DUP4 ADD PUSH1 0x5 SHR DUP3 ADD DUP2 LT PUSH3 0x2A6A JUMPI POP POP PUSH3 0xB1A JUMP JUMPDEST PUSH1 0x0 DUP2 SSTORE PUSH1 0x1 ADD PUSH3 0x2A52 JUMP JUMPDEST POP DUP1 PUSH3 0x2A52 JUMP JUMPDEST SWAP1 PUSH1 0x7F AND SWAP1 PUSH3 0xB06 JUMP JUMPDEST ADD MLOAD SWAP1 POP CODESIZE DUP1 PUSH3 0x952 JUMP JUMPDEST SWAP1 PUSH1 0x2 DUP5 ADD PUSH1 0x0 MSTORE PUSH1 0x20 PUSH1 0x0 KECCAK256 SWAP2 PUSH1 0x0 JUMPDEST PUSH1 0x1F NOT DUP6 AND DUP2 LT PUSH3 0x2AF5 JUMPI POP SWAP2 DUP4 SWAP2 PUSH1 0x1 SWAP4 PUSH1 0x5 SWAP7 SWAP6 PUSH1 0x1F NOT DUP2 AND LT PUSH3 0x2ADB JUMPI JUMPDEST POP POP POP DUP2 SHL ADD PUSH1 0x2 DUP3 ADD SSTORE PUSH3 0x96A JUMP JUMPDEST ADD MLOAD PUSH1 0x0 NOT PUSH1 0xF8 DUP5 PUSH1 0x3 SHL AND SHR NOT AND SWAP1 SSTORE CODESIZE DUP1 DUP1 PUSH3 0x2ACA JUMP JUMPDEST SWAP2 SWAP3 PUSH1 0x20 PUSH1 0x1 DUP2 SWAP3 DUP7 DUP6 ADD MLOAD DUP2 SSTORE ADD SWAP5 ADD SWAP3 ADD PUSH3 0x2AA7 JUMP JUMPDEST PUSH1 0x2 DUP5 ADD PUSH1 0x0 MSTORE PUSH1 0x20 PUSH1 0x0 KECCAK256 PUSH1 0x1F DUP5 ADD PUSH1 0x5 SHR DUP2 ADD PUSH1 0x20 DUP6 LT PUSH3 0x2B52 JUMPI JUMPDEST PUSH1 0x1F DUP4 ADD PUSH1 0x5 SHR DUP3 ADD DUP2 LT PUSH3 0x2B45 JUMPI POP POP PUSH3 0x933 JUMP JUMPDEST PUSH1 0x0 DUP2 SSTORE PUSH1 0x1 ADD PUSH3 0x2B2D JUMP JUMPDEST POP DUP1 PUSH3 0x2B2D JUMP JUMPDEST SWAP1 PUSH1 0x7F AND SWAP1 PUSH3 0x91F JUMP JUMPDEST ADD MLOAD SWAP1 POP CODESIZE DUP1 PUSH3 0x8DC JUMP JUMPDEST PUSH1 0x1 DUP4 ADD PUSH1 0x0 MSTORE PUSH1 0x20 PUSH1 0x0 KECCAK256 SWAP1 PUSH1 0x0 JUMPDEST PUSH1 0x1F NOT DUP5 AND DUP2 LT PUSH3 0x2BCB JUMPI POP PUSH1 0x1 SWAP4 SWAP5 SWAP6 DUP4 PUSH1 0x1F NOT DUP2 AND LT PUSH3 0x2BB1 JUMPI JUMPDEST POP POP POP DUP2 SHL ADD PUSH1 0x1 DUP3 ADD SSTORE PUSH3 0x8F4 JUMP JUMPDEST ADD MLOAD PUSH1 0x0 NOT PUSH1 0xF8 DUP5 PUSH1 0x3 SHL AND SHR NOT AND SWAP1 SSTORE CODESIZE DUP1 DUP1 PUSH3 0x2BA0 JUMP JUMPDEST SWAP1 SWAP2 PUSH1 0x20 PUSH1 0x1 DUP2 SWAP3 DUP6 DUP11 ADD MLOAD DUP2 SSTORE ADD SWAP4 ADD SWAP2 ADD PUSH3 0x2B81 JUMP JUMPDEST PUSH1 0x1 DUP4 ADD PUSH1 0x0 MSTORE PUSH1 0x20 PUSH1 0x0 KECCAK256 PUSH1 0x1F DUP4 ADD PUSH1 0x5 SHR DUP2 ADD PUSH1 0x20 DUP5 LT PUSH3 0x2C28 JUMPI JUMPDEST PUSH1 0x1F DUP4 ADD PUSH1 0x5 SHR DUP3 ADD DUP2 LT PUSH3 0x2C1B JUMPI POP POP PUSH3 0x8C0 JUMP JUMPDEST PUSH1 0x0 DUP2 SSTORE PUSH1 0x1 ADD PUSH3 0x2C03 JUMP JUMPDEST POP DUP1 PUSH3 0x2C03 JUMP JUMPDEST SWAP1 PUSH1 0x7F AND SWAP1 PUSH3 0x8AC JUMP JUMPDEST ADD MLOAD SWAP1 POP CODESIZE DUP1 PUSH3 0x6FF JUMP JUMPDEST SWAP1 PUSH1 0x2 DUP5 ADD PUSH1 0x0 MSTORE PUSH1 0x20 PUSH1 0x0 KECCAK256 SWAP2 PUSH1 0x0 JUMPDEST PUSH1 0x1F NOT DUP6 AND DUP2 LT PUSH3 0x2CA6 JUMPI POP SWAP2 DUP4 SWAP2 PUSH1 0x1 SWAP4 PUSH1 0x5 SWAP7 SWAP6 PUSH1 0x1F NOT DUP2 AND LT PUSH3 0x2C8C JUMPI JUMPDEST POP POP POP DUP2 SHL ADD PUSH1 0x2 DUP3 ADD SSTORE PUSH3 0x717 JUMP JUMPDEST ADD MLOAD PUSH1 0x0 NOT PUSH1 0xF8 DUP5 PUSH1 0x3 SHL AND SHR NOT AND SWAP1 SSTORE CODESIZE DUP1 DUP1 PUSH3 0x2C7B JUMP JUMPDEST SWAP2 SWAP3 PUSH1 0x20 PUSH1 0x1 DUP2 SWAP3 DUP7 DUP6 ADD MLOAD DUP2 SSTORE ADD SWAP5 ADD SWAP3 ADD PUSH3 0x2C58 JUMP JUMPDEST PUSH1 0x2 DUP5 ADD PUSH1 0x0 MSTORE PUSH1 0x20 PUSH1 0x0 KECCAK256 PUSH1 0x1F DUP5 ADD PUSH1 0x5 SHR DUP2 ADD PUSH1 0x20 DUP6 LT PUSH3 0x2D03 JUMPI JUMPDEST PUSH1 0x1F DUP4 ADD PUSH1 0x5 SHR DUP3 ADD DUP2 LT PUSH3 0x2CF6 JUMPI POP POP PUSH3 0x6E0 JUMP JUMPDEST PUSH1 0x0 DUP2 SSTORE PUSH1 0x1 ADD PUSH3 0x2CDE JUMP JUMPDEST POP DUP1 PUSH3 0x2CDE JUMP JUMPDEST SWAP1 PUSH1 0x7F AND SWAP1 PUSH3 0x6CC JUMP JUMPDEST ADD MLOAD SWAP1 POP CODESIZE DUP1 PUSH3 0x689 JUMP JUMPDEST PUSH1 0x1 DUP4 ADD PUSH1 0x0 MSTORE PUSH1 0x20 PUSH1 0x0 KECCAK256 SWAP1 PUSH1 0x0 JUMPDEST PUSH1 0x1F NOT DUP5 AND DUP2 LT PUSH3 0x2D7C JUMPI POP PUSH1 0x1 SWAP4 SWAP5 SWAP6 DUP4 PUSH1 0x1F NOT DUP2 AND LT PUSH3 0x2D62 JUMPI JUMPDEST POP POP POP DUP2 SHL ADD PUSH1 0x1 DUP3 ADD SSTORE PUSH3 0x6A1 JUMP JUMPDEST ADD MLOAD PUSH1 0x0 NOT PUSH1 0xF8 DUP5 PUSH1 0x3 SHL AND SHR NOT AND SWAP1 SSTORE CODESIZE DUP1 DUP1 PUSH3 0x2D51 JUMP JUMPDEST SWAP1 SWAP2 PUSH1 0x20 PUSH1 0x1 DUP2 SWAP3 DUP6 DUP11 ADD MLOAD DUP2 SSTORE ADD SWAP4 ADD SWAP2 ADD PUSH3 0x2D32 JUMP JUMPDEST PUSH1 0x1 DUP4 ADD PUSH1 0x0 MSTORE PUSH1 0x20 PUSH1 0x0 KECCAK256 PUSH1 0x1F DUP4 ADD PUSH1 0x5 SHR DUP2 ADD PUSH1 0x20 DUP5 LT PUSH3 0x2DD9 JUMPI JUMPDEST PUSH1 0x1F DUP4 ADD PUSH1 0x5 SHR DUP3 ADD DUP2 LT PUSH3 0x2DCC JUMPI POP POP PUSH3 0x66D JUMP JUMPDEST PUSH1 0x0 DUP2 SSTORE PUSH1 0x1 ADD PUSH3 0x2DB4 JUMP JUMPDEST POP DUP1 PUSH3 0x2DB4 JUMP JUMPDEST SWAP1 PUSH1 0x7F AND SWAP1 PUSH3 0x659 JUMP JUMPDEST ADD MLOAD SWAP1 POP CODESIZE DUP1 PUSH3 0x4A6 JUMP JUMPDEST SWAP1 PUSH1 0x2 DUP5 ADD PUSH1 0x0 MSTORE PUSH1 0x20 PUSH1 0x0 KECCAK256 SWAP2 PUSH1 0x0 JUMPDEST PUSH1 0x1F NOT DUP6 AND DUP2 LT PUSH3 0x2E57 JUMPI POP SWAP2 DUP4 SWAP2 PUSH1 0x1 SWAP4 PUSH1 0x5 SWAP7 SWAP6 PUSH1 0x1F NOT DUP2 AND LT PUSH3 0x2E3D JUMPI JUMPDEST POP POP POP DUP2 SHL ADD PUSH1 0x2 DUP3 ADD SSTORE PUSH3 0x4BE JUMP JUMPDEST ADD MLOAD PUSH1 0x0 NOT PUSH1 0xF8 DUP5 PUSH1 0x3 SHL AND SHR NOT AND SWAP1 SSTORE CODESIZE DUP1 DUP1 PUSH3 0x2E2C JUMP JUMPDEST SWAP2 SWAP3 PUSH1 0x20 PUSH1 0x1 DUP2 SWAP3 DUP7 DUP6 ADD MLOAD DUP2 SSTORE ADD SWAP5 ADD SWAP3 ADD PUSH3 0x2E09 JUMP JUMPDEST PUSH1 0x2 DUP5 ADD PUSH1 0x0 MSTORE PUSH1 0x20 PUSH1 0x0 KECCAK256 PUSH1 0x1F DUP5 ADD PUSH1 0x5 SHR DUP2 ADD PUSH1 0x20 DUP6 LT PUSH3 0x2EB4 JUMPI JUMPDEST PUSH1 0x1F DUP4 ADD PUSH1 0x5 SHR DUP3 ADD DUP2 LT PUSH3 0x2EA7 JUMPI POP POP PUSH3 0x487 JUMP JUMPDEST PUSH1 0x0 DUP2 SSTORE PUSH1 0x1 ADD PUSH3 0x2E8F JUMP JUMPDEST POP DUP1 PUSH3 0x2E8F JUMP JUMPDEST SWAP1 PUSH1 0x7F AND SWAP1 PUSH3 0x473 JUMP JUMPDEST ADD MLOAD SWAP1 POP CODESIZE DUP1 PUSH3 0x430 JUMP JUMPDEST PUSH1 0x1 DUP4 ADD PUSH1 0x0 MSTORE PUSH1 0x20 PUSH1 0x0 KECCAK256 SWAP1 PUSH1 0x0 JUMPDEST PUSH1 0x1F NOT DUP5 AND DUP2 LT PUSH3 0x2F2D JUMPI POP PUSH1 0x1 SWAP4 SWAP5 SWAP6 DUP4 PUSH1 0x1F NOT DUP2 AND LT PUSH3 0x2F13 JUMPI JUMPDEST POP POP POP DUP2 SHL ADD PUSH1 0x1 DUP3 ADD SSTORE PUSH3 0x448 JUMP JUMPDEST ADD MLOAD PUSH1 0x0 NOT PUSH1 0xF8 DUP5 PUSH1 0x3 SHL AND SHR NOT AND SWAP1 SSTORE CODESIZE DUP1 DUP1 PUSH3 0x2F02 JUMP JUMPDEST SWAP1 SWAP2 PUSH1 0x20 PUSH1 0x1 DUP2 SWAP3 DUP6 DUP11 ADD MLOAD DUP2 SSTORE ADD SWAP4 ADD SWAP2 ADD PUSH3 0x2EE3 JUMP JUMPDEST PUSH1 0x1 DUP4 ADD PUSH1 0x0 MSTORE PUSH1 0x20 PUSH1 0x0 KECCAK256 PUSH1 0x1F DUP4 ADD PUSH1 0x5 SHR DUP2 ADD PUSH1 0x20 DUP5 LT PUSH3 0x2F8A JUMPI JUMPDEST PUSH1 0x1F DUP4 ADD PUSH1 0x5 SHR DUP3 ADD DUP2 LT PUSH3 0x2F7D JUMPI POP POP PUSH3 0x414 JUMP JUMPDEST PUSH1 0x0 DUP2 SSTORE PUSH1 0x1 ADD PUSH3 0x2F65 JUMP JUMPDEST POP DUP1 PUSH3 0x2F65 JUMP JUMPDEST SWAP1 PUSH1 0x7F AND SWAP1 PUSH3 0x400 JUMP JUMPDEST ADD MLOAD SWAP1 POP CODESIZE DUP1 PUSH3 0x24E JUMP JUMPDEST SWAP1 PUSH1 0x2 DUP6 ADD PUSH1 0x0 MSTORE PUSH1 0x20 PUSH1 0x0 KECCAK256 SWAP2 PUSH1 0x0 JUMPDEST PUSH1 0x1F NOT DUP6 AND DUP2 LT PUSH3 0x3008 JUMPI POP SWAP2 DUP4 SWAP2 PUSH1 0x1 SWAP4 PUSH1 0x5 SWAP7 SWAP6 PUSH1 0x1F NOT DUP2 AND LT PUSH3 0x2FEE JUMPI JUMPDEST POP POP POP DUP2 SHL ADD PUSH1 0x2 DUP5 ADD SSTORE PUSH3 0x266 JUMP JUMPDEST ADD MLOAD PUSH1 0x0 NOT PUSH1 0xF8 DUP5 PUSH1 0x3 SHL AND SHR NOT AND SWAP1 SSTORE CODESIZE DUP1 DUP1 PUSH3 0x2FDD JUMP JUMPDEST SWAP2 SWAP3 PUSH1 0x20 PUSH1 0x1 DUP2 SWAP3 DUP7 DUP6 ADD MLOAD DUP2 SSTORE ADD SWAP5 ADD SWAP3 ADD PUSH3 0x2FBA JUMP JUMPDEST PUSH1 0x2 DUP6 ADD PUSH1 0x0 MSTORE PUSH1 0x20 PUSH1 0x0 KECCAK256 PUSH1 0x1F DUP5 ADD PUSH1 0x5 SHR DUP2 ADD PUSH1 0x20 DUP6 LT PUSH3 0x3065 JUMPI JUMPDEST PUSH1 0x1F DUP4 ADD PUSH1 0x5 SHR DUP3 ADD DUP2 LT PUSH3 0x3058 JUMPI POP POP PUSH3 0x22F JUMP JUMPDEST PUSH1 0x0 DUP2 SSTORE PUSH1 0x1 ADD PUSH3 0x3040 JUMP JUMPDEST POP DUP1 PUSH3 0x3040 JUMP JUMPDEST SWAP1 PUSH1 0x7F AND SWAP1 PUSH3 0x21B JUMP JUMPDEST ADD MLOAD SWAP1 POP CODESIZE DUP1 PUSH3 0x1D8 JUMP JUMPDEST PUSH1 0x1 DUP5 ADD PUSH1 0x0 MSTORE PUSH1 0x20 PUSH1 0x0 KECCAK256 SWAP1 PUSH1 0x0 JUMPDEST PUSH1 0x1F NOT DUP5 AND DUP2 LT PUSH3 0x30DE JUMPI POP PUSH1 0x1 SWAP4 SWAP5 SWAP6 DUP4 PUSH1 0x1F NOT DUP2 AND LT PUSH3 0x30C4 JUMPI JUMPDEST POP POP POP DUP2 SHL ADD PUSH1 0x1 DUP4 ADD SSTORE PUSH3 0x1F0 JUMP JUMPDEST ADD MLOAD PUSH1 0x0 NOT PUSH1 0xF8 DUP5 PUSH1 0x3 SHL AND SHR NOT AND SWAP1 SSTORE CODESIZE DUP1 DUP1 PUSH3 0x30B3 JUMP JUMPDEST SWAP1 SWAP2 PUSH1 0x20 PUSH1 0x1 DUP2 SWAP3 DUP6 DUP11 ADD MLOAD DUP2 SSTORE ADD SWAP4 ADD SWAP2 ADD PUSH3 0x3094 JUMP JUMPDEST PUSH1 0x1 DUP5 ADD PUSH1 0x0 MSTORE PUSH1 0x20 PUSH1 0x0 KECCAK256 PUSH1 0x1F DUP4 ADD PUSH1 0x5 SHR DUP2 ADD PUSH1 0x20 DUP5 LT PUSH3 0x313B JUMPI JUMPDEST PUSH1 0x1F DUP4 ADD PUSH1 0x5 SHR DUP3 ADD DUP2 LT PUSH3 0x312E JUMPI POP POP PUSH3 0x1BC JUMP JUMPDEST PUSH1 0x0 DUP2 SSTORE PUSH1 0x1 ADD PUSH3 0x3116 JUMP JUMPDEST POP DUP1 PUSH3 0x3116 JUMP JUMPDEST SWAP1 PUSH1 0x7F AND SWAP1 PUSH3 0x1A8 JUMP JUMPDEST PUSH1 0x0 DUP1 REVERT JUMPDEST PUSH1 0x40 MLOAD SWAP1 PUSH2 0x100 DUP3 ADD PUSH1 0x1 PUSH1 0x1 PUSH1 0x40 SHL SUB DUP2 GT DUP4 DUP3 LT OR PUSH3 0x1DAD JUMPI PUSH1 0x40 MSTORE JUMP JUMPDEST PUSH1 0x40 DUP1 MLOAD SWAP2 SWAP1 DUP3 ADD PUSH1 0x1 PUSH1 0x1 PUSH1 0x40 SHL SUB DUP2 GT DUP4 DUP3 LT OR PUSH3 0x1DAD JUMPI PUSH1 0x40 MSTORE JUMP JUMPDEST PUSH1 0x40 MLOAD SWAP1 PUSH1 0x60 DUP3 ADD PUSH1 0x1 PUSH1 0x1 PUSH1 0x40 SHL SUB DUP2 GT DUP4 DUP3 LT OR PUSH3 0x1DAD JUMPI PUSH1 0x40 MSTORE JUMP JUMPDEST PUSH1 0x4 GT ISZERO PUSH3 0x1E9D JUMPI JUMP JUMPDEST PUSH1 0x0 NOT DUP2 EQ PUSH3 0x31CF JUMPI PUSH1 0x1 ADD SWAP1 JUMP JUMPDEST PUSH4 0x4E487B71 PUSH1 0xE0 SHL PUSH1 0x0 MSTORE PUSH1 0x11 PUSH1 0x4 MSTORE PUSH1 0x24 PUSH1 0x0 REVERT INVALID PUSH1 0xA0 PUSH1 0x40 MSTORE PUSH1 0x4 CALLDATASIZE LT ISZERO PUSH2 0x1B JUMPI JUMPDEST CALLDATASIZE ISZERO PUSH2 0x19 JUMPI PUSH1 0x0 DUP1 REVERT JUMPDEST STOP JUMPDEST PUSH1 0x0 CALLDATALOAD PUSH1 0xE0 SHR DUP1 PUSH4 0x3988F84 EQ PUSH2 0x2AE4 JUMPI DUP1 PUSH4 0x9CD4E26 EQ PUSH2 0x2AB1 JUMPI DUP1 PUSH4 0xB0F5853 EQ PUSH2 0x2A39 JUMPI DUP1 PUSH4 0x217328B6 EQ PUSH2 0x2A1B JUMPI DUP1 PUSH4 0x31543CF4 EQ PUSH2 0x2954 JUMPI DUP1 PUSH4 0x31EA1A39 EQ PUSH2 0x2820 JUMPI DUP1 PUSH4 0x34B25EE2 EQ PUSH2 0x26A7 JUMPI DUP1 PUSH4 0x3549A191 EQ PUSH2 0x268B JUMPI DUP1 PUSH4 0x4A5EE49D EQ PUSH2 0x2603 JUMPI DUP1 PUSH4 0x564A565D EQ PUSH2 0x2577 JUMPI DUP1 PUSH4 0x5AEF573C EQ PUSH2 0x2216 JUMPI DUP1 PUSH4 0x60E9450D EQ PUSH2 0x1E33 JUMPI DUP1 PUSH4 0x618D1D4A EQ PUSH2 0x1BDB JUMPI DUP1 PUSH4 0x63302E6E EQ PUSH2 0x1B91 JUMPI DUP1 PUSH4 0x6E607FA7 EQ PUSH2 0x1B42 JUMPI DUP1 PUSH4 0x7D41702E EQ PUSH2 0x18DD JUMPI DUP1 PUSH4 0x82FD5BAC EQ PUSH2 0x1525 JUMPI DUP1 PUSH4 0x8878A83E EQ PUSH2 0x13DC JUMPI DUP1 PUSH4 0x8C639A85 EQ PUSH2 0x13BE JUMPI DUP1 PUSH4 0x8DA5CB5B EQ PUSH2 0x1395 JUMPI DUP1 PUSH4 0x8E46A300 EQ PUSH2 0x1210 JUMPI DUP1 PUSH4 0x9A891716 EQ PUSH2 0x11D1 JUMPI DUP1 PUSH4 0xA310DFFD EQ PUSH2 0x11B5 JUMPI DUP1 PUSH4 0xAA0B5988 EQ PUSH2 0x114C JUMPI DUP1 PUSH4 0xADA4EF30 EQ PUSH2 0x1100 JUMPI DUP1 PUSH4 0xBC525652 EQ PUSH2 0x1037 JUMPI DUP1 PUSH4 0xBDE8D5AD EQ PUSH2 0xE90 JUMPI DUP1 PUSH4 0xCA2DFD0A EQ PUSH2 0xE44 JUMPI DUP1 PUSH4 0xD285680D EQ PUSH2 0xE26 JUMPI DUP1 PUSH4 0xD9548E53 EQ PUSH2 0xDF5 JUMPI DUP1 PUSH4 0xDD893783 EQ PUSH2 0xDD9 JUMPI DUP1 PUSH4 0xE3A96CBD EQ PUSH2 0xCDE JUMPI DUP1 PUSH4 0xE4357CD7 EQ PUSH2 0xB06 JUMPI DUP1 PUSH4 0xEACCAFDE EQ PUSH2 0xAAE JUMPI DUP1 PUSH4 0xFA2AF9DA EQ PUSH2 0xA85 JUMPI PUSH4 0xFDF71C29 SUB PUSH2 0xE JUMPI PUSH2 0x100 CALLDATASIZE PUSH1 0x3 NOT ADD SLT PUSH2 0xA80 JUMPI PUSH1 0xC PUSH1 0x4 CALLDATALOAD LT ISZERO PUSH2 0xA80 JUMPI PUSH1 0x24 DUP1 CALLDATALOAD PUSH1 0x1 PUSH1 0x1 PUSH1 0x40 SHL SUB DUP2 GT PUSH2 0xA80 JUMPI PUSH2 0x1E4 SWAP1 CALLDATASIZE SWAP1 PUSH1 0x4 ADD PUSH2 0x2F84 JUMP JUMPDEST PUSH1 0x44 CALLDATALOAD PUSH1 0x1 PUSH1 0x1 PUSH1 0x40 SHL SUB DUP2 GT PUSH2 0xA80 JUMPI PUSH2 0x203 SWAP1 CALLDATASIZE SWAP1 PUSH1 0x4 ADD PUSH2 0x2F84 JUMP JUMPDEST PUSH1 0x64 SWAP4 SWAP2 SWAP4 CALLDATALOAD PUSH1 0x1 PUSH1 0x1 PUSH1 0x40 SHL SUB DUP2 GT PUSH2 0xA80 JUMPI PUSH2 0x225 SWAP1 CALLDATASIZE SWAP1 PUSH1 0x4 ADD PUSH2 0x2F84 JUMP JUMPDEST SWAP1 SWAP2 PUSH1 0x4 PUSH1 0xC4 CALLDATALOAD LT ISZERO PUSH2 0xA80 JUMPI PUSH1 0x4 PUSH1 0xE4 CALLDATALOAD LT ISZERO PUSH2 0xA80 JUMPI CALLVALUE ISZERO PUSH2 0xA48 JUMPI PUSH1 0x84 CALLDATALOAD ISZERO ISZERO DUP1 PUSH2 0xA3A JUMPI JUMPDEST ISZERO PUSH2 0xA03 JUMPI PUSH1 0x32 PUSH1 0xA4 CALLDATALOAD GT PUSH2 0x9C9 JUMPI PUSH1 0x0 SLOAD SWAP6 PUSH2 0x26A DUP8 PUSH2 0x303B JUMP JUMPDEST PUSH1 0x0 SSTORE PUSH1 0x64 PUSH2 0x27B PUSH1 0xA4 CALLDATALOAD CALLVALUE PUSH2 0x3012 JUMP JUMPDEST DIV SWAP2 PUSH2 0x287 DUP4 CALLVALUE PUSH2 0x304A JUMP JUMPDEST SWAP3 PUSH2 0xE10 SWAP7 DUP8 PUSH1 0x84 CALLDATALOAD MUL SWAP8 PUSH1 0x84 CALLDATALOAD DUP10 DIV EQ PUSH1 0x84 CALLDATALOAD ISZERO OR ISZERO PUSH2 0x9B4 JUMPI DUP8 TIMESTAMP ADD TIMESTAMP GT PUSH2 0x9B4 JUMPI PUSH2 0x100 SWAP9 PUSH2 0x374 SWAP9 PUSH2 0x367 SWAP7 PUSH2 0x35A SWAP5 PUSH2 0x2C6 PUSH1 0xC4 CALLDATALOAD PUSH2 0x2E58 JUMP JUMPDEST PUSH1 0x0 PUSH1 0x40 MLOAD SWAP14 DUP15 PUSH2 0x2D6 DUP2 PUSH2 0x2D5B JUMP JUMPDEST CALLER DUP2 MSTORE DUP3 PUSH1 0x20 DUP3 ADD MSTORE DUP3 PUSH1 0x40 DUP3 ADD MSTORE PUSH2 0x2F4 PUSH1 0x4 CALLDATALOAD PUSH1 0x60 DUP4 ADD PUSH2 0x3057 JUMP JUMPDEST DUP3 PUSH1 0x80 DUP3 ADD MSTORE PUSH2 0x305 PUSH1 0xE4 CALLDATALOAD PUSH2 0x2E58 JUMP JUMPDEST PUSH1 0xE4 CALLDATALOAD PUSH1 0xA0 DUP3 ADD MSTORE PUSH2 0x318 PUSH1 0xC4 CALLDATALOAD PUSH2 0x2E58 JUMP JUMPDEST PUSH1 0xC4 CALLDATALOAD PUSH1 0xC0 DUP3 ADD MSTORE CALLVALUE PUSH1 0xE0 DUP3 ADD MSTORE ADD MSTORE PUSH2 0x120 DUP14 ADD MSTORE PUSH2 0x140 DUP13 ADD MSTORE TIMESTAMP PUSH2 0x160 DUP13 ADD MSTORE PUSH1 0x0 PUSH2 0x180 DUP13 ADD MSTORE TIMESTAMP ADD PUSH2 0x1A0 DUP12 ADD MSTORE PUSH1 0x0 PUSH2 0x1C0 DUP12 ADD MSTORE CALLDATASIZE SWAP2 PUSH2 0x3063 JUMP JUMPDEST PUSH2 0x1E0 DUP9 ADD MSTORE CALLDATASIZE SWAP2 PUSH2 0x3063 JUMP JUMPDEST PUSH2 0x200 DUP6 ADD MSTORE CALLDATASIZE SWAP2 PUSH2 0x3063 JUMP JUMPDEST PUSH2 0x220 DUP3 ADD MSTORE PUSH1 0x40 MLOAD DUP1 PUSH1 0x20 DUP2 ADD LT PUSH1 0x1 PUSH1 0x1 PUSH1 0x40 SHL SUB PUSH1 0x20 DUP4 ADD GT OR PUSH2 0x99F JUMPI PUSH1 0x20 DUP2 ADD PUSH1 0x40 MSTORE PUSH1 0x0 DUP2 MSTORE PUSH2 0x240 DUP3 ADD MSTORE PUSH1 0xC4 CALLDATALOAD ISZERO ISZERO PUSH2 0x260 DUP3 ADD MSTORE PUSH1 0xA4 CALLDATALOAD ISZERO ISZERO PUSH2 0x280 DUP3 ADD MSTORE PUSH1 0x1 PUSH2 0x2A0 DUP3 ADD MSTORE PUSH1 0x0 PUSH2 0x2C0 DUP3 ADD MSTORE DUP2 PUSH1 0x0 MSTORE PUSH1 0x5 PUSH1 0x20 MSTORE PUSH1 0x40 PUSH1 0x0 KECCAK256 PUSH1 0x1 DUP1 PUSH1 0xA0 SHL SUB DUP1 DUP4 MLOAD AND PUSH1 0x1 PUSH1 0x1 PUSH1 0x60 SHL SUB PUSH1 0xA0 SHL SWAP1 DUP2 DUP5 SLOAD AND OR DUP4 SSTORE PUSH1 0x1 DUP4 ADD SWAP1 DUP3 PUSH1 0x20 DUP7 ADD MLOAD AND SWAP1 DUP3 SLOAD AND OR SWAP1 SSTORE PUSH1 0x40 DUP4 ADD MLOAD AND PUSH1 0x2 DUP3 ADD SLOAD PUSH1 0x60 DUP5 ADD MLOAD PUSH1 0xC DUP2 LT ISZERO PUSH2 0x98A JUMPI PUSH1 0x80 DUP6 ADD MLOAD SWAP1 PUSH1 0x9 DUP3 LT ISZERO PUSH2 0x975 JUMPI PUSH1 0xA0 DUP7 ADD MLOAD SWAP4 PUSH2 0x442 DUP6 PUSH2 0x2E58 JUMP JUMPDEST PUSH2 0x44B DUP6 PUSH2 0x2E58 JUMP JUMPDEST PUSH1 0xC0 DUP8 ADD MLOAD PUSH2 0x459 DUP2 PUSH2 0x2E58 JUMP JUMPDEST PUSH2 0x462 DUP2 PUSH2 0x2E58 JUMP JUMPDEST PUSH1 0xFF PUSH1 0xB8 SHL SWAP1 PUSH1 0xB8 SHL AND SWAP5 PUSH1 0xFF PUSH1 0xB0 SHL SWAP1 PUSH1 0xB0 SHL AND SWAP4 PUSH1 0x1 PUSH1 0x1 PUSH1 0x40 SHL SUB PUSH1 0xC0 SHL AND OR SWAP1 PUSH1 0xFF PUSH1 0xA0 SHL SWAP1 PUSH1 0xA0 SHL AND OR SWAP1 PUSH1 0xFF PUSH1 0xA8 SHL SWAP1 PUSH1 0xA8 SHL AND OR OR OR PUSH1 0x2 DUP3 ADD SSTORE PUSH1 0xE0 DUP3 ADD MLOAD PUSH1 0x3 DUP3 ADD SSTORE PUSH2 0x100 DUP3 ADD MLOAD PUSH1 0x4 DUP3 ADD SSTORE PUSH2 0x120 DUP3 ADD MLOAD PUSH1 0x5 DUP3 ADD SSTORE PUSH2 0x140 DUP3 ADD MLOAD PUSH1 0x6 DUP3 ADD SSTORE PUSH2 0x160 DUP3 ADD MLOAD PUSH1 0x7 DUP3 ADD SSTORE PUSH2 0x180 DUP3 ADD MLOAD PUSH1 0x8 DUP3 ADD SSTORE PUSH2 0x1A0 DUP3 ADD MLOAD PUSH1 0x9 DUP3 ADD SSTORE PUSH2 0x1C0 DUP3 ADD MLOAD PUSH1 0xA DUP3 ADD SSTORE PUSH2 0x1E0 DUP3 ADD MLOAD DUP1 MLOAD SWAP1 PUSH1 0x1 PUSH1 0x1 PUSH1 0x40 SHL SUB DUP3 GT PUSH2 0x7E9 JUMPI DUP2 SWAP1 PUSH2 0x52E DUP3 PUSH2 0x525 PUSH1 0xB DUP8 ADD SLOAD PUSH2 0x2CEA JUMP JUMPDEST PUSH1 0xB DUP8 ADD PUSH2 0x30A9 JUMP JUMPDEST PUSH1 0x20 SWAP1 PUSH1 0x1F DUP4 GT PUSH1 0x1 EQ PUSH2 0x903 JUMPI PUSH1 0x0 SWAP3 PUSH2 0x8F8 JUMPI JUMPDEST POP POP DUP2 PUSH1 0x1 SHL SWAP2 PUSH1 0x0 NOT SWAP1 PUSH1 0x3 SHL SHR NOT AND OR PUSH1 0xB DUP3 ADD SSTORE JUMPDEST PUSH2 0x200 DUP3 ADD MLOAD DUP1 MLOAD SWAP1 PUSH1 0x1 PUSH1 0x1 PUSH1 0x40 SHL SUB DUP3 GT PUSH2 0x7E9 JUMPI DUP2 SWAP1 PUSH2 0x58F DUP3 PUSH2 0x586 PUSH1 0xC DUP8 ADD SLOAD PUSH2 0x2CEA JUMP JUMPDEST PUSH1 0xC DUP8 ADD PUSH2 0x30A9 JUMP JUMPDEST PUSH1 0x20 SWAP1 PUSH1 0x1F DUP4 GT PUSH1 0x1 EQ PUSH2 0x886 JUMPI PUSH1 0x0 SWAP3 PUSH2 0x87B JUMPI JUMPDEST POP POP DUP2 PUSH1 0x1 SHL SWAP2 PUSH1 0x0 NOT SWAP1 PUSH1 0x3 SHL SHR NOT AND OR PUSH1 0xC DUP3 ADD SSTORE JUMPDEST PUSH2 0x220 DUP3 ADD MLOAD DUP1 MLOAD SWAP1 PUSH1 0x1 PUSH1 0x1 PUSH1 0x40 SHL SUB DUP3 GT PUSH2 0x7E9 JUMPI DUP2 SWAP1 PUSH2 0x5F0 DUP3 PUSH2 0x5E7 PUSH1 0xD DUP8 ADD SLOAD PUSH2 0x2CEA JUMP JUMPDEST PUSH1 0xD DUP8 ADD PUSH2 0x30A9 JUMP JUMPDEST PUSH1 0x20 SWAP1 PUSH1 0x1F DUP4 GT PUSH1 0x1 EQ PUSH2 0x809 JUMPI PUSH1 0x0 SWAP3 PUSH2 0x7FE JUMPI JUMPDEST POP POP DUP2 PUSH1 0x1 SHL SWAP2 PUSH1 0x0 NOT SWAP1 PUSH1 0x3 SHL SHR NOT AND OR PUSH1 0xD DUP3 ADD SSTORE JUMPDEST PUSH2 0x240 DUP3 ADD MLOAD DUP1 MLOAD SWAP1 PUSH1 0x1 PUSH1 0x1 PUSH1 0x40 SHL SUB DUP3 GT PUSH2 0x7E9 JUMPI PUSH1 0x20 SWAP6 POP PUSH2 0x653 DUP3 PUSH2 0x64A PUSH1 0xE DUP7 ADD SLOAD PUSH2 0x2CEA JUMP JUMPDEST PUSH1 0xE DUP7 ADD PUSH2 0x30A9 JUMP JUMPDEST DUP6 SWAP1 PUSH1 0x1F DUP4 GT PUSH1 0x1 EQ PUSH2 0x775 JUMPI SWAP2 DUP1 PUSH2 0x2C0 SWAP5 SWAP3 PUSH1 0xF SWAP5 PUSH1 0x0 SWAP3 PUSH2 0x76A JUMPI JUMPDEST POP POP DUP2 PUSH1 0x1 SHL SWAP2 PUSH1 0x0 NOT SWAP1 PUSH1 0x3 SHL SHR NOT AND OR PUSH1 0xE DUP3 ADD SSTORE JUMPDEST ADD SWAP2 PUSH2 0x6A9 PUSH2 0x260 DUP3 ADD MLOAD ISZERO ISZERO DUP5 SWAP1 PUSH1 0xFF DUP1 NOT DUP4 SLOAD AND SWAP2 ISZERO ISZERO AND OR SWAP1 SSTORE JUMP JUMPDEST PUSH2 0x280 DUP2 ADD MLOAD DUP4 SLOAD PUSH2 0xFF00 NOT AND SWAP1 ISZERO ISZERO PUSH1 0x8 SHL PUSH2 0xFF00 AND OR DUP4 SSTORE PUSH2 0x2A0 DUP2 ADD MLOAD DUP4 SLOAD PUSH3 0xFF0000 NOT AND SWAP1 ISZERO ISZERO PUSH1 0x10 SHL PUSH3 0xFF0000 AND OR DUP4 SSTORE ADD MLOAD ISZERO ISZERO PUSH4 0xFF000000 DUP3 SLOAD SWAP2 PUSH1 0x18 SHL AND SWAP1 PUSH4 0xFF000000 NOT AND OR SWAP1 SSTORE CALLER PUSH1 0x0 MSTORE PUSH1 0x9 DUP3 MSTORE PUSH2 0x710 DUP2 PUSH1 0x40 PUSH1 0x0 KECCAK256 PUSH2 0x30FD JUMP JUMPDEST DUP1 PUSH1 0x0 MSTORE PUSH1 0x5 DUP3 MSTORE PUSH1 0x9 PUSH1 0x40 PUSH1 0x0 KECCAK256 ADD SLOAD PUSH1 0x40 MLOAD SWAP1 PUSH2 0x731 DUP3 PUSH1 0x4 CALLDATALOAD PUSH2 0x2E3E JUMP JUMPDEST CALLVALUE DUP5 DUP4 ADD MSTORE PUSH1 0x40 DUP3 ADD MSTORE DUP2 PUSH32 0x841E774526CD6A8C3E75C7B46D25E48A6B593A2F6BCB872DE31AC378E855EEF PUSH1 0x60 CALLER SWAP4 LOG3 PUSH1 0x40 MLOAD SWAP1 DUP2 MSTORE RETURN JUMPDEST ADD MLOAD SWAP1 POP CODESIZE DUP1 PUSH2 0x672 JUMP JUMPDEST SWAP1 PUSH1 0xE DUP5 ADD PUSH1 0x0 MSTORE DUP7 PUSH1 0x0 KECCAK256 SWAP2 PUSH1 0x0 JUMPDEST PUSH1 0x1F NOT DUP6 AND DUP2 LT PUSH2 0x7D2 JUMPI POP SWAP3 PUSH2 0x2C0 SWAP5 SWAP3 PUSH1 0x1 SWAP3 PUSH1 0xF SWAP6 DUP4 PUSH1 0x1F NOT DUP2 AND LT PUSH2 0x7B9 JUMPI JUMPDEST POP POP POP DUP2 SHL ADD PUSH1 0xE DUP3 ADD SSTORE PUSH2 0x68A JUMP JUMPDEST ADD MLOAD PUSH1 0x0 NOT PUSH1 0xF8 DUP5 PUSH1 0x3 SHL AND SHR NOT AND SWAP1 SSTORE CODESIZE DUP1 DUP1 PUSH2 0x7A9 JUMP JUMPDEST SWAP2 SWAP3 DUP9 PUSH1 0x1 DUP2 SWAP3 DUP7 DUP6 ADD MLOAD DUP2 SSTORE ADD SWAP5 ADD SWAP3 ADD PUSH2 0x785 JUMP JUMPDEST DUP6 PUSH4 0x4E487B71 PUSH1 0xE0 SHL PUSH1 0x0 MSTORE PUSH1 0x41 PUSH1 0x4 MSTORE PUSH1 0x0 REVERT JUMPDEST ADD MLOAD SWAP1 POP CODESIZE DUP1 PUSH2 0x606 JUMP JUMPDEST SWAP3 POP PUSH1 0xD DUP5 ADD PUSH1 0x0 MSTORE PUSH1 0x20 PUSH1 0x0 KECCAK256 SWAP1 PUSH1 0x0 SWAP4 JUMPDEST PUSH1 0x1F NOT DUP5 AND DUP6 LT PUSH2 0x860 JUMPI PUSH1 0x1 SWAP5 POP DUP4 PUSH1 0x1F NOT DUP2 AND LT PUSH2 0x847 JUMPI JUMPDEST POP POP POP DUP2 SHL ADD PUSH1 0xD DUP3 ADD SSTORE PUSH2 0x61E JUMP JUMPDEST ADD MLOAD PUSH1 0x0 NOT PUSH1 0xF8 DUP5 PUSH1 0x3 SHL AND SHR NOT AND SWAP1 SSTORE CODESIZE DUP1 DUP1 PUSH2 0x837 JUMP JUMPDEST DUP2 DUP2 ADD MLOAD DUP4 SSTORE PUSH1 0x20 SWAP5 DUP6 ADD SWAP5 PUSH1 0x1 SWAP1 SWAP4 ADD SWAP3 SWAP1 SWAP2 ADD SWAP1 PUSH2 0x81C JUMP JUMPDEST ADD MLOAD SWAP1 POP CODESIZE DUP1 PUSH2 0x5A5 JUMP JUMPDEST SWAP3 POP PUSH1 0xC DUP5 ADD PUSH1 0x0 MSTORE PUSH1 0x20 PUSH1 0x0 KECCAK256 SWAP1 PUSH1 0x0 SWAP4 JUMPDEST PUSH1 0x1F NOT DUP5 AND DUP6 LT PUSH2 0x8DD JUMPI PUSH1 0x1 SWAP5 POP DUP4 PUSH1 0x1F NOT DUP2 AND LT PUSH2 0x8C4 JUMPI JUMPDEST POP POP POP DUP2 SHL ADD PUSH1 0xC DUP3 ADD SSTORE PUSH2 0x5BD JUMP JUMPDEST ADD MLOAD PUSH1 0x0 NOT PUSH1 0xF8 DUP5 PUSH1 0x3 SHL AND SHR NOT AND SWAP1 SSTORE CODESIZE DUP1 DUP1 PUSH2 0x8B4 JUMP JUMPDEST DUP2 DUP2 ADD MLOAD DUP4 SSTORE PUSH1 0x20 SWAP5 DUP6 ADD SWAP5 PUSH1 0x1 SWAP1 SWAP4 ADD SWAP3 SWAP1 SWAP2 ADD SWAP1 PUSH2 0x899 JUMP JUMPDEST ADD MLOAD SWAP1 POP CODESIZE DUP1 PUSH2 0x544 JUMP JUMPDEST SWAP3 POP PUSH1 0xB DUP5 ADD PUSH1 0x0 MSTORE PUSH1 0x20 PUSH1 0x0 KECCAK256 SWAP1 PUSH1 0x0 SWAP4 JUMPDEST PUSH1 0x1F NOT DUP5 AND DUP6 LT PUSH2 0x95A JUMPI PUSH1 0x1 SWAP5 POP DUP4 PUSH1 0x1F NOT DUP2 AND LT PUSH2 0x941 JUMPI JUMPDEST POP POP POP DUP2 SHL ADD PUSH1 0xB DUP3 ADD SSTORE PUSH2 0x55C JUMP JUMPDEST ADD MLOAD PUSH1 0x0 NOT PUSH1 0xF8 DUP5 PUSH1 0x3 SHL AND SHR NOT AND SWAP1 SSTORE CODESIZE DUP1 DUP1 PUSH2 0x931 JUMP JUMPDEST DUP2 DUP2 ADD MLOAD DUP4 SSTORE PUSH1 0x20 SWAP5 DUP6 ADD SWAP5 PUSH1 0x1 SWAP1 SWAP4 ADD SWAP3 SWAP1 SWAP2 ADD SWAP1 PUSH2 0x916 JUMP JUMPDEST DUP8 PUSH4 0x4E487B71 PUSH1 0xE0 SHL PUSH1 0x0 MSTORE PUSH1 0x21 PUSH1 0x4 MSTORE PUSH1 0x0 REVERT JUMPDEST DUP7 PUSH4 0x4E487B71 PUSH1 0xE0 SHL PUSH1 0x0 MSTORE PUSH1 0x21 PUSH1 0x4 MSTORE PUSH1 0x0 REVERT JUMPDEST DUP4 PUSH4 0x4E487B71 PUSH1 0xE0 SHL PUSH1 0x0 MSTORE PUSH1 0x41 PUSH1 0x4 MSTORE PUSH1 0x0 REVERT JUMPDEST DUP11 PUSH4 0x4E487B71 PUSH1 0xE0 SHL PUSH1 0x0 MSTORE PUSH1 0x11 PUSH1 0x4 MSTORE PUSH1 0x0 REVERT JUMPDEST PUSH1 0x40 MLOAD PUSH3 0x461BCD PUSH1 0xE5 SHL DUP2 MSTORE PUSH1 0x20 PUSH1 0x4 DUP3 ADD MSTORE PUSH1 0x13 DUP2 DUP10 ADD MSTORE PUSH19 0x86DEDADAD2E840CCCACA40E8DEDE40D0D2CED PUSH1 0x6B SHL PUSH1 0x44 DUP3 ADD MSTORE PUSH1 0x64 SWAP1 REVERT JUMPDEST PUSH1 0x40 MLOAD PUSH3 0x461BCD PUSH1 0xE5 SHL DUP2 MSTORE PUSH1 0x20 PUSH1 0x4 DUP3 ADD MSTORE PUSH1 0x10 DUP2 DUP10 ADD MSTORE PUSH16 0x496E76616C696420646561646C696E65 PUSH1 0x80 SHL PUSH1 0x44 DUP3 ADD MSTORE PUSH1 0x64 SWAP1 REVERT JUMPDEST POP PUSH2 0x870 PUSH1 0x84 CALLDATALOAD GT ISZERO PUSH2 0x24E JUMP JUMPDEST PUSH1 0x40 MLOAD PUSH3 0x461BCD PUSH1 0xE5 SHL DUP2 MSTORE PUSH1 0x20 PUSH1 0x4 DUP3 ADD MSTORE PUSH1 0x11 DUP2 DUP10 ADD MSTORE PUSH17 0x135D5CDD081B1BD8DAC81C185E5B595B9D PUSH1 0x7A SHL PUSH1 0x44 DUP3 ADD MSTORE PUSH1 0x64 SWAP1 REVERT JUMPDEST PUSH1 0x0 DUP1 REVERT JUMPDEST CALLVALUE PUSH2 0xA80 JUMPI PUSH1 0x0 CALLDATASIZE PUSH1 0x3 NOT ADD SLT PUSH2 0xA80 JUMPI PUSH1 0x3 SLOAD PUSH1 0x40 MLOAD PUSH1 0x1 PUSH1 0x1 PUSH1 0xA0 SHL SUB SWAP1 SWAP2 AND DUP2 MSTORE PUSH1 0x20 SWAP1 RETURN JUMPDEST CALLVALUE PUSH2 0xA80 JUMPI PUSH1 0x40 CALLDATASIZE PUSH1 0x3 NOT ADD SLT PUSH2 0xA80 JUMPI PUSH2 0xAC7 PUSH2 0x2EA2 JUMP JUMPDEST PUSH1 0x1 PUSH1 0x1 PUSH1 0xA0 SHL SUB AND PUSH1 0x0 SWAP1 DUP2 MSTORE PUSH1 0xA PUSH1 0x20 MSTORE PUSH1 0x40 SWAP1 KECCAK256 DUP1 SLOAD PUSH1 0x24 CALLDATALOAD SWAP2 SWAP1 DUP3 LT ISZERO PUSH2 0xA80 JUMPI PUSH1 0x20 SWAP2 PUSH2 0xAF8 SWAP2 PUSH2 0x2FE4 JUMP JUMPDEST SWAP1 SLOAD PUSH1 0x40 MLOAD SWAP2 PUSH1 0x3 SHL SHR DUP2 MSTORE RETURN JUMPDEST CALLVALUE PUSH2 0xA80 JUMPI PUSH1 0x20 CALLDATASIZE PUSH1 0x3 NOT ADD SLT PUSH2 0xA80 JUMPI PUSH1 0x4 CALLDATALOAD PUSH2 0xB27 PUSH1 0x0 SLOAD DUP3 LT PUSH2 0x3137 JUMP JUMPDEST DUP1 PUSH1 0x0 MSTORE PUSH1 0x5 PUSH1 0x20 MSTORE PUSH1 0x40 PUSH1 0x0 KECCAK256 PUSH1 0x9 DUP2 ADD SLOAD TIMESTAMP GT ISZERO PUSH2 0xCA7 JUMPI PUSH1 0x2 DUP2 ADD DUP1 SLOAD PUSH1 0xFF DUP2 PUSH1 0xA8 SHR AND PUSH1 0x9 DUP2 LT ISZERO SWAP1 DUP2 PUSH2 0xC83 JUMPI DUP1 ISZERO SWAP2 DUP3 ISZERO PUSH2 0xC99 JUMPI JUMPDEST DUP3 ISZERO PUSH2 0xC72 JUMPI JUMPDEST POP POP ISZERO PUSH2 0xC39 JUMPI PUSH1 0xFF PUSH1 0xF DUP5 ADD SLOAD PUSH1 0x10 SHR AND PUSH2 0xB82 JUMPI STOP JUMPDEST PUSH1 0xFF PUSH1 0xA8 SHL NOT AND PUSH1 0x1 PUSH1 0xAB SHL OR SWAP1 SSTORE DUP1 SLOAD PUSH1 0x6 DUP3 ADD SLOAD PUSH1 0x1 PUSH1 0x1 PUSH1 0xA0 SHL SUB SWAP3 SWAP2 PUSH1 0x0 SWAP2 DUP3 SWAP2 DUP3 SWAP2 DUP3 SWAP2 DUP8 AND DUP3 DUP3 ISZERO PUSH2 0xC30 JUMPI JUMPDEST CALL ISZERO PUSH2 0xC1B JUMPI PUSH1 0x4 DUP2 ADD SLOAD SWAP2 DUP3 ISZERO SWAP2 DUP3 ISZERO PUSH2 0xBF6 JUMPI JUMPDEST POP POP POP POP PUSH32 0x4877925CD1E279C5D3B475B58CF04CBB9E3B70C517A2305AC4933C34D28CA24F PUSH1 0x0 DUP1 LOG2 STOP JUMPDEST PUSH1 0x0 SWAP4 DUP5 SWAP4 DUP5 SWAP4 PUSH1 0x1 DUP6 SWAP5 ADD SLOAD AND SWAP1 DUP4 SWAP1 PUSH2 0xC27 JUMPI JUMPDEST CALL ISZERO PUSH2 0xC1B JUMPI DUP2 DUP1 DUP1 DUP1 PUSH2 0xBCB JUMP JUMPDEST PUSH1 0x40 MLOAD RETURNDATASIZE PUSH1 0x0 DUP3 RETURNDATACOPY RETURNDATASIZE SWAP1 REVERT JUMPDEST POP PUSH2 0x8FC PUSH2 0xC0C JUMP JUMPDEST POP PUSH2 0x8FC PUSH2 0xBB5 JUMP JUMPDEST PUSH1 0x40 MLOAD PUSH3 0x461BCD PUSH1 0xE5 SHL DUP2 MSTORE PUSH1 0x20 PUSH1 0x4 DUP3 ADD MSTORE PUSH1 0x11 PUSH1 0x24 DUP3 ADD MSTORE PUSH17 0x105B1C9958591E48199A5B985B1A5E9959 PUSH1 0x7A SHL PUSH1 0x44 DUP3 ADD MSTORE PUSH1 0x64 SWAP1 REVERT JUMPDEST SWAP1 SWAP2 POP PUSH2 0xC83 JUMPI PUSH1 0x2 EQ DUP6 DUP1 PUSH2 0xB6A JUMP JUMPDEST PUSH4 0x4E487B71 PUSH1 0xE0 SHL PUSH1 0x0 MSTORE PUSH1 0x21 PUSH1 0x4 MSTORE PUSH1 0x24 PUSH1 0x0 REVERT JUMPDEST POP PUSH1 0x1 DUP2 EQ SWAP2 POP PUSH1 0x0 PUSH2 0xB63 JUMP JUMPDEST PUSH1 0x40 MLOAD PUSH3 0x461BCD PUSH1 0xE5 SHL DUP2 MSTORE PUSH1 0x20 PUSH1 0x4 DUP3 ADD MSTORE PUSH1 0xF PUSH1 0x24 DUP3 ADD MSTORE PUSH15 0x139BDD08195E1C1A5C9959081E595D PUSH1 0x8A SHL PUSH1 0x44 DUP3 ADD MSTORE PUSH1 0x64 SWAP1 REVERT JUMPDEST CALLVALUE PUSH2 0xA80 JUMPI PUSH1 0x20 DUP1 PUSH1 0x3 NOT CALLDATASIZE ADD SLT PUSH2 0xA80 JUMPI PUSH1 0x0 PUSH1 0xA0 PUSH1 0x40 MLOAD PUSH2 0xD00 DUP2 PUSH2 0x2D40 JUMP JUMPDEST DUP3 DUP2 MSTORE DUP3 DUP5 DUP3 ADD MSTORE PUSH1 0x60 PUSH1 0x40 DUP3 ADD MSTORE DUP3 PUSH1 0x60 DUP3 ADD MSTORE DUP3 PUSH1 0x80 DUP3 ADD MSTORE ADD MSTORE PUSH1 0x4 CALLDATALOAD PUSH1 0x0 MSTORE PUSH1 0x7 DUP2 MSTORE PUSH1 0x40 PUSH1 0x0 KECCAK256 PUSH1 0x40 MLOAD SWAP1 PUSH2 0xD39 DUP3 PUSH2 0x2D40 JUMP JUMPDEST DUP1 SLOAD DUP3 MSTORE PUSH1 0x1 DUP2 ADD SLOAD PUSH1 0x1 PUSH1 0x1 PUSH1 0xA0 SHL SUB SWAP1 DUP2 AND DUP5 DUP5 ADD SWAP1 DUP2 MSTORE PUSH2 0xDBE PUSH2 0xD62 PUSH1 0x2 DUP6 ADD PUSH2 0x2D98 JUMP JUMPDEST PUSH1 0x40 DUP7 ADD SWAP1 DUP2 MSTORE PUSH1 0x4 PUSH1 0x3 DUP7 ADD SLOAD SWAP6 PUSH1 0x60 DUP9 ADD SWAP7 DUP8 MSTORE ADD SLOAD SWAP4 PUSH1 0x80 DUP8 ADD SWAP4 PUSH1 0xFF DUP7 AND ISZERO ISZERO DUP6 MSTORE PUSH1 0xFF PUSH1 0xA0 DUP10 ADD SWAP7 PUSH1 0x8 SHR AND ISZERO ISZERO DUP7 MSTORE PUSH1 0x40 MLOAD SWAP9 DUP10 SWAP9 DUP2 DUP11 MSTORE MLOAD SWAP1 DUP10 ADD MSTORE MLOAD AND PUSH1 0x40 DUP8 ADD MSTORE MLOAD PUSH1 0xC0 PUSH1 0x60 DUP8 ADD MSTORE PUSH1 0xE0 DUP7 ADD SWAP1 PUSH2 0x2E62 JUMP JUMPDEST SWAP3 MLOAD PUSH1 0x80 DUP6 ADD MSTORE MLOAD ISZERO ISZERO PUSH1 0xA0 DUP5 ADD MSTORE MLOAD ISZERO ISZERO PUSH1 0xC0 DUP4 ADD MSTORE SUB SWAP1 RETURN JUMPDEST CALLVALUE PUSH2 0xA80 JUMPI PUSH1 0x0 CALLDATASIZE PUSH1 0x3 NOT ADD SLT PUSH2 0xA80 JUMPI PUSH1 0x20 PUSH1 0x40 MLOAD PUSH1 0x5A DUP2 MSTORE RETURN JUMPDEST CALLVALUE PUSH2 0xA80 JUMPI PUSH1 0x20 CALLDATASIZE PUSH1 0x3 NOT ADD SLT PUSH2 0xA80 JUMPI PUSH1 0x4 CALLDATALOAD PUSH1 0x0 MSTORE PUSH1 0x5 PUSH1 0x20 MSTORE PUSH1 0x20 PUSH1 0x9 PUSH1 0x40 PUSH1 0x0 KECCAK256 ADD SLOAD TIMESTAMP GT PUSH1 0x40 MLOAD SWAP1 DUP2 MSTORE RETURN JUMPDEST CALLVALUE PUSH2 0xA80 JUMPI PUSH1 0x0 CALLDATASIZE PUSH1 0x3 NOT ADD SLT PUSH2 0xA80 JUMPI PUSH1 0x20 PUSH1 0x1 SLOAD PUSH1 0x40 MLOAD SWAP1 DUP2 MSTORE RETURN JUMPDEST CALLVALUE PUSH2 0xA80 JUMPI PUSH1 0x20 CALLDATASIZE PUSH1 0x3 NOT ADD SLT PUSH2 0xA80 JUMPI PUSH2 0xE5D PUSH2 0x2EA2 JUMP JUMPDEST PUSH1 0x2 SLOAD PUSH1 0x1 PUSH1 0x1 PUSH1 0xA0 SHL SUB SWAP2 SWAP1 PUSH2 0xE77 SWAP1 DUP4 AND CALLER EQ PUSH2 0x319A JUMP JUMPDEST AND PUSH1 0x0 SWAP1 DUP2 MSTORE PUSH1 0x8 PUSH1 0x20 MSTORE PUSH1 0x40 SWAP1 KECCAK256 DUP1 SLOAD PUSH1 0xFF NOT AND SWAP1 SSTORE STOP JUMPDEST CALLVALUE PUSH2 0xA80 JUMPI PUSH1 0x60 CALLDATASIZE PUSH1 0x3 NOT ADD SLT PUSH2 0xA80 JUMPI PUSH1 0x4 CALLDATALOAD PUSH2 0xEAC PUSH2 0x2F75 JUMP JUMPDEST SWAP1 PUSH1 0x44 CALLDATALOAD PUSH1 0x1 PUSH1 0x1 PUSH1 0x40 SHL SUB DUP2 GT PUSH2 0xA80 JUMPI PUSH2 0xECC SWAP1 CALLDATASIZE SWAP1 PUSH1 0x4 ADD PUSH2 0x2F84 JUMP JUMPDEST SWAP1 SWAP3 DUP3 PUSH1 0x0 MSTORE PUSH1 0x5 PUSH1 0x20 MSTORE PUSH1 0x1 DUP1 PUSH1 0xA0 SHL SUB PUSH1 0x2 PUSH1 0x40 PUSH1 0x0 KECCAK256 ADD SLOAD AND CALLER EQ DUP1 ISZERO PUSH2 0x101F JUMPI JUMPDEST ISZERO PUSH2 0xFDA JUMPI PUSH2 0xF03 PUSH1 0x0 SLOAD DUP5 LT PUSH2 0x3137 JUMP JUMPDEST DUP3 PUSH1 0x0 MSTORE PUSH1 0x5 PUSH1 0x20 MSTORE PUSH1 0x2 PUSH1 0x40 PUSH1 0x0 KECCAK256 ADD DUP1 SLOAD PUSH1 0xFF DUP2 PUSH1 0xA8 SHR AND PUSH1 0x9 DUP2 LT ISZERO SWAP1 DUP2 PUSH2 0xC83 JUMPI PUSH1 0x2 DUP2 EQ SWAP2 DUP3 ISZERO PUSH2 0xFCC JUMPI JUMPDEST DUP3 ISZERO PUSH2 0xFBB JUMPI JUMPDEST POP POP ISZERO PUSH2 0xF76 JUMPI PUSH1 0xFF PUSH1 0xA8 SHL NOT AND PUSH1 0x3 PUSH1 0xA8 SHL OR SWAP1 SSTORE ISZERO PUSH2 0xF61 JUMPI POP PUSH2 0x19 SWAP2 POP PUSH2 0x323D JUMP JUMPDEST PUSH2 0x19 SWAP3 PUSH2 0xF70 SWAP2 CALLDATASIZE SWAP2 PUSH2 0x3063 JUMP JUMPDEST SWAP1 PUSH2 0x337C JUMP JUMPDEST PUSH1 0x40 MLOAD PUSH3 0x461BCD PUSH1 0xE5 SHL DUP2 MSTORE PUSH1 0x20 PUSH1 0x4 DUP3 ADD MSTORE PUSH1 0x1C PUSH1 0x24 DUP3 ADD MSTORE PUSH32 0x496E76616C69642073746174757320666F7220657865637574696F6E00000000 PUSH1 0x44 DUP3 ADD MSTORE PUSH1 0x64 SWAP1 REVERT JUMPDEST SWAP1 SWAP2 POP PUSH2 0xC83 JUMPI PUSH1 0x3 EQ DUP8 DUP1 PUSH2 0xF3B JUMP JUMPDEST POP PUSH1 0x1 DUP2 EQ SWAP2 POP PUSH1 0x0 PUSH2 0xF34 JUMP JUMPDEST PUSH1 0x40 MLOAD PUSH3 0x461BCD PUSH1 0xE5 SHL DUP2 MSTORE PUSH1 0x20 PUSH1 0x4 DUP3 ADD MSTORE PUSH1 0x17 PUSH1 0x24 DUP3 ADD MSTORE PUSH32 0x4E6F7420617574686F72697A6564207665726966696572000000000000000000 PUSH1 0x44 DUP3 ADD MSTORE PUSH1 0x64 SWAP1 REVERT JUMPDEST POP CALLER PUSH1 0x0 MSTORE PUSH1 0x8 PUSH1 0x20 MSTORE PUSH1 0xFF PUSH1 0x40 PUSH1 0x0 KECCAK256 SLOAD AND PUSH2 0xEF1 JUMP JUMPDEST CALLVALUE PUSH2 0xA80 JUMPI PUSH1 0x20 CALLDATASIZE PUSH1 0x3 NOT ADD SLT PUSH2 0xA80 JUMPI PUSH1 0x4 CALLDATALOAD PUSH1 0x0 MSTORE PUSH1 0x6 PUSH1 0x20 MSTORE PUSH2 0x10AB PUSH1 0x40 PUSH1 0x0 KECCAK256 PUSH1 0xFF DUP2 SLOAD AND SWAP1 PUSH1 0xFF PUSH2 0x106F PUSH1 0x1 DUP4 ADD PUSH2 0x2D98 JUMP JUMPDEST SWAP2 PUSH2 0x107C PUSH1 0x2 DUP3 ADD PUSH2 0x2D98 JUMP JUMPDEST SWAP3 PUSH1 0x3 DUP3 ADD SLOAD SWAP4 PUSH1 0x5 PUSH1 0x4 DUP5 ADD SLOAD SWAP4 ADD SLOAD SWAP3 PUSH2 0x10CA DUP6 DUP6 AND SWAP3 PUSH2 0x10BC DUP8 DUP8 PUSH1 0x8 SHR AND SWAP6 PUSH1 0x40 MLOAD SWAP12 DUP13 DUP1 SWAP13 PUSH2 0x2E3E JUMP JUMPDEST PUSH2 0x100 DUP1 PUSH1 0x20 DUP14 ADD MSTORE DUP12 ADD SWAP1 PUSH2 0x2E62 JUMP JUMPDEST SWAP1 DUP10 DUP3 SUB PUSH1 0x40 DUP12 ADD MSTORE PUSH2 0x2E62 JUMP JUMPDEST SWAP6 PUSH1 0x60 DUP9 ADD MSTORE PUSH1 0x80 DUP8 ADD MSTORE PUSH2 0x10DE DUP2 PUSH2 0x2E58 JUMP JUMPDEST PUSH1 0xA0 DUP7 ADD MSTORE PUSH2 0x10EC DUP2 PUSH2 0x2E58 JUMP JUMPDEST PUSH1 0xC0 DUP6 ADD MSTORE PUSH1 0x10 SHR AND ISZERO ISZERO PUSH1 0xE0 DUP4 ADD MSTORE SUB SWAP1 RETURN JUMPDEST CALLVALUE PUSH2 0xA80 JUMPI PUSH1 0x20 CALLDATASIZE PUSH1 0x3 NOT ADD SLT PUSH2 0xA80 JUMPI PUSH2 0x1119 PUSH2 0x2EA2 JUMP JUMPDEST PUSH1 0x2 SLOAD PUSH1 0x1 PUSH1 0x1 PUSH1 0xA0 SHL SUB SWAP2 SWAP1 PUSH2 0x1133 SWAP1 DUP4 AND CALLER EQ PUSH2 0x319A JUMP JUMPDEST AND PUSH1 0x1 PUSH1 0x1 PUSH1 0x60 SHL SUB PUSH1 0xA0 SHL PUSH1 0x3 SLOAD AND OR PUSH1 0x3 SSTORE PUSH1 0x0 DUP1 RETURN JUMPDEST CALLVALUE PUSH2 0xA80 JUMPI PUSH1 0x20 CALLDATASIZE PUSH1 0x3 NOT ADD SLT PUSH2 0xA80 JUMPI PUSH1 0x4 CALLDATALOAD PUSH2 0x1175 PUSH1 0x1 DUP1 PUSH1 0xA0 SHL SUB PUSH1 0x2 SLOAD AND CALLER EQ PUSH2 0x319A JUMP JUMPDEST PUSH2 0x1F4 DUP2 GT PUSH2 0x1183 JUMPI PUSH1 0x4 SSTORE STOP JUMPDEST PUSH1 0x40 MLOAD PUSH3 0x461BCD PUSH1 0xE5 SHL DUP2 MSTORE PUSH1 0x20 PUSH1 0x4 DUP3 ADD MSTORE PUSH1 0xA PUSH1 0x24 DUP3 ADD MSTORE PUSH10 0x4D617820352520666565 PUSH1 0xB0 SHL PUSH1 0x44 DUP3 ADD MSTORE PUSH1 0x64 SWAP1 REVERT JUMPDEST CALLVALUE PUSH2 0xA80 JUMPI PUSH1 0x0 CALLDATASIZE PUSH1 0x3 NOT ADD SLT PUSH2 0xA80 JUMPI PUSH1 0x20 PUSH1 0x40 MLOAD PUSH1 0xA DUP2 MSTORE RETURN JUMPDEST CALLVALUE PUSH2 0xA80 JUMPI PUSH1 0x20 CALLDATASIZE PUSH1 0x3 NOT ADD SLT PUSH2 0xA80 JUMPI PUSH1 0x1 PUSH1 0x1 PUSH1 0xA0 SHL SUB PUSH2 0x11F2 PUSH2 0x2EA2 JUMP JUMPDEST AND PUSH1 0x0 MSTORE PUSH1 0x8 PUSH1 0x20 MSTORE PUSH1 0x20 PUSH1 0xFF PUSH1 0x40 PUSH1 0x0 KECCAK256 SLOAD AND PUSH1 0x40 MLOAD SWAP1 ISZERO ISZERO DUP2 MSTORE RETURN JUMPDEST CALLVALUE PUSH2 0xA80 JUMPI PUSH1 0x0 CALLDATASIZE PUSH1 0x3 NOT ADD SLT PUSH2 0xA80 JUMPI PUSH1 0x1 DUP1 SLOAD PUSH2 0x122E DUP2 PUSH2 0x3212 JUMP JUMPDEST SWAP1 PUSH2 0x123C PUSH1 0x40 MLOAD SWAP3 DUP4 PUSH2 0x2D77 JUMP JUMPDEST DUP1 DUP3 MSTORE PUSH1 0x1F NOT PUSH2 0x124B DUP3 PUSH2 0x3212 JUMP JUMPDEST ADD PUSH1 0x0 JUMPDEST DUP2 DUP2 LT PUSH2 0x137E JUMPI POP POP PUSH1 0x0 JUMPDEST DUP2 DUP2 LT PUSH2 0x12C5 JUMPI DUP3 DUP5 PUSH1 0x40 MLOAD SWAP1 PUSH1 0x20 DUP1 DUP4 ADD DUP2 DUP5 MSTORE DUP5 MLOAD DUP1 SWAP2 MSTORE PUSH1 0x40 DUP5 ADD SWAP2 DUP1 PUSH1 0x40 DUP4 PUSH1 0x5 SHL DUP8 ADD ADD SWAP7 ADD SWAP3 PUSH1 0x0 SWAP1 JUMPDEST DUP4 DUP3 LT PUSH2 0x1298 JUMPI DUP7 DUP9 SUB DUP8 RETURN JUMPDEST SWAP1 SWAP2 SWAP3 SWAP4 SWAP5 DUP4 DUP1 PUSH2 0x12B4 DUP4 SWAP11 PUSH1 0x3F NOT DUP12 DUP3 SUB ADD DUP7 MSTORE DUP10 MLOAD PUSH2 0x2EF3 JUMP JUMPDEST SWAP10 SWAP8 ADD SWAP6 SWAP5 SWAP4 SWAP2 SWAP1 SWAP2 ADD SWAP2 ADD PUSH2 0x128B JUMP JUMPDEST DUP1 PUSH2 0x1379 SWAP2 PUSH1 0x0 MSTORE PUSH1 0x20 PUSH1 0x6 DUP2 MSTORE PUSH1 0x40 PUSH1 0x0 KECCAK256 SWAP1 PUSH1 0x5 PUSH1 0x40 MLOAD SWAP3 PUSH2 0x12E8 DUP5 PUSH2 0x2D24 JUMP JUMPDEST PUSH1 0xFF SWAP3 PUSH2 0x12F8 DUP5 DUP4 SLOAD AND DUP7 PUSH2 0x3057 JUMP JUMPDEST PUSH2 0x1303 DUP11 DUP4 ADD PUSH2 0x2D98 JUMP JUMPDEST SWAP1 DUP6 ADD MSTORE PUSH2 0x1313 PUSH1 0x2 DUP3 ADD PUSH2 0x2D98 JUMP JUMPDEST PUSH1 0x40 DUP6 ADD MSTORE PUSH1 0x3 DUP2 ADD SLOAD PUSH1 0x60 DUP6 ADD MSTORE PUSH1 0x4 DUP2 ADD SLOAD PUSH1 0x80 DUP6 ADD MSTORE ADD SLOAD DUP2 DUP2 AND PUSH2 0x133A DUP2 PUSH2 0x2E58 JUMP JUMPDEST PUSH1 0xA0 DUP5 ADD MSTORE DUP2 DUP2 PUSH1 0x8 SHR AND PUSH2 0x134E DUP2 PUSH2 0x2E58 JUMP JUMPDEST PUSH1 0xC0 DUP5 ADD MSTORE PUSH1 0x10 SHR AND ISZERO ISZERO PUSH1 0xE0 DUP3 ADD MSTORE PUSH2 0x1368 DUP3 DUP7 PUSH2 0x3229 JUMP JUMPDEST MSTORE PUSH2 0x1373 DUP2 DUP6 PUSH2 0x3229 JUMP JUMPDEST POP PUSH2 0x303B JUMP JUMPDEST PUSH2 0x125B JUMP JUMPDEST PUSH1 0x20 SWAP1 PUSH2 0x1389 PUSH2 0x31D2 JUMP JUMPDEST DUP3 DUP3 DUP8 ADD ADD MSTORE ADD PUSH2 0x124F JUMP JUMPDEST CALLVALUE PUSH2 0xA80 JUMPI PUSH1 0x0 CALLDATASIZE PUSH1 0x3 NOT ADD SLT PUSH2 0xA80 JUMPI PUSH1 0x2 SLOAD PUSH1 0x40 MLOAD PUSH1 0x1 PUSH1 0x1 PUSH1 0xA0 SHL SUB SWAP1 SWAP2 AND DUP2 MSTORE PUSH1 0x20 SWAP1 RETURN JUMPDEST CALLVALUE PUSH2 0xA80 JUMPI PUSH1 0x0 CALLDATASIZE PUSH1 0x3 NOT ADD SLT PUSH2 0xA80 JUMPI PUSH1 0x20 PUSH1 0x4 SLOAD PUSH1 0x40 MLOAD SWAP1 DUP2 MSTORE RETURN JUMPDEST CALLVALUE PUSH2 0xA80 JUMPI PUSH1 0x40 CALLDATASIZE PUSH1 0x3 NOT ADD SLT PUSH2 0xA80 JUMPI PUSH1 0x1 PUSH1 0x1 PUSH1 0xA0 SHL SUB PUSH1 0x24 CALLDATALOAD DUP2 DUP2 AND SWAP2 PUSH1 0x4 CALLDATALOAD SWAP2 DUP4 SWAP1 SUB PUSH2 0xA80 JUMPI PUSH2 0x1414 PUSH1 0x0 SLOAD DUP4 LT PUSH2 0x3137 JUMP JUMPDEST DUP2 PUSH1 0x0 MSTORE PUSH1 0x5 PUSH1 0x20 MSTORE PUSH1 0x40 PUSH1 0x0 KECCAK256 SWAP1 DUP1 DUP3 SLOAD AND CALLER EQ DUP1 ISZERO PUSH2 0x1518 JUMPI JUMPDEST ISZERO PUSH2 0x14E2 JUMPI DUP4 PUSH1 0x0 MSTORE PUSH1 0x8 PUSH1 0x20 MSTORE PUSH1 0xFF PUSH1 0x40 PUSH1 0x0 KECCAK256 SLOAD AND SWAP1 DUP2 ISZERO PUSH2 0x14D4 JUMPI JUMPDEST POP ISZERO PUSH2 0x148F JUMPI PUSH1 0x2 ADD DUP1 SLOAD PUSH1 0x1 PUSH1 0x1 PUSH1 0xA0 SHL SUB NOT AND DUP4 OR SWAP1 SSTORE PUSH32 0xC181AECFFF2F240EEA8FAAF828EA7C55CC1A3B66F0C1D575FB5055D9FE80A41B PUSH1 0x0 DUP1 LOG3 STOP JUMPDEST PUSH1 0x40 MLOAD PUSH3 0x461BCD PUSH1 0xE5 SHL DUP2 MSTORE PUSH1 0x20 PUSH1 0x4 DUP3 ADD MSTORE PUSH1 0x17 PUSH1 0x24 DUP3 ADD MSTORE PUSH32 0x5665726966696572206E6F7420617574686F72697A6564000000000000000000 PUSH1 0x44 DUP3 ADD MSTORE PUSH1 0x64 SWAP1 REVERT JUMPDEST SWAP1 POP PUSH1 0x2 SLOAD AND CALLER EQ DUP5 PUSH2 0x144F JUMP JUMPDEST PUSH1 0x40 MLOAD PUSH3 0x461BCD PUSH1 0xE5 SHL DUP2 MSTORE PUSH1 0x20 PUSH1 0x4 DUP3 ADD MSTORE PUSH1 0xE PUSH1 0x24 DUP3 ADD MSTORE PUSH14 0x139BDD08185D5D1A1BDC9A5E9959 PUSH1 0x92 SHL PUSH1 0x44 DUP3 ADD MSTORE PUSH1 0x64 SWAP1 REVERT JUMPDEST POP DUP1 PUSH1 0x2 SLOAD AND CALLER EQ PUSH2 0x1430 JUMP JUMPDEST CALLVALUE PUSH2 0xA80 JUMPI PUSH1 0x20 CALLDATASIZE PUSH1 0x3 NOT ADD SLT PUSH2 0xA80 JUMPI PUSH1 0x0 PUSH2 0x2C0 PUSH1 0x40 MLOAD PUSH2 0x1547 DUP2 PUSH2 0x2D5B JUMP JUMPDEST DUP3 DUP2 MSTORE DUP3 PUSH1 0x20 DUP3 ADD MSTORE DUP3 PUSH1 0x40 DUP3 ADD MSTORE DUP3 PUSH1 0x60 DUP3 ADD MSTORE DUP3 PUSH1 0x80 DUP3 ADD MSTORE DUP3 PUSH1 0xA0 DUP3 ADD MSTORE DUP3 PUSH1 0xC0 DUP3 ADD MSTORE DUP3 PUSH1 0xE0 DUP3 ADD MSTORE DUP3 PUSH2 0x100 DUP3 ADD MSTORE DUP3 PUSH2 0x120 DUP3 ADD MSTORE DUP3 PUSH2 0x140 DUP3 ADD MSTORE DUP3 PUSH2 0x160 DUP3 ADD MSTORE DUP3 PUSH2 0x180 DUP3 ADD MSTORE DUP3 PUSH2 0x1A0 DUP3 ADD MSTORE DUP3 PUSH2 0x1C0 DUP3 ADD MSTORE PUSH1 0x60 PUSH2 0x1E0 DUP3 ADD MSTORE PUSH1 0x60 PUSH2 0x200 DUP3 ADD MSTORE PUSH1 0x60 PUSH2 0x220 DUP3 ADD MSTORE PUSH1 0x60 PUSH2 0x240 DUP3 ADD MSTORE DUP3 PUSH2 0x260 DUP3 ADD MSTORE DUP3 PUSH2 0x280 DUP3 ADD MSTORE DUP3 PUSH2 0x2A0 DUP3 ADD MSTORE ADD MSTORE PUSH1 0x4 CALLDATALOAD PUSH1 0x0 MSTORE PUSH1 0x5 PUSH1 0x20 MSTORE PUSH1 0x40 PUSH1 0x0 KECCAK256 PUSH1 0x40 MLOAD SWAP1 PUSH2 0x15F9 DUP3 PUSH2 0x2D5B JUMP JUMPDEST DUP1 SLOAD PUSH1 0x1 PUSH1 0x1 PUSH1 0xA0 SHL SUB SWAP1 DUP2 AND DUP4 MSTORE PUSH1 0x1 DUP3 ADD SLOAD DUP2 AND PUSH1 0x20 DUP5 ADD MSTORE PUSH1 0x2 DUP3 ADD SLOAD SWAP1 DUP2 AND PUSH1 0x40 DUP5 ADD MSTORE PUSH2 0x1635 PUSH1 0xA0 DUP3 SWAP1 SHR PUSH1 0xFF AND PUSH1 0x60 DUP6 ADD PUSH2 0x3057 JUMP JUMPDEST PUSH1 0x9 PUSH1 0xFF DUP3 PUSH1 0xA8 SHR AND LT ISZERO PUSH2 0xC83 JUMPI PUSH1 0xFF SWAP2 DUP3 DUP3 DUP2 PUSH1 0xF SWAP5 PUSH1 0xA8 SHR AND PUSH1 0x80 DUP8 ADD MSTORE DUP2 DUP2 PUSH1 0xB0 SHR AND PUSH2 0x1665 DUP2 PUSH2 0x2E58 JUMP JUMPDEST PUSH1 0xA0 DUP8 ADD MSTORE PUSH1 0xB8 SHR AND PUSH2 0x1677 DUP2 PUSH2 0x2E58 JUMP JUMPDEST PUSH1 0xC0 DUP6 ADD MSTORE PUSH1 0x3 DUP2 ADD SLOAD PUSH1 0xE0 DUP6 ADD MSTORE PUSH1 0x4 DUP2 ADD SLOAD PUSH2 0x100 DUP6 ADD MSTORE PUSH1 0x5 DUP2 ADD SLOAD PUSH2 0x120 DUP6 ADD MSTORE PUSH1 0x6 DUP2 ADD SLOAD PUSH2 0x140 DUP6 ADD MSTORE PUSH1 0x7 DUP2 ADD SLOAD PUSH2 0x160 DUP6 ADD MSTORE PUSH1 0x8 DUP2 ADD SLOAD PUSH2 0x180 DUP6 ADD MSTORE PUSH1 0x9 DUP2 ADD SLOAD PUSH2 0x1A0 DUP6 ADD MSTORE PUSH1 0xA DUP2 ADD SLOAD PUSH2 0x1C0 DUP6 ADD MSTORE PUSH2 0x16DF PUSH1 0xB DUP3 ADD PUSH2 0x2D98 JUMP JUMPDEST PUSH2 0x1E0 DUP6 ADD MSTORE PUSH2 0x16F1 PUSH1 0xC DUP3 ADD PUSH2 0x2D98 JUMP JUMPDEST PUSH2 0x200 DUP6 ADD MSTORE PUSH2 0x1703 PUSH1 0xD DUP3 ADD PUSH2 0x2D98 JUMP JUMPDEST PUSH2 0x220 DUP6 ADD MSTORE PUSH2 0x1715 PUSH1 0xE DUP3 ADD PUSH2 0x2D98 JUMP JUMPDEST PUSH2 0x240 DUP6 ADD MSTORE ADD SLOAD DUP2 DUP2 AND ISZERO ISZERO PUSH2 0x260 DUP5 ADD MSTORE DUP2 DUP2 PUSH1 0x8 SHR AND ISZERO ISZERO PUSH2 0x280 DUP5 ADD MSTORE DUP2 DUP2 PUSH1 0x10 SHR AND ISZERO ISZERO PUSH2 0x2A0 DUP5 ADD MSTORE PUSH1 0x18 SHR AND ISZERO ISZERO PUSH2 0x2C0 DUP3 ADD MSTORE PUSH1 0x40 MLOAD DUP1 SWAP2 PUSH1 0x20 DUP3 MSTORE PUSH1 0x1 DUP1 PUSH1 0xA0 SHL SUB DUP2 MLOAD AND PUSH1 0x20 DUP4 ADD MSTORE PUSH1 0x1 DUP1 PUSH1 0xA0 SHL SUB PUSH1 0x20 DUP3 ADD MLOAD AND PUSH1 0x40 DUP4 ADD MSTORE PUSH1 0x1 DUP1 PUSH1 0xA0 SHL SUB PUSH1 0x40 DUP3 ADD MLOAD AND PUSH1 0x60 DUP4 ADD MSTORE PUSH2 0x179E PUSH1 0x60 DUP3 ADD MLOAD PUSH1 0x80 DUP5 ADD SWAP1 PUSH2 0x2E3E JUMP JUMPDEST PUSH2 0x17B0 PUSH1 0x80 DUP3 ADD MLOAD PUSH1 0xA0 DUP5 ADD SWAP1 PUSH2 0x2E4B JUMP JUMPDEST PUSH1 0xA0 DUP2 ADD MLOAD PUSH2 0x17BE DUP2 PUSH2 0x2E58 JUMP JUMPDEST PUSH1 0xC0 DUP4 ADD MSTORE PUSH1 0xC0 DUP2 ADD MLOAD PUSH2 0x17D1 DUP2 PUSH2 0x2E58 JUMP JUMPDEST PUSH1 0xE0 DUP4 ADD MSTORE PUSH1 0xE0 DUP2 ADD MLOAD PUSH2 0x100 DUP4 ADD MSTORE PUSH2 0x100 DUP2 ADD MLOAD PUSH2 0x120 DUP4 ADD MSTORE PUSH2 0x120 DUP2 ADD MLOAD PUSH2 0x140 DUP4 ADD MSTORE PUSH2 0x140 DUP2 ADD MLOAD PUSH2 0x160 DUP4 ADD MSTORE PUSH2 0x160 DUP2 ADD MLOAD PUSH2 0x180 DUP4 ADD MSTORE PUSH2 0x180 DUP2 ADD MLOAD PUSH2 0x1A0 DUP4 ADD MSTORE PUSH2 0x1A0 DUP2 ADD MLOAD PUSH2 0x1C0 DUP4 ADD MSTORE PUSH2 0x1C0 DUP2 ADD MLOAD PUSH2 0x1E0 DUP4 ADD MSTORE PUSH2 0x1E0 DUP2 ADD MLOAD PUSH2 0x2C0 PUSH2 0x18A8 PUSH2 0x185A PUSH2 0x2E0 SWAP4 DUP5 PUSH2 0x200 DUP9 ADD MSTORE PUSH2 0x300 DUP8 ADD SWAP1 PUSH2 0x2E62 JUMP JUMPDEST PUSH2 0x1891 PUSH2 0x187B PUSH2 0x200 DUP8 ADD MLOAD SWAP3 PUSH1 0x1F NOT SWAP4 DUP5 DUP11 DUP4 SUB ADD PUSH2 0x220 DUP12 ADD MSTORE PUSH2 0x2E62 JUMP JUMPDEST PUSH2 0x220 DUP8 ADD MLOAD DUP4 DUP10 DUP4 SUB ADD PUSH2 0x240 DUP11 ADD MSTORE PUSH2 0x2E62 JUMP JUMPDEST SWAP1 PUSH2 0x240 DUP7 ADD MLOAD SWAP1 DUP8 DUP4 SUB ADD PUSH2 0x260 DUP9 ADD MSTORE PUSH2 0x2E62 JUMP JUMPDEST SWAP3 PUSH2 0x260 DUP2 ADD MLOAD ISZERO ISZERO PUSH2 0x280 DUP7 ADD MSTORE PUSH2 0x280 DUP2 ADD MLOAD ISZERO ISZERO PUSH2 0x2A0 DUP7 ADD MSTORE PUSH2 0x2A0 DUP2 ADD MLOAD ISZERO ISZERO DUP3 DUP7 ADD MSTORE ADD MLOAD ISZERO ISZERO SWAP1 DUP4 ADD MSTORE SUB SWAP1 RETURN JUMPDEST PUSH1 0x20 DUP1 PUSH1 0x3 NOT CALLDATASIZE ADD SLT PUSH2 0xA80 JUMPI PUSH1 0x4 CALLDATALOAD PUSH2 0x18FA PUSH1 0x0 SLOAD DUP3 LT PUSH2 0x3137 JUMP JUMPDEST DUP1 PUSH1 0x0 MSTORE PUSH1 0x5 DUP3 MSTORE PUSH1 0x40 PUSH1 0x0 KECCAK256 PUSH1 0x2 DUP2 ADD DUP1 SLOAD PUSH1 0xFF DUP2 PUSH1 0xA8 SHR AND PUSH1 0x9 DUP2 LT ISZERO PUSH2 0xC83 JUMPI PUSH2 0x1B0D JUMPI DUP3 SLOAD PUSH1 0x1 PUSH1 0x1 PUSH1 0xA0 SHL SUB AND CALLER EQ PUSH2 0x1ACF JUMPI PUSH1 0x9 DUP4 ADD SLOAD TIMESTAMP LT ISZERO PUSH2 0x1A9B JUMPI PUSH2 0x1947 DUP4 PUSH2 0x3468 JUMP JUMPDEST CALLVALUE LT PUSH2 0x1A56 JUMPI SWAP1 DUP3 SWAP2 PUSH1 0x1 PUSH1 0x5 SWAP5 ADD CALLER PUSH1 0x1 PUSH1 0x1 PUSH1 0x60 SHL SUB PUSH1 0xA0 SHL DUP3 SLOAD AND OR SWAP1 SSTORE CALLVALUE PUSH1 0x4 DUP5 ADD SSTORE TIMESTAMP PUSH1 0x8 DUP5 ADD SSTORE PUSH1 0x1 PUSH1 0xA8 SHL SWAP1 PUSH1 0xFF PUSH1 0xA8 SHL NOT AND OR SWAP1 SSTORE CALLER PUSH1 0x0 MSTORE PUSH1 0xA DUP5 MSTORE PUSH2 0x199A DUP4 PUSH1 0x40 PUSH1 0x0 KECCAK256 PUSH2 0x30FD JUMP JUMPDEST ADD DUP1 SLOAD DUP1 ISZERO DUP1 ISZERO PUSH2 0x1A02 JUMPI JUMPDEST POP POP POP PUSH1 0x40 MLOAD CALLVALUE DUP2 MSTORE DUP2 PUSH32 0x4040B057894DAD8489AA292521553397CD14FA0E341F6E6C9B646F78154EFD1C DUP5 CALLER SWAP4 LOG3 PUSH32 0xEEC2F3FEB835E2F2FD44281034B04700A1DDDA63DD402949D470A25A7C40B36C PUSH1 0x40 MLOAD SWAP3 CALLVALUE DUP5 MSTORE CALLER SWAP4 LOG3 STOP JUMPDEST PUSH1 0x0 DUP1 DUP1 SWAP4 DUP2 SWAP4 DUP3 SWAP1 PUSH2 0x1A4D JUMPI JUMPDEST CALLER SWAP1 CALL ISZERO PUSH2 0xC1B JUMPI SLOAD PUSH1 0x40 MLOAD SWAP1 DUP2 MSTORE DUP2 PUSH32 0x53C2CACDB39E7FD9ED553A6EE9D1F91BDE517D6101E4959F7FD5DA292E793280 DUP5 CALLER SWAP4 LOG3 DUP3 DUP1 DUP1 PUSH2 0x19A6 JUMP JUMPDEST POP PUSH2 0x8FC PUSH2 0x1A10 JUMP JUMPDEST PUSH1 0x40 MLOAD PUSH3 0x461BCD PUSH1 0xE5 SHL DUP2 MSTORE PUSH1 0x4 DUP2 ADD DUP7 SWAP1 MSTORE PUSH1 0x17 PUSH1 0x24 DUP3 ADD MSTORE PUSH32 0x496E73756666696369656E7420636F6C6C61746572616C000000000000000000 PUSH1 0x44 DUP3 ADD MSTORE PUSH1 0x64 SWAP1 REVERT JUMPDEST PUSH1 0x40 MLOAD PUSH3 0x461BCD PUSH1 0xE5 SHL DUP2 MSTORE PUSH1 0x4 DUP2 ADD DUP7 SWAP1 MSTORE PUSH1 0xC PUSH1 0x24 DUP3 ADD MSTORE PUSH12 0x1119585B08195E1C1A5C9959 PUSH1 0xA2 SHL PUSH1 0x44 DUP3 ADD MSTORE PUSH1 0x64 SWAP1 REVERT JUMPDEST PUSH1 0x40 MLOAD PUSH3 0x461BCD PUSH1 0xE5 SHL DUP2 MSTORE PUSH1 0x4 DUP2 ADD DUP7 SWAP1 MSTORE PUSH1 0x16 PUSH1 0x24 DUP3 ADD MSTORE PUSH22 0x213ABCB2B91031B0B73737BA1031329039B2B63632B9 PUSH1 0x51 SHL PUSH1 0x44 DUP3 ADD MSTORE PUSH1 0x64 SWAP1 REVERT JUMPDEST PUSH1 0x40 MLOAD PUSH3 0x461BCD PUSH1 0xE5 SHL DUP2 MSTORE PUSH1 0x4 DUP2 ADD DUP7 SWAP1 MSTORE PUSH1 0xD PUSH1 0x24 DUP3 ADD MSTORE PUSH13 0x2232B0B6103737BA1037B832B7 PUSH1 0x99 SHL PUSH1 0x44 DUP3 ADD MSTORE PUSH1 0x64 SWAP1 REVERT JUMPDEST CALLVALUE PUSH2 0xA80 JUMPI PUSH1 0x20 CALLDATASIZE PUSH1 0x3 NOT ADD SLT PUSH2 0xA80 JUMPI PUSH2 0x1B5B PUSH2 0x2EA2 JUMP JUMPDEST PUSH1 0x2 SLOAD PUSH1 0x1 PUSH1 0x1 PUSH1 0xA0 SHL SUB SWAP2 SWAP1 PUSH2 0x1B75 SWAP1 DUP4 AND CALLER EQ PUSH2 0x319A JUMP JUMPDEST AND PUSH1 0x0 SWAP1 DUP2 MSTORE PUSH1 0x8 PUSH1 0x20 MSTORE PUSH1 0x40 SWAP1 KECCAK256 DUP1 SLOAD PUSH1 0xFF NOT AND PUSH1 0x1 OR SWAP1 SSTORE STOP JUMPDEST CALLVALUE PUSH2 0xA80 JUMPI PUSH1 0x40 CALLDATASIZE PUSH1 0x3 NOT ADD SLT PUSH2 0xA80 JUMPI PUSH2 0x1BAA PUSH2 0x2EA2 JUMP JUMPDEST PUSH1 0x1 PUSH1 0x1 PUSH1 0xA0 SHL SUB AND PUSH1 0x0 SWAP1 DUP2 MSTORE PUSH1 0x9 PUSH1 0x20 MSTORE PUSH1 0x40 SWAP1 KECCAK256 DUP1 SLOAD PUSH1 0x24 CALLDATALOAD SWAP2 SWAP1 DUP3 LT ISZERO PUSH2 0xA80 JUMPI PUSH1 0x20 SWAP2 PUSH2 0xAF8 SWAP2 PUSH2 0x2FE4 JUMP JUMPDEST CALLVALUE PUSH2 0xA80 JUMPI PUSH2 0x1BE9 CALLDATASIZE PUSH2 0x2FB1 JUMP JUMPDEST SWAP1 SWAP2 PUSH2 0x1BF8 PUSH1 0x0 SLOAD DUP3 LT PUSH2 0x3137 JUMP JUMPDEST DUP1 PUSH1 0x0 MSTORE PUSH1 0x20 SWAP3 PUSH1 0x5 DUP5 MSTORE PUSH1 0x40 PUSH1 0x0 KECCAK256 SWAP3 PUSH1 0x1 SWAP4 PUSH1 0x1 DUP1 PUSH1 0xA0 SHL SUB DUP6 DUP3 ADD SLOAD AND CALLER SUB PUSH2 0x1E01 JUMPI PUSH1 0x2 DUP2 ADD SWAP1 PUSH1 0xFF DUP3 SLOAD PUSH1 0xA8 SHR AND PUSH1 0x9 DUP2 LT ISZERO PUSH2 0xC83 JUMPI DUP7 SUB PUSH2 0x1DC8 JUMPI PUSH1 0x9 DUP2 ADD SLOAD TIMESTAMP LT ISZERO PUSH2 0x1D91 JUMPI PUSH1 0xE DUP2 ADD PUSH1 0x1 PUSH1 0x1 PUSH1 0x40 SHL SUB DUP5 GT PUSH2 0x1D7B JUMPI PUSH2 0x1C6C DUP5 PUSH2 0x1C66 DUP4 SLOAD PUSH2 0x2CEA JUMP JUMPDEST DUP4 PUSH2 0x30A9 JUMP JUMPDEST PUSH1 0x0 SWAP7 PUSH1 0x1F DUP6 GT PUSH1 0x1 EQ PUSH2 0x1CFA JUMPI DUP5 DUP1 SWAP2 PUSH32 0x6F23E72707418D32B3D524EFD61B181A8E279E08ACD814AF148F428885CB9CD SWAP9 SWAP10 PUSH1 0x0 SWAP4 PUSH2 0x1CEF JUMPI JUMPDEST POP SHL SWAP1 PUSH1 0x0 NOT DUP7 PUSH1 0x3 SHL SHR NOT AND OR SWAP1 SSTORE JUMPDEST TIMESTAMP PUSH1 0xA SWAP2 SWAP1 SWAP2 ADD SSTORE DUP1 SLOAD PUSH1 0xFF PUSH1 0xA8 SHL NOT AND PUSH1 0x1 PUSH1 0xA9 SHL OR SWAP1 SSTORE PUSH1 0x40 MLOAD DUP6 DUP2 MSTORE CALLER SWAP6 SWAP1 SWAP3 DUP4 SWAP3 PUSH2 0x1CEA SWAP3 DUP5 ADD SWAP2 PUSH2 0x3179 JUMP JUMPDEST SUB SWAP1 LOG3 STOP JUMPDEST DUP9 ADD CALLDATALOAD SWAP3 POP DUP12 PUSH2 0x1CA8 JUMP JUMPDEST PUSH1 0x1F NOT DUP6 AND SWAP8 DUP3 PUSH1 0x0 MSTORE DUP10 PUSH1 0x0 KECCAK256 SWAP1 PUSH1 0x0 JUMPDEST DUP12 DUP12 DUP3 LT PUSH2 0x1D67 JUMPI POP POP DUP7 PUSH32 0x6F23E72707418D32B3D524EFD61B181A8E279E08ACD814AF148F428885CB9CD SWAP10 SWAP11 LT PUSH2 0x1D4D JUMPI JUMPDEST POP POP DUP5 DUP2 SHL ADD SWAP1 SSTORE PUSH2 0x1CB9 JUMP JUMPDEST DUP8 ADD CALLDATALOAD PUSH1 0x0 NOT PUSH1 0x3 DUP9 SWAP1 SHL PUSH1 0xF8 AND SHR NOT AND SWAP1 SSTORE DUP10 DUP1 PUSH2 0x1D40 JUMP JUMPDEST DUP10 DUP4 ADD CALLDATALOAD DUP5 SSTORE SWAP3 DUP5 ADD SWAP3 SWAP2 DUP3 ADD SWAP2 ADD PUSH2 0x1D0C JUMP JUMPDEST PUSH4 0x4E487B71 PUSH1 0xE0 SHL PUSH1 0x0 MSTORE PUSH1 0x41 PUSH1 0x4 MSTORE PUSH1 0x24 PUSH1 0x0 REVERT JUMPDEST PUSH1 0x40 MLOAD PUSH3 0x461BCD PUSH1 0xE5 SHL DUP2 MSTORE PUSH1 0x4 DUP2 ADD DUP9 SWAP1 MSTORE PUSH1 0xF PUSH1 0x24 DUP3 ADD MSTORE PUSH15 0x111958591B1A5B99481C185CDCD959 PUSH1 0x8A SHL PUSH1 0x44 DUP3 ADD MSTORE PUSH1 0x64 SWAP1 REVERT JUMPDEST PUSH1 0x40 MLOAD PUSH3 0x461BCD PUSH1 0xE5 SHL DUP2 MSTORE PUSH1 0x4 DUP2 ADD DUP9 SWAP1 MSTORE PUSH1 0x11 PUSH1 0x24 DUP3 ADD MSTORE PUSH17 0x1119585B081B9BDD081858D8D95C1D1959 PUSH1 0x7A SHL PUSH1 0x44 DUP3 ADD MSTORE PUSH1 0x64 SWAP1 REVERT JUMPDEST PUSH1 0x40 MLOAD PUSH3 0x461BCD PUSH1 0xE5 SHL DUP2 MSTORE PUSH1 0x4 DUP2 ADD DUP8 SWAP1 MSTORE PUSH1 0xA PUSH1 0x24 DUP3 ADD MSTORE PUSH10 0x2737BA1039B2B63632B9 PUSH1 0xB1 SHL PUSH1 0x44 DUP3 ADD MSTORE PUSH1 0x64 SWAP1 REVERT JUMPDEST CALLVALUE PUSH2 0xA80 JUMPI PUSH1 0xE0 CALLDATASIZE PUSH1 0x3 NOT ADD SLT PUSH2 0xA80 JUMPI PUSH1 0xC PUSH1 0x4 CALLDATALOAD LT ISZERO PUSH2 0xA80 JUMPI PUSH1 0x24 CALLDATALOAD PUSH1 0x1 PUSH1 0x1 PUSH1 0x40 SHL SUB DUP2 GT PUSH2 0xA80 JUMPI PUSH2 0x1E6E SWAP1 CALLDATASIZE SWAP1 PUSH1 0x4 ADD PUSH2 0x2F84 JUMP JUMPDEST PUSH1 0x44 CALLDATALOAD PUSH1 0x1 PUSH1 0x1 PUSH1 0x40 SHL SUB DUP2 GT PUSH2 0xA80 JUMPI PUSH2 0x1E8D SWAP1 CALLDATASIZE SWAP1 PUSH1 0x4 ADD PUSH2 0x2F84 JUMP JUMPDEST SWAP3 SWAP1 SWAP2 PUSH1 0x4 PUSH1 0xA4 CALLDATALOAD LT ISZERO PUSH2 0xA80 JUMPI PUSH1 0x4 PUSH1 0xC4 CALLDATALOAD LT ISZERO PUSH2 0xA80 JUMPI PUSH2 0x1EBB PUSH1 0x1 DUP1 PUSH1 0xA0 SHL SUB PUSH1 0x2 SLOAD AND CALLER EQ PUSH2 0x319A JUMP JUMPDEST PUSH1 0x1 SLOAD SWAP3 PUSH2 0x1EC8 DUP5 PUSH2 0x303B JUMP JUMPDEST PUSH1 0x1 SSTORE PUSH2 0x1F01 PUSH1 0x40 MLOAD SWAP2 PUSH2 0x1EDB DUP4 PUSH2 0x2D24 JUMP JUMPDEST PUSH2 0x1EE7 PUSH1 0x4 CALLDATALOAD DUP5 PUSH2 0x3057 JUMP JUMPDEST PUSH2 0x1EF2 CALLDATASIZE DUP6 DUP8 PUSH2 0x3063 JUMP JUMPDEST SWAP7 PUSH1 0x20 DUP5 ADD SWAP8 DUP9 MSTORE CALLDATASIZE SWAP2 PUSH2 0x3063 JUMP JUMPDEST PUSH1 0x40 DUP3 ADD MSTORE PUSH1 0x64 CALLDATALOAD PUSH1 0x60 DUP3 ADD MSTORE PUSH1 0x84 CALLDATALOAD PUSH1 0x80 DUP3 ADD MSTORE PUSH2 0x1F21 PUSH1 0xA4 CALLDATALOAD PUSH2 0x2E58 JUMP JUMPDEST PUSH1 0xA4 CALLDATALOAD PUSH1 0xA0 DUP3 ADD MSTORE PUSH2 0x1F34 PUSH1 0xC4 CALLDATALOAD PUSH2 0x2E58 JUMP JUMPDEST PUSH1 0xC4 CALLDATALOAD PUSH1 0xC0 DUP3 ADD MSTORE PUSH1 0x1 PUSH1 0xE0 DUP3 ADD MSTORE DUP4 PUSH1 0x0 MSTORE PUSH1 0x6 PUSH1 0x20 MSTORE PUSH1 0x40 PUSH1 0x0 KECCAK256 SWAP5 DUP2 MLOAD PUSH1 0xC DUP2 LT ISZERO PUSH2 0xC83 JUMPI PUSH1 0xFF DUP1 NOT DUP9 SLOAD AND SWAP2 AND OR DUP7 SSTORE MLOAD DUP1 MLOAD SWAP1 PUSH1 0x1 PUSH1 0x1 PUSH1 0x40 SHL SUB DUP3 GT PUSH2 0x1D7B JUMPI DUP2 SWAP1 PUSH2 0x1F97 DUP3 PUSH2 0x1F8E PUSH1 0x1 DUP12 ADD SLOAD PUSH2 0x2CEA JUMP JUMPDEST PUSH1 0x1 DUP12 ADD PUSH2 0x30A9 JUMP JUMPDEST PUSH1 0x20 SWAP1 PUSH1 0x1F DUP4 GT PUSH1 0x1 EQ PUSH2 0x21A4 JUMPI PUSH1 0x0 SWAP3 PUSH2 0x2199 JUMPI JUMPDEST POP POP DUP2 PUSH1 0x1 SHL SWAP2 PUSH1 0x0 NOT SWAP1 PUSH1 0x3 SHL SHR NOT AND OR PUSH1 0x1 DUP7 ADD SSTORE JUMPDEST PUSH1 0x40 DUP2 ADD MLOAD SWAP5 DUP6 MLOAD PUSH1 0x1 PUSH1 0x1 PUSH1 0x40 SHL SUB DUP2 GT PUSH2 0x1D7B JUMPI PUSH2 0x1FF5 DUP2 PUSH2 0x1FEC PUSH1 0x2 DUP6 ADD SLOAD PUSH2 0x2CEA JUMP JUMPDEST PUSH1 0x2 DUP6 ADD PUSH2 0x30A9 JUMP JUMPDEST PUSH1 0x20 PUSH1 0x1F DUP3 GT PUSH1 0x1 EQ PUSH2 0x20FF JUMPI PUSH2 0x20C9 SWAP4 SWAP3 DUP3 PUSH1 0xE0 SWAP4 PUSH1 0x5 SWAP4 PUSH32 0xA77D98BFB261EA73A3A92DFC83D0028AFC567CDDCD5AE94626986121A1000DC5 SWAP11 SWAP12 PUSH1 0x0 SWAP3 PUSH2 0x20F4 JUMPI JUMPDEST POP POP DUP2 PUSH1 0x1 SHL SWAP2 PUSH1 0x0 NOT SWAP1 PUSH1 0x3 SHL SHR NOT AND OR PUSH1 0x2 DUP3 ADD SSTORE JUMPDEST PUSH1 0x60 DUP5 ADD MLOAD PUSH1 0x3 DUP3 ADD SSTORE PUSH1 0x80 DUP5 ADD MLOAD PUSH1 0x4 DUP3 ADD SSTORE ADD SWAP2 PUSH1 0xA0 DUP2 ADD MLOAD PUSH2 0x2075 DUP2 PUSH2 0x2E58 JUMP JUMPDEST PUSH2 0x207E DUP2 PUSH2 0x2E58 JUMP JUMPDEST DUP4 SLOAD PUSH1 0xFF PUSH2 0xFF00 PUSH1 0xC0 DUP6 ADD MLOAD PUSH2 0x2093 DUP2 PUSH2 0x2E58 JUMP JUMPDEST PUSH2 0x209C DUP2 PUSH2 0x2E58 JUMP JUMPDEST PUSH1 0x8 SHL AND SWAP3 AND SWAP1 PUSH2 0xFFFF NOT AND OR OR DUP4 SSTORE ADD MLOAD ISZERO ISZERO PUSH3 0xFF0000 DUP3 SLOAD SWAP2 ISZERO ISZERO PUSH1 0x10 SHL AND SWAP1 PUSH3 0xFF0000 NOT AND OR SWAP1 SSTORE JUMP JUMPDEST PUSH2 0x20E0 PUSH1 0x40 MLOAD SWAP3 DUP4 SWAP3 PUSH1 0x40 DUP5 MSTORE PUSH1 0x40 DUP5 ADD SWAP2 PUSH2 0x3179 JUMP JUMPDEST PUSH2 0x20EF PUSH1 0x20 DUP4 ADD PUSH1 0x4 CALLDATALOAD PUSH2 0x2E3E JUMP JUMPDEST SUB SWAP1 LOG2 STOP JUMPDEST ADD MLOAD SWAP1 POP DUP12 DUP1 PUSH2 0x2039 JUMP JUMPDEST PUSH1 0x2 DUP4 ADD PUSH1 0x0 MSTORE PUSH1 0x20 PUSH1 0x0 KECCAK256 SWAP8 PUSH1 0x0 JUMPDEST PUSH1 0x1F NOT DUP5 AND DUP2 LT PUSH2 0x2181 JUMPI POP SWAP3 PUSH1 0x1 DUP4 PUSH32 0xA77D98BFB261EA73A3A92DFC83D0028AFC567CDDCD5AE94626986121A1000DC5 SWAP10 SWAP11 PUSH1 0x5 SWAP5 PUSH2 0x20C9 SWAP9 SWAP8 PUSH1 0xE0 SWAP8 PUSH1 0x1F NOT DUP2 AND LT PUSH2 0x2168 JUMPI JUMPDEST POP POP POP DUP2 SHL ADD PUSH1 0x2 DUP3 ADD SSTORE PUSH2 0x2051 JUMP JUMPDEST ADD MLOAD PUSH1 0x0 NOT PUSH1 0xF8 DUP5 PUSH1 0x3 SHL AND SHR NOT AND SWAP1 SSTORE DUP12 DUP1 DUP1 PUSH2 0x2158 JUMP JUMPDEST DUP3 DUP3 ADD MLOAD DUP11 SSTORE PUSH1 0x1 SWAP1 SWAP10 ADD SWAP9 PUSH1 0x20 SWAP3 DUP4 ADD SWAP3 ADD PUSH2 0x210F JUMP JUMPDEST ADD MLOAD SWAP1 POP DUP8 DUP1 PUSH2 0x1FAD JUMP JUMPDEST SWAP3 POP PUSH1 0x1 DUP9 ADD PUSH1 0x0 MSTORE PUSH1 0x20 PUSH1 0x0 KECCAK256 SWAP1 PUSH1 0x0 SWAP4 JUMPDEST PUSH1 0x1F NOT DUP5 AND DUP6 LT PUSH2 0x21FB JUMPI PUSH1 0x1 SWAP5 POP DUP4 PUSH1 0x1F NOT DUP2 AND LT PUSH2 0x21E2 JUMPI JUMPDEST POP POP POP DUP2 SHL ADD PUSH1 0x1 DUP7 ADD SSTORE PUSH2 0x1FC5 JUMP JUMPDEST ADD MLOAD PUSH1 0x0 NOT PUSH1 0xF8 DUP5 PUSH1 0x3 SHL AND SHR NOT AND SWAP1 SSTORE DUP8 DUP1 DUP1 PUSH2 0x21D2 JUMP JUMPDEST DUP2 DUP2 ADD MLOAD DUP4 SSTORE PUSH1 0x20 SWAP5 DUP6 ADD SWAP5 PUSH1 0x1 SWAP1 SWAP4 ADD SWAP3 SWAP1 SWAP2 ADD SWAP1 PUSH2 0x21B7 JUMP JUMPDEST CALLVALUE PUSH2 0xA80 JUMPI PUSH2 0x2224 CALLDATASIZE PUSH2 0x2FB1 JUMP JUMPDEST SWAP2 SWAP1 PUSH2 0x2233 PUSH1 0x0 SLOAD DUP4 LT PUSH2 0x3137 JUMP JUMPDEST PUSH1 0x0 DUP3 DUP2 MSTORE PUSH1 0x5 PUSH1 0x20 MSTORE PUSH1 0x40 SWAP1 KECCAK256 DUP1 SLOAD PUSH1 0x1 PUSH1 0x1 PUSH1 0xA0 SHL SUB SWAP1 DUP2 AND CALLER EQ DUP1 ISZERO PUSH2 0x2568 JUMPI JUMPDEST ISZERO PUSH2 0x2530 JUMPI PUSH1 0x2 DUP3 ADD DUP1 SLOAD PUSH1 0xFF DUP2 PUSH1 0xA8 SHR AND SWAP4 PUSH1 0x9 DUP6 LT ISZERO PUSH2 0xC83 JUMPI PUSH1 0x1 SWAP5 DUP6 DUP2 EQ SWAP1 DUP2 ISZERO PUSH2 0x2525 JUMPI JUMPDEST POP ISZERO PUSH2 0x24E0 JUMPI PUSH1 0xF ADD DUP1 SLOAD PUSH1 0xFF DUP2 PUSH1 0x18 SHR AND PUSH2 0x24A8 JUMPI PUSH4 0xFF000000 NOT AND PUSH4 0x1000000 OR SWAP1 SSTORE PUSH1 0xFF PUSH1 0xA8 SHL NOT AND PUSH1 0x3 PUSH1 0xA9 SHL OR SWAP1 SSTORE PUSH1 0x40 MLOAD SWAP2 PUSH2 0x22C2 DUP4 PUSH2 0x2D40 JUMP JUMPDEST DUP5 DUP4 MSTORE PUSH1 0x20 DUP4 ADD CALLER DUP2 MSTORE PUSH2 0x22D7 CALLDATASIZE DUP9 DUP8 PUSH2 0x3063 JUMP JUMPDEST SWAP1 PUSH1 0x40 DUP6 ADD SWAP2 DUP3 MSTORE TIMESTAMP PUSH1 0x60 DUP7 ADD MSTORE PUSH1 0x0 PUSH1 0x80 DUP7 ADD MSTORE PUSH1 0x0 PUSH1 0xA0 DUP7 ADD MSTORE DUP7 PUSH1 0x0 MSTORE PUSH1 0x7 PUSH1 0x20 MSTORE PUSH1 0x40 PUSH1 0x0 KECCAK256 SWAP4 DUP6 MLOAD DUP6 SSTORE DUP4 DUP6 ADD SWAP2 MLOAD AND PUSH1 0x1 PUSH1 0x1 PUSH1 0x60 SHL SUB PUSH1 0xA0 SHL DUP3 SLOAD AND OR SWAP1 SSTORE MLOAD SWAP1 DUP2 MLOAD SWAP2 PUSH1 0x1 PUSH1 0x1 PUSH1 0x40 SHL SUB DUP4 GT PUSH2 0x1D7B JUMPI PUSH2 0x234A DUP4 PUSH2 0x2341 PUSH1 0x2 DUP8 ADD SLOAD PUSH2 0x2CEA JUMP JUMPDEST PUSH1 0x2 DUP8 ADD PUSH2 0x30A9 JUMP JUMPDEST PUSH1 0x20 SWAP1 PUSH1 0x1F DUP5 GT PUSH1 0x1 EQ PUSH2 0x240A JUMPI PUSH32 0x1B84372106D77C6DAEA0DDA35BBC0229D10A83F58EC899092884925193682341 SWAP7 SWAP5 DUP5 DUP1 PUSH2 0x23E9 SWAP7 PUSH2 0x1CEA SWAP10 SWAP7 PUSH1 0xA0 SWAP7 PUSH1 0x4 SWAP7 PUSH1 0x0 SWAP5 PUSH2 0x23FF JUMPI JUMPDEST POP POP SHL SWAP2 PUSH1 0x0 NOT SWAP1 PUSH1 0x3 SHL SHR NOT AND OR PUSH1 0x2 DUP3 ADD SSTORE JUMPDEST PUSH1 0x60 DUP5 ADD MLOAD PUSH1 0x3 DUP3 ADD SSTORE ADD SWAP2 PUSH2 0x23D1 PUSH1 0x80 DUP3 ADD MLOAD ISZERO ISZERO DUP5 SWAP1 PUSH1 0xFF DUP1 NOT DUP4 SLOAD AND SWAP2 ISZERO ISZERO AND OR SWAP1 SSTORE JUMP JUMPDEST ADD MLOAD DUP2 SLOAD PUSH2 0xFF00 NOT AND SWAP1 ISZERO ISZERO PUSH1 0x8 SHL PUSH2 0xFF00 AND OR SWAP1 SSTORE JUMP JUMPDEST PUSH1 0x40 MLOAD SWAP2 DUP3 SWAP2 PUSH1 0x20 DUP4 MSTORE CALLER SWAP7 PUSH1 0x20 DUP5 ADD SWAP2 PUSH2 0x3179 JUMP JUMPDEST ADD MLOAD SWAP3 POP DUP15 DUP1 PUSH2 0x2394 JUMP JUMPDEST SWAP1 PUSH1 0x2 DUP6 SWAP5 SWAP4 SWAP5 ADD PUSH1 0x0 MSTORE PUSH1 0x20 PUSH1 0x0 KECCAK256 SWAP2 PUSH1 0x0 JUMPDEST PUSH1 0x1F NOT DUP6 AND DUP2 LT PUSH2 0x2492 JUMPI POP SWAP5 PUSH2 0x23E9 SWAP5 DUP5 PUSH1 0xA0 SWAP5 PUSH1 0x4 SWAP5 PUSH32 0x1B84372106D77C6DAEA0DDA35BBC0229D10A83F58EC899092884925193682341 SWAP12 SWAP10 PUSH2 0x1CEA SWAP12 SWAP9 PUSH1 0x1F NOT DUP2 AND LT PUSH2 0x2479 JUMPI JUMPDEST POP POP POP DUP2 SHL ADD PUSH1 0x2 DUP3 ADD SSTORE PUSH2 0x23A9 JUMP JUMPDEST ADD MLOAD PUSH1 0x0 NOT PUSH1 0xF8 DUP5 PUSH1 0x3 SHL AND SHR NOT AND SWAP1 SSTORE DUP13 DUP1 DUP1 PUSH2 0x2469 JUMP JUMPDEST DUP2 DUP4 ADD MLOAD DUP5 SSTORE SWAP3 DUP6 ADD SWAP3 PUSH1 0x20 SWAP3 DUP4 ADD SWAP3 ADD PUSH2 0x241E JUMP JUMPDEST PUSH1 0x40 MLOAD PUSH3 0x461BCD PUSH1 0xE5 SHL DUP2 MSTORE PUSH1 0x20 PUSH1 0x4 DUP3 ADD MSTORE PUSH1 0x10 PUSH1 0x24 DUP3 ADD MSTORE PUSH16 0x105B1C9958591E48191A5CDC1D5D1959 PUSH1 0x82 SHL PUSH1 0x44 DUP3 ADD MSTORE PUSH1 0x64 SWAP1 REVERT JUMPDEST PUSH1 0x40 MLOAD PUSH3 0x461BCD PUSH1 0xE5 SHL DUP2 MSTORE PUSH1 0x20 PUSH1 0x4 DUP3 ADD MSTORE PUSH1 0x1C PUSH1 0x24 DUP3 ADD MSTORE PUSH32 0x43616E6E6F742064697370757465206174207468697320737461676500000000 PUSH1 0x44 DUP3 ADD MSTORE PUSH1 0x64 SWAP1 REVERT JUMPDEST PUSH1 0x2 SWAP2 POP EQ DUP10 PUSH2 0x2281 JUMP JUMPDEST PUSH1 0x40 MLOAD PUSH3 0x461BCD PUSH1 0xE5 SHL DUP2 MSTORE PUSH1 0x20 PUSH1 0x4 DUP3 ADD MSTORE PUSH1 0x10 PUSH1 0x24 DUP3 ADD MSTORE PUSH16 0x4E6F742061206465616C207061727479 PUSH1 0x80 SHL PUSH1 0x44 DUP3 ADD MSTORE PUSH1 0x64 SWAP1 REVERT JUMPDEST POP DUP1 PUSH1 0x1 DUP4 ADD SLOAD AND CALLER EQ PUSH2 0x2257 JUMP JUMPDEST CALLVALUE PUSH2 0xA80 JUMPI PUSH1 0x20 CALLDATASIZE PUSH1 0x3 NOT ADD SLT PUSH2 0xA80 JUMPI PUSH1 0x4 CALLDATALOAD PUSH1 0x0 SWAP1 DUP2 MSTORE PUSH1 0x7 PUSH1 0x20 MSTORE PUSH1 0x40 SWAP1 KECCAK256 DUP1 SLOAD PUSH1 0x1 DUP3 ADD SLOAD PUSH1 0x1 PUSH1 0x1 PUSH1 0xA0 SHL SUB AND SWAP2 PUSH1 0xFF PUSH2 0x25B8 PUSH1 0x2 DUP4 ADD PUSH2 0x2D98 JUMP JUMPDEST PUSH2 0x25E4 PUSH1 0x4 PUSH1 0x3 DUP6 ADD SLOAD SWAP5 ADD SLOAD SWAP2 PUSH1 0x40 MLOAD SWAP7 DUP8 SWAP7 DUP8 MSTORE PUSH1 0x20 DUP8 ADD MSTORE PUSH1 0xC0 PUSH1 0x40 DUP8 ADD MSTORE PUSH1 0xC0 DUP7 ADD SWAP1 PUSH2 0x2E62 JUMP JUMPDEST SWAP3 PUSH1 0x60 DUP6 ADD MSTORE DUP2 DUP2 AND ISZERO ISZERO PUSH1 0x80 DUP6 ADD MSTORE PUSH1 0x8 SHR AND ISZERO ISZERO PUSH1 0xA0 DUP4 ADD MSTORE SUB SWAP1 RETURN JUMPDEST CALLVALUE PUSH2 0xA80 JUMPI PUSH1 0x20 DUP1 PUSH1 0x3 NOT CALLDATASIZE ADD SLT PUSH2 0xA80 JUMPI PUSH1 0x1 PUSH1 0x1 PUSH1 0xA0 SHL SUB PUSH2 0x2625 PUSH2 0x2EA2 JUMP JUMPDEST AND PUSH1 0x0 MSTORE PUSH1 0xA DUP2 MSTORE PUSH1 0x40 PUSH1 0x0 KECCAK256 SWAP1 PUSH1 0x40 MLOAD SWAP1 DUP2 DUP2 DUP5 SLOAD SWAP2 DUP3 DUP2 MSTORE ADD SWAP4 PUSH1 0x0 MSTORE DUP2 PUSH1 0x0 KECCAK256 SWAP2 PUSH1 0x0 SWAP1 JUMPDEST DUP3 DUP3 LT PUSH2 0x2674 JUMPI PUSH2 0x2670 DUP6 PUSH2 0x2664 DUP2 DUP10 SUB DUP3 PUSH2 0x2D77 JUMP JUMPDEST PUSH1 0x40 MLOAD SWAP2 DUP3 SWAP2 DUP3 PUSH2 0x2EB8 JUMP JUMPDEST SUB SWAP1 RETURN JUMPDEST DUP4 SLOAD DUP7 MSTORE SWAP5 DUP6 ADD SWAP5 PUSH1 0x1 SWAP4 DUP5 ADD SWAP4 SWAP1 SWAP2 ADD SWAP1 PUSH2 0x264D JUMP JUMPDEST CALLVALUE PUSH2 0xA80 JUMPI PUSH1 0x0 CALLDATASIZE PUSH1 0x3 NOT ADD SLT PUSH2 0xA80 JUMPI PUSH1 0x20 PUSH1 0x40 MLOAD PUSH1 0x32 DUP2 MSTORE RETURN JUMPDEST CALLVALUE PUSH2 0xA80 JUMPI PUSH1 0x40 CALLDATASIZE PUSH1 0x3 NOT ADD SLT PUSH2 0xA80 JUMPI PUSH1 0x4 CALLDATALOAD PUSH2 0x26C3 PUSH2 0x2F75 JUMP JUMPDEST PUSH2 0x26D8 PUSH1 0x1 DUP1 PUSH1 0xA0 SHL SUB PUSH1 0x2 SLOAD AND CALLER EQ PUSH2 0x319A JUMP JUMPDEST PUSH2 0x26E5 PUSH1 0x0 SLOAD DUP4 LT PUSH2 0x3137 JUMP JUMPDEST DUP2 PUSH1 0x0 MSTORE PUSH1 0x5 PUSH1 0x20 MSTORE PUSH1 0xFF PUSH1 0x2 PUSH1 0x40 PUSH1 0x0 KECCAK256 ADD SLOAD PUSH1 0xA8 SHR AND PUSH1 0x9 DUP2 LT ISZERO PUSH2 0xC83 JUMPI PUSH1 0x6 SUB PUSH2 0x27EC JUMPI PUSH1 0x0 DUP3 DUP2 MSTORE PUSH1 0x7 PUSH1 0x20 MSTORE PUSH1 0x40 SWAP1 KECCAK256 PUSH1 0x4 ADD DUP1 SLOAD PUSH2 0xFFFF NOT AND DUP3 ISZERO ISZERO PUSH1 0x8 SHL PUSH2 0xFF00 AND OR PUSH1 0x1 OR SWAP1 SSTORE DUP1 ISZERO PUSH2 0x27BA JUMPI PUSH1 0x40 MLOAD PUSH1 0x40 DUP2 ADD SWAP2 DUP2 DUP4 LT PUSH1 0x1 PUSH1 0x1 PUSH1 0x40 SHL SUB DUP5 GT OR PUSH2 0x1D7B JUMPI PUSH2 0x27AF PUSH1 0x20 SWAP3 PUSH32 0x5A87909BFF68CAAAAF0B3FD9C74EECCC928832F879315E5C6FB7A73612F26C0C SWAP5 PUSH1 0x40 MSTORE PUSH1 0x1B DUP2 MSTORE PUSH32 0x44697370757465207265736F6C7665643A20627579657220776F6E0000000000 DUP5 DUP3 ADD MSTORE DUP6 PUSH2 0x337C JUMP JUMPDEST PUSH1 0x40 MLOAD SWAP1 ISZERO ISZERO DUP2 MSTORE LOG2 STOP JUMPDEST PUSH1 0x20 PUSH32 0x5A87909BFF68CAAAAF0B3FD9C74EECCC928832F879315E5C6FB7A73612F26C0C SWAP2 PUSH2 0x27E7 DUP5 PUSH2 0x323D JUMP JUMPDEST PUSH2 0x27AF JUMP JUMPDEST PUSH1 0x40 MLOAD PUSH3 0x461BCD PUSH1 0xE5 SHL DUP2 MSTORE PUSH1 0x20 PUSH1 0x4 DUP3 ADD MSTORE PUSH1 0xC PUSH1 0x24 DUP3 ADD MSTORE PUSH12 0x139BDD08191A5CDC1D5D1959 PUSH1 0xA2 SHL PUSH1 0x44 DUP3 ADD MSTORE PUSH1 0x64 SWAP1 REVERT JUMPDEST CALLVALUE PUSH2 0xA80 JUMPI PUSH1 0x20 CALLDATASIZE PUSH1 0x3 NOT ADD SLT PUSH2 0xA80 JUMPI PUSH1 0x4 CALLDATALOAD PUSH2 0x2841 PUSH1 0x0 SLOAD DUP3 LT PUSH2 0x3137 JUMP JUMPDEST PUSH1 0x0 DUP2 DUP2 MSTORE PUSH1 0x5 PUSH1 0x20 MSTORE PUSH1 0x40 SWAP1 KECCAK256 DUP1 SLOAD PUSH1 0x1 PUSH1 0x1 PUSH1 0xA0 SHL SUB AND SWAP1 CALLER DUP3 SUB PUSH2 0x2923 JUMPI PUSH1 0x2 DUP2 ADD SWAP1 DUP2 SLOAD SWAP2 PUSH1 0xFF DUP4 PUSH1 0xA8 SHR AND PUSH1 0x9 DUP2 LT ISZERO PUSH2 0xC83 JUMPI PUSH2 0x28DE JUMPI PUSH1 0xFF PUSH1 0xA8 SHL NOT SWAP1 SWAP3 AND PUSH1 0x7 PUSH1 0xA8 SHL OR SWAP1 SWAP2 SSTORE PUSH1 0x3 ADD SLOAD DUP3 SWAP1 PUSH1 0x0 SWAP1 DUP2 SWAP1 DUP2 SWAP1 DUP2 SWAP1 DUP7 DUP3 DUP3 ISZERO PUSH2 0x28D5 JUMPI JUMPDEST CALL ISZERO PUSH2 0xC1B JUMPI PUSH32 0x31B0C01E8429F81903C3F8ADC204767B8EFA7CFCA91A00F3B4BB40CE63C8A206 PUSH1 0x0 DUP1 LOG2 STOP JUMPDEST POP PUSH2 0x8FC PUSH2 0x28A8 JUMP JUMPDEST PUSH1 0x40 MLOAD PUSH3 0x461BCD PUSH1 0xE5 SHL DUP2 MSTORE PUSH1 0x20 PUSH1 0x4 DUP3 ADD MSTORE PUSH1 0x1A PUSH1 0x24 DUP3 ADD MSTORE PUSH32 0x43616E206F6E6C792063616E63656C206F70656E206465616C73000000000000 PUSH1 0x44 DUP3 ADD MSTORE PUSH1 0x64 SWAP1 REVERT JUMPDEST PUSH1 0x40 MLOAD PUSH3 0x461BCD PUSH1 0xE5 SHL DUP2 MSTORE PUSH1 0x20 PUSH1 0x4 DUP3 ADD MSTORE PUSH1 0x9 PUSH1 0x24 DUP3 ADD MSTORE PUSH9 0x2737BA10313ABCB2B9 PUSH1 0xB9 SHL PUSH1 0x44 DUP3 ADD MSTORE PUSH1 0x64 SWAP1 REVERT JUMPDEST CALLVALUE PUSH2 0xA80 JUMPI PUSH1 0x20 CALLDATASIZE PUSH1 0x3 NOT ADD SLT PUSH2 0xA80 JUMPI PUSH2 0x296D PUSH2 0x31D2 JUMP JUMPDEST POP PUSH1 0x4 CALLDATALOAD PUSH1 0x0 MSTORE PUSH1 0x6 PUSH1 0x20 MSTORE PUSH2 0x2670 PUSH1 0x40 PUSH1 0x0 KECCAK256 PUSH1 0xFF PUSH1 0x5 PUSH1 0x40 MLOAD SWAP3 PUSH2 0x2992 DUP5 PUSH2 0x2D24 JUMP JUMPDEST PUSH2 0x299F DUP4 DUP3 SLOAD AND DUP6 PUSH2 0x3057 JUMP JUMPDEST PUSH2 0x29AB PUSH1 0x1 DUP3 ADD PUSH2 0x2D98 JUMP JUMPDEST PUSH1 0x20 DUP6 ADD MSTORE PUSH2 0x29BC PUSH1 0x2 DUP3 ADD PUSH2 0x2D98 JUMP JUMPDEST PUSH1 0x40 DUP6 ADD MSTORE PUSH1 0x3 DUP2 ADD SLOAD PUSH1 0x60 DUP6 ADD MSTORE PUSH1 0x4 DUP2 ADD SLOAD PUSH1 0x80 DUP6 ADD MSTORE ADD SLOAD DUP2 DUP2 AND PUSH2 0x29E3 DUP2 PUSH2 0x2E58 JUMP JUMPDEST PUSH1 0xA0 DUP5 ADD MSTORE DUP2 DUP2 PUSH1 0x8 SHR AND PUSH2 0x29F7 DUP2 PUSH2 0x2E58 JUMP JUMPDEST PUSH1 0xC0 DUP5 ADD MSTORE PUSH1 0x10 SHR AND ISZERO ISZERO PUSH1 0xE0 DUP3 ADD MSTORE PUSH1 0x40 MLOAD SWAP2 DUP3 SWAP2 PUSH1 0x20 DUP4 MSTORE PUSH1 0x20 DUP4 ADD SWAP1 PUSH2 0x2EF3 JUMP JUMPDEST CALLVALUE PUSH2 0xA80 JUMPI PUSH1 0x0 CALLDATASIZE PUSH1 0x3 NOT ADD SLT PUSH2 0xA80 JUMPI PUSH1 0x20 PUSH1 0x0 SLOAD PUSH1 0x40 MLOAD SWAP1 DUP2 MSTORE RETURN JUMPDEST CALLVALUE PUSH2 0xA80 JUMPI PUSH1 0x20 DUP1 PUSH1 0x3 NOT CALLDATASIZE ADD SLT PUSH2 0xA80 JUMPI PUSH1 0x1 PUSH1 0x1 PUSH1 0xA0 SHL SUB PUSH2 0x2A5B PUSH2 0x2EA2 JUMP JUMPDEST AND PUSH1 0x0 MSTORE PUSH1 0x9 DUP2 MSTORE PUSH1 0x40 PUSH1 0x0 KECCAK256 SWAP1 PUSH1 0x40 MLOAD SWAP1 DUP2 DUP2 DUP5 SLOAD SWAP2 DUP3 DUP2 MSTORE ADD SWAP4 PUSH1 0x0 MSTORE DUP2 PUSH1 0x0 KECCAK256 SWAP2 PUSH1 0x0 SWAP1 JUMPDEST DUP3 DUP3 LT PUSH2 0x2A9A JUMPI PUSH2 0x2670 DUP6 PUSH2 0x2664 DUP2 DUP10 SUB DUP3 PUSH2 0x2D77 JUMP JUMPDEST DUP4 SLOAD DUP7 MSTORE SWAP5 DUP6 ADD SWAP5 PUSH1 0x1 SWAP4 DUP5 ADD SWAP4 SWAP1 SWAP2 ADD SWAP1 PUSH2 0x2A83 JUMP JUMPDEST CALLVALUE PUSH2 0xA80 JUMPI PUSH1 0x20 CALLDATASIZE PUSH1 0x3 NOT ADD SLT PUSH2 0xA80 JUMPI PUSH1 0x4 CALLDATALOAD PUSH1 0x0 MSTORE PUSH1 0x5 PUSH1 0x20 MSTORE PUSH1 0x20 PUSH2 0x2ADC PUSH1 0x40 PUSH1 0x0 KECCAK256 PUSH2 0x3468 JUMP JUMPDEST PUSH1 0x40 MLOAD SWAP1 DUP2 MSTORE RETURN JUMPDEST CALLVALUE PUSH2 0xA80 JUMPI PUSH1 0x20 CALLDATASIZE PUSH1 0x3 NOT ADD SLT PUSH2 0xA80 JUMPI PUSH1 0x4 CALLDATALOAD PUSH1 0x0 MSTORE PUSH1 0x5 PUSH1 0x20 MSTORE PUSH1 0x40 PUSH1 0x0 KECCAK256 PUSH1 0x1 PUSH1 0xA0 SHL PUSH1 0x1 SWAP1 SUB DUP2 SLOAD AND SWAP1 DUP1 PUSH1 0x1 PUSH1 0xA0 SHL PUSH1 0x1 SWAP1 SUB PUSH1 0x1 DUP3 ADD SLOAD AND PUSH1 0x2 DUP3 ADD SLOAD PUSH1 0x3 DUP4 ADD SLOAD PUSH1 0x4 DUP5 ADD SLOAD PUSH1 0x5 DUP6 ADD SLOAD PUSH1 0x6 DUP7 ADD SLOAD PUSH1 0x7 DUP8 ADD SLOAD SWAP1 PUSH1 0x8 DUP9 ADD SLOAD SWAP3 PUSH1 0x9 DUP10 ADD SLOAD SWAP5 PUSH1 0xA DUP11 ADD SLOAD SWAP7 PUSH1 0xB DUP12 ADD PUSH2 0x2B60 SWAP1 PUSH2 0x2D98 JUMP JUMPDEST SWAP9 PUSH2 0x2B6D PUSH1 0xC DUP14 ADD PUSH2 0x2D98 JUMP JUMPDEST SWAP11 PUSH2 0x2B7A PUSH1 0xD DUP15 ADD PUSH2 0x2D98 JUMP JUMPDEST SWAP13 PUSH1 0xE ADD PUSH2 0x2B87 SWAP1 PUSH2 0x2D98 JUMP JUMPDEST SWAP14 PUSH1 0xF ADD SLOAD SWAP15 PUSH1 0x40 MLOAD DUP1 PUSH1 0x80 MSTORE MSTORE PUSH1 0x80 MLOAD PUSH1 0x20 ADD MSTORE PUSH1 0x1 PUSH1 0xA0 SHL PUSH1 0x1 SWAP1 SUB DUP2 AND PUSH1 0x80 MLOAD PUSH1 0x40 ADD MSTORE PUSH1 0x80 MLOAD PUSH1 0x60 ADD DUP2 PUSH1 0xA0 SHR PUSH1 0xFF AND SWAP1 PUSH2 0x2BC5 SWAP2 PUSH2 0x2E3E JUMP JUMPDEST PUSH1 0x80 MLOAD PUSH1 0x80 ADD DUP2 PUSH1 0xA8 SHR PUSH1 0xFF AND SWAP1 PUSH2 0x2BDC SWAP2 PUSH2 0x2E4B JUMP JUMPDEST DUP1 PUSH1 0xB0 SHR PUSH1 0xFF AND PUSH2 0x2BEC DUP2 PUSH2 0x2E58 JUMP JUMPDEST PUSH1 0x80 MLOAD PUSH1 0xA0 ADD MSTORE PUSH1 0xB8 SHR PUSH1 0xFF AND PUSH2 0x2C02 DUP2 PUSH2 0x2E58 JUMP JUMPDEST PUSH1 0x80 MLOAD PUSH1 0xC0 ADD MSTORE PUSH1 0x80 MLOAD PUSH1 0xE0 ADD MSTORE PUSH1 0x80 MLOAD PUSH2 0x100 ADD MSTORE PUSH1 0x80 MLOAD PUSH2 0x120 ADD MSTORE PUSH1 0x80 MLOAD PUSH2 0x140 ADD MSTORE PUSH1 0x80 MLOAD PUSH2 0x160 ADD MSTORE PUSH1 0x80 MLOAD PUSH2 0x180 ADD MSTORE PUSH1 0x80 MLOAD PUSH2 0x1A0 ADD MSTORE PUSH1 0x80 MLOAD PUSH2 0x1C0 ADD MSTORE PUSH2 0x2E0 DUP1 PUSH1 0x80 MLOAD PUSH2 0x1E0 ADD MSTORE PUSH1 0x80 MLOAD ADD PUSH2 0x2C61 SWAP2 PUSH2 0x2E62 JUMP JUMPDEST PUSH1 0x80 MLOAD DUP1 DUP3 SUB SWAP1 PUSH2 0x200 ADD MSTORE PUSH2 0x2C76 SWAP2 PUSH2 0x2E62 JUMP JUMPDEST PUSH1 0x80 MLOAD DUP1 DUP3 SUB SWAP1 PUSH2 0x220 ADD MSTORE PUSH2 0x2C8B SWAP2 PUSH2 0x2E62 JUMP JUMPDEST PUSH1 0x80 MLOAD DUP1 DUP3 SUB SWAP1 PUSH2 0x240 ADD MSTORE PUSH2 0x2CA0 SWAP2 PUSH2 0x2E62 JUMP JUMPDEST SWAP1 PUSH1 0xFF DUP2 AND ISZERO ISZERO PUSH1 0x80 MLOAD PUSH2 0x260 ADD MSTORE DUP1 PUSH1 0x8 SHR PUSH1 0xFF AND ISZERO ISZERO PUSH1 0x80 MLOAD PUSH2 0x280 ADD MSTORE DUP1 PUSH1 0x10 SHR PUSH1 0xFF AND ISZERO ISZERO PUSH1 0x80 MLOAD PUSH2 0x2A0 ADD MSTORE PUSH1 0x18 SHR PUSH1 0xFF AND ISZERO ISZERO PUSH1 0x80 MLOAD PUSH2 0x2C0 ADD MSTORE PUSH1 0x80 MLOAD DUP1 SWAP2 SUB SWAP1 RETURN JUMPDEST SWAP1 PUSH1 0x1 DUP3 DUP2 SHR SWAP3 AND DUP1 ISZERO PUSH2 0x2D1A JUMPI JUMPDEST PUSH1 0x20 DUP4 LT EQ PUSH2 0x2D04 JUMPI JUMP JUMPDEST PUSH4 0x4E487B71 PUSH1 0xE0 SHL PUSH1 0x0 MSTORE PUSH1 0x22 PUSH1 0x4 MSTORE PUSH1 0x24 PUSH1 0x0 REVERT JUMPDEST SWAP2 PUSH1 0x7F AND SWAP2 PUSH2 0x2CF9 JUMP JUMPDEST PUSH2 0x100 DUP2 ADD SWAP1 DUP2 LT PUSH1 0x1 PUSH1 0x1 PUSH1 0x40 SHL SUB DUP3 GT OR PUSH2 0x1D7B JUMPI PUSH1 0x40 MSTORE JUMP JUMPDEST PUSH1 0xC0 DUP2 ADD SWAP1 DUP2 LT PUSH1 0x1 PUSH1 0x1 PUSH1 0x40 SHL SUB DUP3 GT OR PUSH2 0x1D7B JUMPI PUSH1 0x40 MSTORE JUMP JUMPDEST PUSH2 0x2E0 DUP2 ADD SWAP1 DUP2 LT PUSH1 0x1 PUSH1 0x1 PUSH1 0x40 SHL SUB DUP3 GT OR PUSH2 0x1D7B JUMPI PUSH1 0x40 MSTORE JUMP JUMPDEST SWAP1 PUSH1 0x1F DUP1 NOT SWAP2 ADD AND DUP2 ADD SWAP1 DUP2 LT PUSH1 0x1 PUSH1 0x1 PUSH1 0x40 SHL SUB DUP3 GT OR PUSH2 0x1D7B JUMPI PUSH1 0x40 MSTORE JUMP JUMPDEST SWAP1 PUSH1 0x40 MLOAD SWAP2 DUP3 PUSH1 0x0 DUP3 SLOAD SWAP3 PUSH2 0x2DAC DUP5 PUSH2 0x2CEA JUMP JUMPDEST SWAP1 DUP2 DUP5 MSTORE PUSH1 0x1 SWAP5 DUP6 DUP2 AND SWAP1 DUP2 PUSH1 0x0 EQ PUSH2 0x2E1B JUMPI POP PUSH1 0x1 EQ PUSH2 0x2DD8 JUMPI JUMPDEST POP POP PUSH2 0x2DD6 SWAP3 POP SUB DUP4 PUSH2 0x2D77 JUMP JUMPDEST JUMP JUMPDEST SWAP1 SWAP4 SWAP2 POP PUSH1 0x0 MSTORE PUSH1 0x20 SWAP1 DUP2 PUSH1 0x0 KECCAK256 SWAP4 PUSH1 0x0 SWAP2 JUMPDEST DUP2 DUP4 LT PUSH2 0x2E03 JUMPI POP POP PUSH2 0x2DD6 SWAP4 POP DUP3 ADD ADD CODESIZE DUP1 PUSH2 0x2DC8 JUMP JUMPDEST DUP6 SLOAD DUP9 DUP5 ADD DUP6 ADD MSTORE SWAP5 DUP6 ADD SWAP5 DUP8 SWAP5 POP SWAP2 DUP4 ADD SWAP2 PUSH2 0x2DEB JUMP JUMPDEST SWAP2 POP POP PUSH2 0x2DD6 SWAP5 POP PUSH1 0x20 SWAP3 POP PUSH1 0xFF NOT AND DUP3 DUP5 ADD MSTORE ISZERO ISZERO PUSH1 0x5 SHL DUP3 ADD ADD CODESIZE DUP1 PUSH2 0x2DC8 JUMP JUMPDEST SWAP1 PUSH1 0xC DUP3 LT ISZERO PUSH2 0xC83 JUMPI MSTORE JUMP JUMPDEST SWAP1 PUSH1 0x9 DUP3 LT ISZERO PUSH2 0xC83 JUMPI MSTORE JUMP JUMPDEST PUSH1 0x4 GT ISZERO PUSH2 0xC83 JUMPI JUMP JUMPDEST SWAP2 SWAP1 DUP3 MLOAD SWAP3 DUP4 DUP3 MSTORE PUSH1 0x0 JUMPDEST DUP5 DUP2 LT PUSH2 0x2E8E JUMPI POP POP DUP3 PUSH1 0x0 PUSH1 0x20 DUP1 SWAP5 SWAP6 DUP5 ADD ADD MSTORE PUSH1 0x1F DUP1 NOT SWAP2 ADD AND ADD ADD SWAP1 JUMP JUMPDEST PUSH1 0x20 DUP2 DUP4 ADD DUP2 ADD MLOAD DUP5 DUP4 ADD DUP3 ADD MSTORE ADD PUSH2 0x2E6D JUMP JUMPDEST PUSH1 0x4 CALLDATALOAD SWAP1 PUSH1 0x1 PUSH1 0x1 PUSH1 0xA0 SHL SUB DUP3 AND DUP3 SUB PUSH2 0xA80 JUMPI JUMP JUMPDEST PUSH1 0x20 SWAP1 DUP2 PUSH1 0x40 DUP2 DUP4 ADD SWAP3 DUP3 DUP2 MSTORE DUP6 MLOAD DUP1 SWAP5 MSTORE ADD SWAP4 ADD SWAP2 PUSH1 0x0 JUMPDEST DUP3 DUP2 LT PUSH2 0x2EDF JUMPI POP POP POP POP SWAP1 JUMP JUMPDEST DUP4 MLOAD DUP6 MSTORE SWAP4 DUP2 ADD SWAP4 SWAP3 DUP2 ADD SWAP3 PUSH1 0x1 ADD PUSH2 0x2ED1 JUMP JUMPDEST SWAP1 PUSH2 0x2EFF DUP2 DUP4 MLOAD PUSH2 0x2E3E JUMP JUMPDEST PUSH1 0xE0 DUP1 PUSH2 0x2F30 PUSH2 0x2F1E PUSH1 0x20 DUP7 ADD MLOAD PUSH2 0x100 DUP1 PUSH1 0x20 DUP9 ADD MSTORE DUP7 ADD SWAP1 PUSH2 0x2E62 JUMP JUMPDEST PUSH1 0x40 DUP7 ADD MLOAD DUP6 DUP3 SUB PUSH1 0x40 DUP8 ADD MSTORE PUSH2 0x2E62 JUMP JUMPDEST SWAP4 PUSH1 0x60 DUP2 ADD MLOAD PUSH1 0x60 DUP6 ADD MSTORE PUSH1 0x80 DUP2 ADD MLOAD PUSH1 0x80 DUP6 ADD MSTORE PUSH1 0xA0 DUP2 ADD MLOAD PUSH2 0x2F53 DUP2 PUSH2 0x2E58 JUMP JUMPDEST PUSH1 0xA0 DUP6 ADD MSTORE PUSH1 0xC0 DUP2 ADD MLOAD PUSH2 0x2F66 DUP2 PUSH2 0x2E58 JUMP JUMPDEST PUSH1 0xC0 DUP6 ADD MSTORE ADD MLOAD ISZERO ISZERO SWAP2 ADD MSTORE SWAP1 JUMP JUMPDEST PUSH1 0x24 CALLDATALOAD SWAP1 DUP2 ISZERO ISZERO DUP3 SUB PUSH2 0xA80 JUMPI JUMP JUMPDEST SWAP2 DUP2 PUSH1 0x1F DUP5 ADD SLT ISZERO PUSH2 0xA80 JUMPI DUP3 CALLDATALOAD SWAP2 PUSH1 0x1 PUSH1 0x1 PUSH1 0x40 SHL SUB DUP4 GT PUSH2 0xA80 JUMPI PUSH1 0x20 DUP4 DUP2 DUP7 ADD SWAP6 ADD ADD GT PUSH2 0xA80 JUMPI JUMP JUMPDEST SWAP1 PUSH1 0x40 PUSH1 0x3 NOT DUP4 ADD SLT PUSH2 0xA80 JUMPI PUSH1 0x4 CALLDATALOAD SWAP2 PUSH1 0x24 CALLDATALOAD SWAP1 PUSH1 0x1 PUSH1 0x1 PUSH1 0x40 SHL SUB DUP3 GT PUSH2 0xA80 JUMPI PUSH2 0x2FE0 SWAP2 PUSH1 0x4 ADD PUSH2 0x2F84 JUMP JUMPDEST SWAP1 SWAP2 JUMP JUMPDEST DUP1 SLOAD DUP3 LT ISZERO PUSH2 0x2FFC JUMPI PUSH1 0x0 MSTORE PUSH1 0x20 PUSH1 0x0 KECCAK256 ADD SWAP1 PUSH1 0x0 SWAP1 JUMP JUMPDEST PUSH4 0x4E487B71 PUSH1 0xE0 SHL PUSH1 0x0 MSTORE PUSH1 0x32 PUSH1 0x4 MSTORE PUSH1 0x24 PUSH1 0x0 REVERT JUMPDEST DUP2 DUP2 MUL SWAP3 SWAP2 DUP2 ISZERO SWAP2 DUP5 DIV EQ OR ISZERO PUSH2 0x3025 JUMPI JUMP JUMPDEST PUSH4 0x4E487B71 PUSH1 0xE0 SHL PUSH1 0x0 MSTORE PUSH1 0x11 PUSH1 0x4 MSTORE PUSH1 0x24 PUSH1 0x0 REVERT JUMPDEST PUSH1 0x0 NOT DUP2 EQ PUSH2 0x3025 JUMPI PUSH1 0x1 ADD SWAP1 JUMP JUMPDEST SWAP2 SWAP1 DUP3 SUB SWAP2 DUP3 GT PUSH2 0x3025 JUMPI JUMP JUMPDEST PUSH1 0xC DUP3 LT ISZERO PUSH2 0xC83 JUMPI MSTORE JUMP JUMPDEST SWAP3 SWAP2 SWAP3 PUSH1 0x1 PUSH1 0x1 PUSH1 0x40 SHL SUB DUP3 GT PUSH2 0x1D7B JUMPI PUSH1 0x40 MLOAD SWAP2 PUSH2 0x308C PUSH1 0x1F DUP3 ADD PUSH1 0x1F NOT AND PUSH1 0x20 ADD DUP5 PUSH2 0x2D77 JUMP JUMPDEST DUP3 SWAP5 DUP2 DUP5 MSTORE DUP2 DUP4 ADD GT PUSH2 0xA80 JUMPI DUP3 DUP2 PUSH1 0x20 SWAP4 DUP5 PUSH1 0x0 SWAP7 ADD CALLDATACOPY ADD ADD MSTORE JUMP JUMPDEST SWAP1 PUSH1 0x1F DUP2 GT PUSH2 0x30B7 JUMPI POP POP POP JUMP JUMPDEST PUSH1 0x0 SWAP2 DUP3 MSTORE PUSH1 0x20 DUP3 KECCAK256 SWAP1 PUSH1 0x20 PUSH1 0x1F DUP6 ADD PUSH1 0x5 SHR DUP4 ADD SWAP5 LT PUSH2 0x30F3 JUMPI JUMPDEST PUSH1 0x1F ADD PUSH1 0x5 SHR ADD SWAP2 JUMPDEST DUP3 DUP2 LT PUSH2 0x30E8 JUMPI POP POP POP JUMP JUMPDEST DUP2 DUP2 SSTORE PUSH1 0x1 ADD PUSH2 0x30DC JUMP JUMPDEST SWAP1 SWAP3 POP DUP3 SWAP1 PUSH2 0x30D3 JUMP JUMPDEST DUP1 SLOAD PUSH9 0x10000000000000000 DUP2 LT ISZERO PUSH2 0x1D7B JUMPI PUSH2 0x311F SWAP2 PUSH1 0x1 DUP3 ADD DUP2 SSTORE PUSH2 0x2FE4 JUMP JUMPDEST DUP2 SWAP3 SWAP2 SLOAD SWAP1 PUSH1 0x3 SHL SWAP2 DUP3 SHL SWAP2 PUSH1 0x0 NOT SWAP1 SHL NOT AND OR SWAP1 SSTORE JUMP JUMPDEST ISZERO PUSH2 0x313E JUMPI JUMP JUMPDEST PUSH1 0x40 MLOAD PUSH3 0x461BCD PUSH1 0xE5 SHL DUP2 MSTORE PUSH1 0x20 PUSH1 0x4 DUP3 ADD MSTORE PUSH1 0x13 PUSH1 0x24 DUP3 ADD MSTORE PUSH19 0x1119585B08191BD95CC81B9BDD08195E1A5CDD PUSH1 0x6A SHL PUSH1 0x44 DUP3 ADD MSTORE PUSH1 0x64 SWAP1 REVERT JUMPDEST SWAP1 DUP1 PUSH1 0x20 SWAP4 SWAP3 DUP2 DUP5 MSTORE DUP5 DUP5 ADD CALLDATACOPY PUSH1 0x0 DUP3 DUP3 ADD DUP5 ADD MSTORE PUSH1 0x1F ADD PUSH1 0x1F NOT AND ADD ADD SWAP1 JUMP JUMPDEST ISZERO PUSH2 0x31A1 JUMPI JUMP JUMPDEST PUSH1 0x40 MLOAD PUSH3 0x461BCD PUSH1 0xE5 SHL DUP2 MSTORE PUSH1 0x20 PUSH1 0x4 DUP3 ADD MSTORE PUSH1 0x9 PUSH1 0x24 DUP3 ADD MSTORE PUSH9 0x2737BA1037BBB732B9 PUSH1 0xB9 SHL PUSH1 0x44 DUP3 ADD MSTORE PUSH1 0x64 SWAP1 REVERT JUMPDEST PUSH1 0x40 MLOAD SWAP1 PUSH2 0x31DF DUP3 PUSH2 0x2D24 JUMP JUMPDEST DUP2 PUSH1 0xE0 PUSH1 0x0 SWAP2 DUP3 DUP2 MSTORE PUSH1 0x60 PUSH1 0x20 DUP3 ADD MSTORE PUSH1 0x60 PUSH1 0x40 DUP3 ADD MSTORE DUP3 PUSH1 0x60 DUP3 ADD MSTORE DUP3 PUSH1 0x80 DUP3 ADD MSTORE DUP3 PUSH1 0xA0 DUP3 ADD MSTORE DUP3 PUSH1 0xC0 DUP3 ADD MSTORE ADD MSTORE JUMP JUMPDEST PUSH1 0x1 PUSH1 0x1 PUSH1 0x40 SHL SUB DUP2 GT PUSH2 0x1D7B JUMPI PUSH1 0x5 SHL PUSH1 0x20 ADD SWAP1 JUMP JUMPDEST DUP1 MLOAD DUP3 LT ISZERO PUSH2 0x2FFC JUMPI PUSH1 0x20 SWAP2 PUSH1 0x5 SHL ADD ADD SWAP1 JUMP JUMPDEST SWAP1 PUSH1 0x0 SWAP2 DUP1 DUP4 MSTORE PUSH1 0x5 PUSH1 0x20 MSTORE PUSH1 0x40 DUP1 DUP5 KECCAK256 PUSH1 0x2 DUP2 ADD PUSH1 0x1 PUSH1 0xAA SHL PUSH1 0xFF PUSH1 0xA8 SHL NOT DUP3 SLOAD AND OR SWAP1 SSTORE PUSH1 0x6 DUP2 ADD SLOAD PUSH2 0x3282 PUSH2 0x2710 PUSH2 0x327A PUSH1 0x4 SLOAD DUP5 PUSH2 0x3012 JUMP JUMPDEST DIV DUP1 SWAP3 PUSH2 0x304A JUMP JUMPDEST SWAP2 PUSH1 0x1 DUP2 ADD PUSH1 0x1 DUP1 PUSH1 0xA0 SHL SUB SWAP2 DUP9 DUP1 DUP1 DUP1 DUP9 DUP8 DUP8 SLOAD AND DUP3 DUP3 ISZERO PUSH2 0x3373 JUMPI JUMPDEST CALL ISZERO PUSH2 0x3353 JUMPI DUP9 DUP5 DUP1 ISZERO DUP1 ISZERO DUP1 PUSH2 0x3366 JUMPI JUMPDEST PUSH2 0x3333 JUMPI JUMPDEST POP POP POP PUSH1 0x4 ADD SLOAD SWAP2 DUP3 ISZERO SWAP2 DUP3 ISZERO PUSH2 0x32FF JUMPI JUMPDEST POP POP POP POP PUSH32 0x288C4F69E41B68E52705717BF70617F3C77F4A2DE96489356AFC0591A8064485 SWAP4 SWAP5 SWAP6 POP DUP3 MLOAD SWAP2 DUP3 MSTORE PUSH1 0x20 DUP3 ADD MSTORE LOG2 JUMP JUMPDEST DUP10 SWAP4 DUP5 SWAP4 DUP5 SWAP4 DUP5 SWAP4 SLOAD AND SWAP1 DUP4 SWAP1 PUSH2 0x332A JUMPI JUMPDEST CALL ISZERO PUSH2 0x3320 JUMPI DUP6 DUP1 DUP1 DUP1 PUSH2 0x32C9 JUMP JUMPDEST DUP3 MLOAD RETURNDATASIZE DUP8 DUP3 RETURNDATACOPY RETURNDATASIZE SWAP1 REVERT JUMPDEST POP PUSH2 0x8FC PUSH2 0x3311 JUMP JUMPDEST DUP3 DUP1 SWAP3 DUP2 SWAP3 DUP9 PUSH1 0x3 SLOAD AND SWAP1 DUP4 SWAP1 PUSH2 0x335D JUMPI JUMPDEST CALL ISZERO PUSH2 0x3353 JUMPI DUP9 DUP5 CODESIZE PUSH2 0x32B7 JUMP JUMPDEST DUP6 MLOAD RETURNDATASIZE DUP11 DUP3 RETURNDATACOPY RETURNDATASIZE SWAP1 REVERT JUMPDEST POP PUSH2 0x8FC PUSH2 0x3345 JUMP JUMPDEST POP DUP6 PUSH1 0x3 SLOAD AND ISZERO ISZERO PUSH2 0x32B2 JUMP JUMPDEST POP PUSH2 0x8FC PUSH2 0x32A0 JUMP JUMPDEST PUSH1 0x0 DUP2 DUP2 MSTORE PUSH1 0x5 PUSH1 0x20 MSTORE PUSH1 0x40 DUP2 KECCAK256 PUSH1 0x2 DUP2 ADD DUP1 SLOAD PUSH1 0xFF PUSH1 0xA8 SHL NOT AND PUSH1 0x5 PUSH1 0xA8 SHL OR SWAP1 SSTORE DUP1 SLOAD PUSH1 0x6 DUP3 ADD SLOAD SWAP4 SWAP5 SWAP4 PUSH1 0x1 PUSH1 0x1 PUSH1 0xA0 SHL SUB SWAP3 SWAP2 DUP5 SWAP2 DUP3 SWAP2 DUP3 SWAP2 DUP3 SWAP2 DUP8 AND DUP3 DUP3 ISZERO PUSH2 0x345F JUMPI JUMPDEST CALL ISZERO PUSH2 0x3454 JUMPI PUSH1 0x4 DUP2 ADD SLOAD SWAP2 DUP3 ISZERO SWAP2 DUP3 ISZERO PUSH2 0x341E JUMPI JUMPDEST POP POP POP POP POP PUSH2 0x3419 PUSH32 0x41B4F147E2C6D9E9A29860E9E78AD942F22DAFEC94B22A64BA3B24173593FFE4 SWAP2 PUSH1 0x40 MLOAD SWAP2 DUP3 SWAP2 PUSH1 0x20 DUP4 MSTORE PUSH1 0x20 DUP4 ADD SWAP1 PUSH2 0x2E62 JUMP JUMPDEST SUB SWAP1 LOG2 JUMP JUMPDEST DUP5 SWAP4 DUP5 SWAP4 DUP5 SWAP4 DUP5 SWAP4 SLOAD AND SWAP1 DUP4 SWAP1 PUSH2 0x344B JUMPI JUMPDEST CALL ISZERO PUSH2 0x343F JUMPI DUP1 DUP1 DUP1 DUP1 PUSH2 0x33DB JUMP JUMPDEST PUSH1 0x40 MLOAD SWAP1 RETURNDATASIZE SWAP1 DUP3 RETURNDATACOPY RETURNDATASIZE SWAP1 REVERT JUMPDEST POP PUSH2 0x8FC PUSH2 0x3430 JUMP JUMPDEST PUSH1 0x40 MLOAD RETURNDATASIZE DUP5 DUP3 RETURNDATACOPY RETURNDATASIZE SWAP1 REVERT JUMPDEST POP PUSH2 0x8FC PUSH2 0x33C5 JUMP JUMPDEST PUSH1 0xFF PUSH1 0x2 DUP3 ADD SLOAD PUSH1 0xB8 SHR AND PUSH2 0x347C DUP2 PUSH2 0x2E58 JUMP JUMPDEST DUP1 ISZERO PUSH2 0x34FC JUMPI PUSH2 0x348B DUP2 PUSH2 0x2E58 JUMP JUMPDEST PUSH1 0x1 DUP2 EQ PUSH2 0x34DD JUMPI PUSH2 0x349C DUP2 PUSH2 0x2E58 JUMP JUMPDEST PUSH1 0x2 DUP2 EQ PUSH2 0x34D5 JUMPI DUP1 PUSH2 0x34B0 PUSH1 0x3 SWAP3 PUSH2 0x2E58 JUMP JUMPDEST EQ PUSH2 0x34BB JUMPI POP PUSH1 0x0 SWAP1 JUMP JUMPDEST PUSH1 0x3 ADD SLOAD DUP1 PUSH1 0x1 SHL SWAP1 DUP1 DUP3 DIV PUSH1 0x2 EQ SWAP1 ISZERO OR ISZERO PUSH2 0x3025 JUMPI SWAP1 JUMP JUMPDEST POP PUSH1 0x3 ADD SLOAD SWAP1 JUMP JUMPDEST POP PUSH1 0x3 ADD SLOAD PUSH1 0x1E DUP2 MUL SWAP1 DUP1 DUP3 DIV PUSH1 0x1E EQ SWAP1 ISZERO OR ISZERO PUSH2 0x3025 JUMPI PUSH1 0x64 SWAP1 DIV SWAP1 JUMP JUMPDEST POP POP PUSH1 0x0 SWAP1 JUMP INVALID LOG2 PUSH5 0x6970667358 0x22 SLT KECCAK256 SWAP7 AND 0xD9 REVERT 0x49 0xDD PUSH20 0x97F60D7017864AAC10AA02CBD16243A8C65BF8BA 0xC5 0xB1 CODESIZE 0xB3 0x2D PUSH5 0x736F6C6343 STOP ADDMOD EQ STOP CALLER "},"methodIdentifiers":{"MAX_COMMIT_FEE_PERCENT()":"3549a191","MAX_DEADLINE_DAYS()":"dd893783","MIN_COMMIT_FEE_PERCENT()":"a310dffd","acceptDeal(uint256)":"7d41702e","addAuthorizedVerifier(address)":"6e607fa7","addTemplate(uint8,string,string,uint256,uint256,uint8,uint8)":"60e9450d","assignVerifier(uint256,address)":"8878a83e","authorizedVerifiers(address)":"9a891716","buyerDeals(address,uint256)":"63302e6e","cancelDeal(uint256)":"31ea1a39","checkExpiry(uint256)":"e4357cd7","createDeal(uint8,string,string,string,uint256,uint256,uint8,uint8)":"fdf71c29","dealCounter()":"217328b6","deals(uint256)":"03988f84","disputes(uint256)":"564a565d","executeDeal(uint256,bool,string)":"bde8d5ad","getAllTemplates()":"8e46a300","getBuyerDeals(address)":"0b0f5853","getDeal(uint256)":"82fd5bac","getDispute(uint256)":"e3a96cbd","getRequiredCollateral(uint256)":"09cd4e26","getSellerDeals(address)":"4a5ee49d","getTemplate(uint256)":"31543cf4","isExpired(uint256)":"d9548e53","owner()":"8da5cb5b","platformFeePercent()":"8c639a85","platformWallet()":"fa2af9da","raiseDispute(uint256,string)":"5aef573c","removeVerifier(address)":"ca2dfd0a","resolveDispute(uint256,bool)":"34b25ee2","sellerDeals(address,uint256)":"eaccafde","submitDelivery(uint256,string)":"618d1d4a","templateCounter()":"d285680d","templates(uint256)":"bc525652","updatePlatformFee(uint256)":"aa0b5988","updatePlatformWallet(address)":"ada4ef30"}}}}}